{
	"FundMe.sol": {
		"FundMe": {
			"abi": [
				{
					"inputs": [],
					"stateMutability": "nonpayable",
					"type": "constructor"
				},
				{
					"inputs": [],
					"name": "FundMe__NotOwner",
					"type": "error"
				},
				{
					"stateMutability": "payable",
					"type": "fallback"
				},
				{
					"inputs": [],
					"name": "fund",
					"outputs": [],
					"stateMutability": "payable",
					"type": "function"
				},
				{
					"inputs": [],
					"name": "withdraw",
					"outputs": [],
					"stateMutability": "nonpayable",
					"type": "function"
				},
				{
					"stateMutability": "payable",
					"type": "receive"
				}
			],
			"devdoc": {
				"kind": "dev",
				"methods": {},
				"version": 1
			},
			"evm": {
				"assembly": "    /* \"FundMe.sol\":299:1471  contract FundMe{... */\n  mstore(0x40, 0xa0)\n    /* \"FundMe.sol\":479:532  constructor(){... */\n  callvalue\n  dup1\n  iszero\n  tag_1\n  jumpi\n  revert(0x00, 0x00)\ntag_1:\n  pop\n    /* \"FundMe.sol\":513:523  msg.sender */\n  caller\n    /* \"FundMe.sol\":503:523  i_owner = msg.sender */\n  0xffffffffffffffffffffffffffffffffffffffff\n  and\n  0x80\n  dup2\n  0xffffffffffffffffffffffffffffffffffffffff\n  and\n  dup2\n  mstore\n  pop\n  pop\n    /* \"FundMe.sol\":299:1471  contract FundMe{... */\n  mload(0x80)\n  codecopy(0x00, dataOffset(sub_0), dataSize(sub_0))\n  0x00\n  assignImmutable(\"0xcc143a676b82d5e07b2c9d57717b403ab3c58caa273a42cdb95b15980141a86c\")\n  return(0x00, dataSize(sub_0))\nstop\n\nsub_0: assembly {\n        /* \"FundMe.sol\":299:1471  contract FundMe{... */\n      mstore(0x40, 0x80)\n      jumpi(tag_1, lt(calldatasize, 0x04))\n      shr(0xe0, calldataload(0x00))\n      dup1\n      0x3ccfd60b\n      eq\n      tag_3\n      jumpi\n      dup1\n      0xb60d4288\n      eq\n      tag_4\n      jumpi\n      jump(tag_2)\n    tag_1:\n      jumpi(tag_2, calldatasize)\n        /* \"FundMe.sol\":1392:1398  fund() */\n      tag_7\n        /* \"FundMe.sol\":1392:1396  fund */\n      tag_8\n        /* \"FundMe.sol\":1392:1398  fund() */\n      jump\t// in\n    tag_7:\n        /* \"FundMe.sol\":299:1471  contract FundMe{... */\n      stop\n    tag_2:\n        /* \"FundMe.sol\":1453:1459  fund() */\n      tag_11\n        /* \"FundMe.sol\":1453:1457  fund */\n      tag_8\n        /* \"FundMe.sol\":1453:1459  fund() */\n      jump\t// in\n    tag_11:\n        /* \"FundMe.sol\":299:1471  contract FundMe{... */\n      stop\n        /* \"FundMe.sol\":773:1207  function withdraw() public onlyOwner {... */\n    tag_3:\n      callvalue\n      dup1\n      iszero\n      tag_12\n      jumpi\n      revert(0x00, 0x00)\n    tag_12:\n      pop\n      tag_13\n      tag_14\n      jump\t// in\n    tag_13:\n      stop\n        /* \"FundMe.sol\":540:765  function fund() public payable {... */\n    tag_4:\n      tag_15\n      tag_8\n      jump\t// in\n    tag_15:\n      stop\n    tag_8:\n        /* \"FundMe.sol\":358:359  5 */\n      0x05\n        /* \"FundMe.sol\":590:619  msg.value.getConversionRate() */\n      tag_17\n        /* \"FundMe.sol\":590:599  msg.value */\n      callvalue\n        /* \"FundMe.sol\":590:617  msg.value.getConversionRate */\n      tag_18\n        /* \"FundMe.sol\":590:619  msg.value.getConversionRate() */\n      jump\t// in\n    tag_17:\n        /* \"FundMe.sol\":590:634  msg.value.getConversionRate() >= MINIMUM_USD */\n      lt\n      iszero\n        /* \"FundMe.sol\":582:663  require(msg.value.getConversionRate() >= MINIMUM_USD, \"less than 5 dollars sent\") */\n      tag_19\n      jumpi\n      mload(0x40)\n      0x08c379a000000000000000000000000000000000000000000000000000000000\n      dup2\n      mstore\n      0x04\n      add\n      tag_20\n      swap1\n      tag_21\n      jump\t// in\n    tag_20:\n      mload(0x40)\n      dup1\n      swap2\n      sub\n      swap1\n      revert\n    tag_19:\n        /* \"FundMe.sol\":674:681  funders */\n      0x00\n        /* \"FundMe.sol\":687:697  msg.sender */\n      caller\n        /* \"FundMe.sol\":674:698  funders.push(msg.sender) */\n      swap1\n      dup1\n      0x01\n      dup2\n      sload\n      add\n      dup1\n      dup3\n      sstore\n      dup1\n      swap2\n      pop\n      pop\n      0x01\n      swap1\n      sub\n      swap1\n      0x00\n      mstore\n      keccak256(0x00, 0x20)\n      add\n      0x00\n      swap1\n      swap2\n      swap1\n      swap2\n      swap1\n      swap2\n      0x0100\n      exp\n      dup2\n      sload\n      dup2\n      0xffffffffffffffffffffffffffffffffffffffff\n      mul\n      not\n      and\n      swap1\n      dup4\n      0xffffffffffffffffffffffffffffffffffffffff\n      and\n      mul\n      or\n      swap1\n      sstore\n      pop\n        /* \"FundMe.sol\":747:756  msg.value */\n      callvalue\n        /* \"FundMe.sol\":710:731  addressToAmountFunded */\n      0x01\n        /* \"FundMe.sol\":710:743  addressToAmountFunded[msg.sender] */\n      0x00\n        /* \"FundMe.sol\":732:742  msg.sender */\n      caller\n        /* \"FundMe.sol\":710:743  addressToAmountFunded[msg.sender] */\n      0xffffffffffffffffffffffffffffffffffffffff\n      and\n      0xffffffffffffffffffffffffffffffffffffffff\n      and\n      dup2\n      mstore\n      0x20\n      add\n      swap1\n      dup2\n      mstore\n      0x20\n      add\n      0x00\n      keccak256\n      0x00\n        /* \"FundMe.sol\":710:756  addressToAmountFunded[msg.sender] += msg.value */\n      dup3\n      dup3\n      sload\n      tag_23\n      swap2\n      swap1\n      tag_24\n      jump\t// in\n    tag_23:\n      swap3\n      pop\n      pop\n      dup2\n      swap1\n      sstore\n      pop\n        /* \"FundMe.sol\":540:765  function fund() public payable {... */\n      jump\t// out\n        /* \"FundMe.sol\":773:1207  function withdraw() public onlyOwner {... */\n    tag_14:\n        /* \"FundMe.sol\":1265:1272  i_owner */\n      immutable(\"0xcc143a676b82d5e07b2c9d57717b403ab3c58caa273a42cdb95b15980141a86c\")\n        /* \"FundMe.sol\":1251:1272  msg.sender != i_owner */\n      0xffffffffffffffffffffffffffffffffffffffff\n      and\n        /* \"FundMe.sol\":1251:1261  msg.sender */\n      caller\n        /* \"FundMe.sol\":1251:1272  msg.sender != i_owner */\n      0xffffffffffffffffffffffffffffffffffffffff\n      and\n      eq\n        /* \"FundMe.sol\":1247:1327  if (msg.sender != i_owner) {... */\n      tag_26\n      jumpi\n        /* \"FundMe.sol\":1296:1314  FundMe__NotOwner() */\n      mload(0x40)\n      0x579610db00000000000000000000000000000000000000000000000000000000\n      dup2\n      mstore\n      0x04\n      add\n      mload(0x40)\n      dup1\n      swap2\n      sub\n      swap1\n      revert\n        /* \"FundMe.sol\":1247:1327  if (msg.sender != i_owner) {... */\n    tag_26:\n        /* \"FundMe.sol\":821:840  uint256 funderIndex */\n      0x00\n        /* \"FundMe.sol\":851:1032  for(funderIndex == 0 ; funderIndex > funders.length; funderIndex++){... */\n    tag_28:\n        /* \"FundMe.sol\":888:895  funders */\n      0x00\n        /* \"FundMe.sol\":888:902  funders.length */\n      dup1\n      sload\n      swap1\n      pop\n        /* \"FundMe.sol\":874:885  funderIndex */\n      dup2\n        /* \"FundMe.sol\":874:902  funderIndex > funders.length */\n      gt\n        /* \"FundMe.sol\":851:1032  for(funderIndex == 0 ; funderIndex > funders.length; funderIndex++){... */\n      iszero\n      tag_29\n      jumpi\n        /* \"FundMe.sol\":933:947  address funder */\n      0x00\n        /* \"FundMe.sol\":950:957  funders */\n      0x00\n        /* \"FundMe.sol\":958:969  funderIndex */\n      dup3\n        /* \"FundMe.sol\":950:970  funders[funderIndex] */\n      dup2\n      sload\n      dup2\n      lt\n      tag_31\n      jumpi\n      tag_32\n      tag_33\n      jump\t// in\n    tag_32:\n    tag_31:\n      swap1\n      0x00\n      mstore\n      keccak256(0x00, 0x20)\n      add\n      0x00\n      swap1\n      sload\n      swap1\n      0x0100\n      exp\n      swap1\n      div\n      0xffffffffffffffffffffffffffffffffffffffff\n      and\n        /* \"FundMe.sol\":933:970  address funder = funders[funderIndex] */\n      swap1\n      pop\n        /* \"FundMe.sol\":1018:1019  0 */\n      0x00\n        /* \"FundMe.sol\":986:1007  addressToAmountFunded */\n      0x01\n        /* \"FundMe.sol\":986:1015  addressToAmountFunded[funder] */\n      0x00\n        /* \"FundMe.sol\":1008:1014  funder */\n      dup4\n        /* \"FundMe.sol\":986:1015  addressToAmountFunded[funder] */\n      0xffffffffffffffffffffffffffffffffffffffff\n      and\n      0xffffffffffffffffffffffffffffffffffffffff\n      and\n      dup2\n      mstore\n      0x20\n      add\n      swap1\n      dup2\n      mstore\n      0x20\n      add\n      0x00\n      keccak256\n        /* \"FundMe.sol\":986:1019  addressToAmountFunded[funder] = 0 */\n      dup2\n      swap1\n      sstore\n      pop\n        /* \"FundMe.sol\":918:1032  {... */\n      pop\n        /* \"FundMe.sol\":904:917  funderIndex++ */\n      dup1\n      dup1\n      tag_35\n      swap1\n      tag_36\n      jump\t// in\n    tag_35:\n      swap2\n      pop\n      pop\n        /* \"FundMe.sol\":851:1032  for(funderIndex == 0 ; funderIndex > funders.length; funderIndex++){... */\n      jump(tag_28)\n    tag_29:\n        /* \"FundMe.sol\":1066:1067  0 */\n      0x00\n        /* \"FundMe.sol\":1052:1068  new address[](0) */\n      0xffffffffffffffff\n      dup2\n      gt\n      iszero\n      tag_37\n      jumpi\n      tag_38\n      tag_39\n      jump\t// in\n    tag_38:\n    tag_37:\n      mload(0x40)\n      swap1\n      dup1\n      dup3\n      mstore\n      dup1\n      0x20\n      mul\n      0x20\n      add\n      dup3\n      add\n      0x40\n      mstore\n      dup1\n      iszero\n      tag_40\n      jumpi\n      dup2\n      0x20\n      add\n      0x20\n      dup3\n      mul\n      dup1\n      calldatasize\n      dup4\n      calldatacopy\n      dup1\n      dup3\n      add\n      swap2\n      pop\n      pop\n      swap1\n      pop\n    tag_40:\n      pop\n        /* \"FundMe.sol\":1042:1049  funders */\n      0x00\n        /* \"FundMe.sol\":1042:1068  funders = new address[](0) */\n      swap1\n      dup1\n      mload\n      swap1\n      0x20\n      add\n      swap1\n      tag_41\n      swap3\n      swap2\n      swap1\n      tag_42\n      jump\t// in\n    tag_41:\n      pop\n        /* \"FundMe.sol\":1081:1093  bool success */\n      0x00\n        /* \"FundMe.sol\":1107:1117  msg.sender */\n      caller\n        /* \"FundMe.sol\":1099:1123  payable(msg.sender).call */\n      0xffffffffffffffffffffffffffffffffffffffff\n      and\n        /* \"FundMe.sol\":1131:1152  address(this).balance */\n      selfbalance\n        /* \"FundMe.sol\":1099:1157  payable(msg.sender).call{value: address(this).balance}(\"\") */\n      mload(0x40)\n      tag_43\n      swap1\n      tag_44\n      jump\t// in\n    tag_43:\n      0x00\n      mload(0x40)\n      dup1\n      dup4\n      sub\n      dup2\n      dup6\n      dup8\n      gas\n      call\n      swap3\n      pop\n      pop\n      pop\n      returndatasize\n      dup1\n      0x00\n      dup2\n      eq\n      tag_47\n      jumpi\n      mload(0x40)\n      swap2\n      pop\n      and(add(returndatasize, 0x3f), not(0x1f))\n      dup3\n      add\n      0x40\n      mstore\n      returndatasize\n      dup3\n      mstore\n      returndatasize\n      0x00\n      0x20\n      dup5\n      add\n      returndatacopy\n      jump(tag_46)\n    tag_47:\n      0x60\n      swap2\n      pop\n    tag_46:\n      pop\n        /* \"FundMe.sol\":1080:1157  (bool success, ) = payable(msg.sender).call{value: address(this).balance}(\"\") */\n      pop\n      swap1\n      pop\n        /* \"FundMe.sol\":1176:1183  success */\n      dup1\n        /* \"FundMe.sol\":1168:1199  require(success, \"Call failed\") */\n      tag_48\n      jumpi\n      mload(0x40)\n      0x08c379a000000000000000000000000000000000000000000000000000000000\n      dup2\n      mstore\n      0x04\n      add\n      tag_49\n      swap1\n      tag_50\n      jump\t// in\n    tag_49:\n      mload(0x40)\n      dup1\n      swap2\n      sub\n      swap1\n      revert\n    tag_48:\n        /* \"FundMe.sol\":810:1207  {... */\n      pop\n      pop\n        /* \"FundMe.sol\":773:1207  function withdraw() public onlyOwner {... */\n      jump\t// out\n        /* \"PriceConverter.sol\":584:803  function getConversionRate(uint256 ethAmount) internal view returns(uint256){... */\n    tag_18:\n        /* \"PriceConverter.sol\":652:659  uint256 */\n      0x00\n        /* \"PriceConverter.sol\":671:687  uint256 ethPrice */\n      0x00\n        /* \"PriceConverter.sol\":690:700  getPrice() */\n      tag_52\n        /* \"PriceConverter.sol\":690:698  getPrice */\n      tag_53\n        /* \"PriceConverter.sol\":690:700  getPrice() */\n      jump\t// in\n    tag_52:\n        /* \"PriceConverter.sol\":671:700  uint256 ethPrice = getPrice() */\n      swap1\n      pop\n        /* \"PriceConverter.sol\":711:733  uint256 ethAmountInUSD */\n      0x00\n        /* \"PriceConverter.sol\":758:762  1e18 */\n      0x0de0b6b3a7640000\n        /* \"PriceConverter.sol\":746:755  ethAmount */\n      dup5\n        /* \"PriceConverter.sol\":737:745  ethPrice */\n      dup4\n        /* \"PriceConverter.sol\":737:755  ethPrice*ethAmount */\n      tag_54\n      swap2\n      swap1\n      tag_55\n      jump\t// in\n    tag_54:\n        /* \"PriceConverter.sol\":736:762  (ethPrice*ethAmount)/ 1e18 */\n      tag_56\n      swap2\n      swap1\n      tag_57\n      jump\t// in\n    tag_56:\n        /* \"PriceConverter.sol\":711:762  uint256 ethAmountInUSD = (ethPrice*ethAmount)/ 1e18 */\n      swap1\n      pop\n        /* \"PriceConverter.sol\":780:794  ethAmountInUSD */\n      dup1\n        /* \"PriceConverter.sol\":773:794  return ethAmountInUSD */\n      swap3\n      pop\n      pop\n      pop\n        /* \"PriceConverter.sol\":584:803  function getConversionRate(uint256 ethAmount) internal view returns(uint256){... */\n      swap2\n      swap1\n      pop\n      jump\t// out\n        /* \"PriceConverter.sol\":263:521  function getPrice() internal view returns(uint) {... */\n    tag_53:\n        /* \"PriceConverter.sol\":305:309  uint */\n      0x00\n        /* \"PriceConverter.sol\":322:353  AggregatorV3Interface priceFeed */\n      0x00\n        /* \"PriceConverter.sol\":378:420  0x1b44F3514812d835EB1BDB0acB33d3fA3351Ee43 */\n      0x1b44f3514812d835eb1bdb0acb33d3fa3351ee43\n        /* \"PriceConverter.sol\":322:421  AggregatorV3Interface priceFeed = AggregatorV3Interface(0x1b44F3514812d835EB1BDB0acB33d3fA3351Ee43) */\n      swap1\n      pop\n        /* \"PriceConverter.sol\":434:443  int price */\n      0x00\n        /* \"PriceConverter.sol\":450:459  priceFeed */\n      dup2\n        /* \"PriceConverter.sol\":450:475  priceFeed.latestRoundData */\n      0xffffffffffffffffffffffffffffffffffffffff\n      and\n      0xfeaf968c\n        /* \"PriceConverter.sol\":450:477  priceFeed.latestRoundData() */\n      mload(0x40)\n      dup2\n      0xffffffff\n      and\n      0xe0\n      shl\n      dup2\n      mstore\n      0x04\n      add\n      0xa0\n      mload(0x40)\n      dup1\n      dup4\n      sub\n      dup2\n      dup7\n      gas\n      staticcall\n      iszero\n      dup1\n      iszero\n      tag_60\n      jumpi\n      returndatacopy(0x00, 0x00, returndatasize)\n      revert(0x00, returndatasize)\n    tag_60:\n      pop\n      pop\n      pop\n      pop\n      mload(0x40)\n      returndatasize\n      not(0x1f)\n      0x1f\n      dup3\n      add\n      and\n      dup3\n      add\n      dup1\n      0x40\n      mstore\n      pop\n      dup2\n      add\n      swap1\n      tag_61\n      swap2\n      swap1\n      tag_62\n      jump\t// in\n    tag_61:\n        /* \"PriceConverter.sol\":432:477  (,int price,,,) = priceFeed.latestRoundData() */\n      pop\n      pop\n      pop\n      swap2\n      pop\n      pop\n        /* \"PriceConverter.sol\":509:513  1e10 */\n      0x02540be400\n        /* \"PriceConverter.sol\":500:505  price */\n      dup2\n        /* \"PriceConverter.sol\":495:513  uint(price) * 1e10 */\n      tag_63\n      swap2\n      swap1\n      tag_55\n      jump\t// in\n    tag_63:\n        /* \"PriceConverter.sol\":488:513  return uint(price) * 1e10 */\n      swap3\n      pop\n      pop\n      pop\n        /* \"PriceConverter.sol\":263:521  function getPrice() internal view returns(uint) {... */\n      swap1\n      jump\t// out\n    tag_42:\n      dup3\n      dup1\n      sload\n      dup3\n      dup3\n      sstore\n      swap1\n      0x00\n      mstore\n      keccak256(0x00, 0x20)\n      swap1\n      dup2\n      add\n      swap3\n      dup3\n      iszero\n      tag_64\n      jumpi\n      swap2\n      0x20\n      mul\n      dup3\n      add\n    tag_65:\n      dup3\n      dup2\n      gt\n      iszero\n      tag_66\n      jumpi\n      dup3\n      mload\n      dup3\n      exp(0x0100, 0x00)\n      dup2\n      sload\n      dup2\n      0xffffffffffffffffffffffffffffffffffffffff\n      mul\n      not\n      and\n      swap1\n      dup4\n      0xffffffffffffffffffffffffffffffffffffffff\n      and\n      mul\n      or\n      swap1\n      sstore\n      pop\n      swap2\n      0x20\n      add\n      swap2\n      swap1\n      0x01\n      add\n      swap1\n      jump(tag_65)\n    tag_66:\n    tag_64:\n      pop\n      swap1\n      pop\n      tag_67\n      swap2\n      swap1\n      tag_68\n      jump\t// in\n    tag_67:\n      pop\n      swap1\n      jump\t// out\n    tag_68:\n    tag_69:\n      dup1\n      dup3\n      gt\n      iszero\n      tag_70\n      jumpi\n      0x00\n      dup2\n      0x00\n      swap1\n      sstore\n      pop\n      0x01\n      add\n      jump(tag_69)\n    tag_70:\n      pop\n      swap1\n      jump\t// out\n        /* \"#utility.yul\":7:176   */\n    tag_71:\n        /* \"#utility.yul\":91:102   */\n      0x00\n        /* \"#utility.yul\":125:131   */\n      dup3\n        /* \"#utility.yul\":120:123   */\n      dup3\n        /* \"#utility.yul\":113:132   */\n      mstore\n        /* \"#utility.yul\":165:169   */\n      0x20\n        /* \"#utility.yul\":160:163   */\n      dup3\n        /* \"#utility.yul\":156:170   */\n      add\n        /* \"#utility.yul\":141:170   */\n      swap1\n      pop\n        /* \"#utility.yul\":7:176   */\n      swap3\n      swap2\n      pop\n      pop\n      jump\t// out\n        /* \"#utility.yul\":182:356   */\n    tag_72:\n        /* \"#utility.yul\":322:348   */\n      0x6c657373207468616e203520646f6c6c6172732073656e740000000000000000\n        /* \"#utility.yul\":318:319   */\n      0x00\n        /* \"#utility.yul\":310:316   */\n      dup3\n        /* \"#utility.yul\":306:320   */\n      add\n        /* \"#utility.yul\":299:349   */\n      mstore\n        /* \"#utility.yul\":182:356   */\n      pop\n      jump\t// out\n        /* \"#utility.yul\":362:728   */\n    tag_73:\n        /* \"#utility.yul\":504:507   */\n      0x00\n        /* \"#utility.yul\":525:592   */\n      tag_97\n        /* \"#utility.yul\":589:591   */\n      0x18\n        /* \"#utility.yul\":584:587   */\n      dup4\n        /* \"#utility.yul\":525:592   */\n      tag_71\n      jump\t// in\n    tag_97:\n        /* \"#utility.yul\":518:592   */\n      swap2\n      pop\n        /* \"#utility.yul\":601:694   */\n      tag_98\n        /* \"#utility.yul\":690:693   */\n      dup3\n        /* \"#utility.yul\":601:694   */\n      tag_72\n      jump\t// in\n    tag_98:\n        /* \"#utility.yul\":719:721   */\n      0x20\n        /* \"#utility.yul\":714:717   */\n      dup3\n        /* \"#utility.yul\":710:722   */\n      add\n        /* \"#utility.yul\":703:722   */\n      swap1\n      pop\n        /* \"#utility.yul\":362:728   */\n      swap2\n      swap1\n      pop\n      jump\t// out\n        /* \"#utility.yul\":734:1153   */\n    tag_21:\n        /* \"#utility.yul\":900:904   */\n      0x00\n        /* \"#utility.yul\":938:940   */\n      0x20\n        /* \"#utility.yul\":927:936   */\n      dup3\n        /* \"#utility.yul\":923:941   */\n      add\n        /* \"#utility.yul\":915:941   */\n      swap1\n      pop\n        /* \"#utility.yul\":987:996   */\n      dup2\n        /* \"#utility.yul\":981:985   */\n      dup2\n        /* \"#utility.yul\":977:997   */\n      sub\n        /* \"#utility.yul\":973:974   */\n      0x00\n        /* \"#utility.yul\":962:971   */\n      dup4\n        /* \"#utility.yul\":958:975   */\n      add\n        /* \"#utility.yul\":951:998   */\n      mstore\n        /* \"#utility.yul\":1015:1146   */\n      tag_100\n        /* \"#utility.yul\":1141:1145   */\n      dup2\n        /* \"#utility.yul\":1015:1146   */\n      tag_73\n      jump\t// in\n    tag_100:\n        /* \"#utility.yul\":1007:1146   */\n      swap1\n      pop\n        /* \"#utility.yul\":734:1153   */\n      swap2\n      swap1\n      pop\n      jump\t// out\n        /* \"#utility.yul\":1159:1236   */\n    tag_74:\n        /* \"#utility.yul\":1196:1203   */\n      0x00\n        /* \"#utility.yul\":1225:1230   */\n      dup2\n        /* \"#utility.yul\":1214:1230   */\n      swap1\n      pop\n        /* \"#utility.yul\":1159:1236   */\n      swap2\n      swap1\n      pop\n      jump\t// out\n        /* \"#utility.yul\":1242:1422   */\n    tag_75:\n        /* \"#utility.yul\":1290:1367   */\n      0x4e487b7100000000000000000000000000000000000000000000000000000000\n        /* \"#utility.yul\":1287:1288   */\n      0x00\n        /* \"#utility.yul\":1280:1368   */\n      mstore\n        /* \"#utility.yul\":1387:1391   */\n      0x11\n        /* \"#utility.yul\":1384:1385   */\n      0x04\n        /* \"#utility.yul\":1377:1392   */\n      mstore\n        /* \"#utility.yul\":1411:1415   */\n      0x24\n        /* \"#utility.yul\":1408:1409   */\n      0x00\n        /* \"#utility.yul\":1401:1416   */\n      revert\n        /* \"#utility.yul\":1428:1619   */\n    tag_24:\n        /* \"#utility.yul\":1468:1471   */\n      0x00\n        /* \"#utility.yul\":1487:1507   */\n      tag_104\n        /* \"#utility.yul\":1505:1506   */\n      dup3\n        /* \"#utility.yul\":1487:1507   */\n      tag_74\n      jump\t// in\n    tag_104:\n        /* \"#utility.yul\":1482:1507   */\n      swap2\n      pop\n        /* \"#utility.yul\":1521:1541   */\n      tag_105\n        /* \"#utility.yul\":1539:1540   */\n      dup4\n        /* \"#utility.yul\":1521:1541   */\n      tag_74\n      jump\t// in\n    tag_105:\n        /* \"#utility.yul\":1516:1541   */\n      swap3\n      pop\n        /* \"#utility.yul\":1564:1565   */\n      dup3\n        /* \"#utility.yul\":1561:1562   */\n      dup3\n        /* \"#utility.yul\":1557:1566   */\n      add\n        /* \"#utility.yul\":1550:1566   */\n      swap1\n      pop\n        /* \"#utility.yul\":1585:1588   */\n      dup1\n        /* \"#utility.yul\":1582:1583   */\n      dup3\n        /* \"#utility.yul\":1579:1589   */\n      gt\n        /* \"#utility.yul\":1576:1612   */\n      iszero\n      tag_106\n      jumpi\n        /* \"#utility.yul\":1592:1610   */\n      tag_107\n      tag_75\n      jump\t// in\n    tag_107:\n        /* \"#utility.yul\":1576:1612   */\n    tag_106:\n        /* \"#utility.yul\":1428:1619   */\n      swap3\n      swap2\n      pop\n      pop\n      jump\t// out\n        /* \"#utility.yul\":1625:1805   */\n    tag_33:\n        /* \"#utility.yul\":1673:1750   */\n      0x4e487b7100000000000000000000000000000000000000000000000000000000\n        /* \"#utility.yul\":1670:1671   */\n      0x00\n        /* \"#utility.yul\":1663:1751   */\n      mstore\n        /* \"#utility.yul\":1770:1774   */\n      0x32\n        /* \"#utility.yul\":1767:1768   */\n      0x04\n        /* \"#utility.yul\":1760:1775   */\n      mstore\n        /* \"#utility.yul\":1794:1798   */\n      0x24\n        /* \"#utility.yul\":1791:1792   */\n      0x00\n        /* \"#utility.yul\":1784:1799   */\n      revert\n        /* \"#utility.yul\":1811:2044   */\n    tag_36:\n        /* \"#utility.yul\":1850:1853   */\n      0x00\n        /* \"#utility.yul\":1873:1897   */\n      tag_110\n        /* \"#utility.yul\":1891:1896   */\n      dup3\n        /* \"#utility.yul\":1873:1897   */\n      tag_74\n      jump\t// in\n    tag_110:\n        /* \"#utility.yul\":1864:1897   */\n      swap2\n      pop\n        /* \"#utility.yul\":1919:1985   */\n      0xffffffffffffffffffffffffffffffffffffffffffffffffffffffffffffffff\n        /* \"#utility.yul\":1912:1917   */\n      dup3\n        /* \"#utility.yul\":1909:1986   */\n      sub\n        /* \"#utility.yul\":1906:2009   */\n      tag_111\n      jumpi\n        /* \"#utility.yul\":1989:2007   */\n      tag_112\n      tag_75\n      jump\t// in\n    tag_112:\n        /* \"#utility.yul\":1906:2009   */\n    tag_111:\n        /* \"#utility.yul\":2036:2037   */\n      0x01\n        /* \"#utility.yul\":2029:2034   */\n      dup3\n        /* \"#utility.yul\":2025:2038   */\n      add\n        /* \"#utility.yul\":2018:2038   */\n      swap1\n      pop\n        /* \"#utility.yul\":1811:2044   */\n      swap2\n      swap1\n      pop\n      jump\t// out\n        /* \"#utility.yul\":2050:2230   */\n    tag_39:\n        /* \"#utility.yul\":2098:2175   */\n      0x4e487b7100000000000000000000000000000000000000000000000000000000\n        /* \"#utility.yul\":2095:2096   */\n      0x00\n        /* \"#utility.yul\":2088:2176   */\n      mstore\n        /* \"#utility.yul\":2195:2199   */\n      0x41\n        /* \"#utility.yul\":2192:2193   */\n      0x04\n        /* \"#utility.yul\":2185:2200   */\n      mstore\n        /* \"#utility.yul\":2219:2223   */\n      0x24\n        /* \"#utility.yul\":2216:2217   */\n      0x00\n        /* \"#utility.yul\":2209:2224   */\n      revert\n        /* \"#utility.yul\":2236:2383   */\n    tag_76:\n        /* \"#utility.yul\":2337:2348   */\n      0x00\n        /* \"#utility.yul\":2374:2377   */\n      dup2\n        /* \"#utility.yul\":2359:2377   */\n      swap1\n      pop\n        /* \"#utility.yul\":2236:2383   */\n      swap3\n      swap2\n      pop\n      pop\n      jump\t// out\n        /* \"#utility.yul\":2389:2503   */\n    tag_77:\n      pop\n      jump\t// out\n        /* \"#utility.yul\":2509:2907   */\n    tag_78:\n        /* \"#utility.yul\":2668:2671   */\n      0x00\n        /* \"#utility.yul\":2689:2772   */\n      tag_117\n        /* \"#utility.yul\":2770:2771   */\n      0x00\n        /* \"#utility.yul\":2765:2768   */\n      dup4\n        /* \"#utility.yul\":2689:2772   */\n      tag_76\n      jump\t// in\n    tag_117:\n        /* \"#utility.yul\":2682:2772   */\n      swap2\n      pop\n        /* \"#utility.yul\":2781:2874   */\n      tag_118\n        /* \"#utility.yul\":2870:2873   */\n      dup3\n        /* \"#utility.yul\":2781:2874   */\n      tag_77\n      jump\t// in\n    tag_118:\n        /* \"#utility.yul\":2899:2900   */\n      0x00\n        /* \"#utility.yul\":2894:2897   */\n      dup3\n        /* \"#utility.yul\":2890:2901   */\n      add\n        /* \"#utility.yul\":2883:2901   */\n      swap1\n      pop\n        /* \"#utility.yul\":2509:2907   */\n      swap2\n      swap1\n      pop\n      jump\t// out\n        /* \"#utility.yul\":2913:3292   */\n    tag_44:\n        /* \"#utility.yul\":3097:3100   */\n      0x00\n        /* \"#utility.yul\":3119:3266   */\n      tag_120\n        /* \"#utility.yul\":3262:3265   */\n      dup3\n        /* \"#utility.yul\":3119:3266   */\n      tag_78\n      jump\t// in\n    tag_120:\n        /* \"#utility.yul\":3112:3266   */\n      swap2\n      pop\n        /* \"#utility.yul\":3283:3286   */\n      dup2\n        /* \"#utility.yul\":3276:3286   */\n      swap1\n      pop\n        /* \"#utility.yul\":2913:3292   */\n      swap2\n      swap1\n      pop\n      jump\t// out\n        /* \"#utility.yul\":3298:3459   */\n    tag_79:\n        /* \"#utility.yul\":3438:3451   */\n      0x43616c6c206661696c6564000000000000000000000000000000000000000000\n        /* \"#utility.yul\":3434:3435   */\n      0x00\n        /* \"#utility.yul\":3426:3432   */\n      dup3\n        /* \"#utility.yul\":3422:3436   */\n      add\n        /* \"#utility.yul\":3415:3452   */\n      mstore\n        /* \"#utility.yul\":3298:3459   */\n      pop\n      jump\t// out\n        /* \"#utility.yul\":3465:3831   */\n    tag_80:\n        /* \"#utility.yul\":3607:3610   */\n      0x00\n        /* \"#utility.yul\":3628:3695   */\n      tag_123\n        /* \"#utility.yul\":3692:3694   */\n      0x0b\n        /* \"#utility.yul\":3687:3690   */\n      dup4\n        /* \"#utility.yul\":3628:3695   */\n      tag_71\n      jump\t// in\n    tag_123:\n        /* \"#utility.yul\":3621:3695   */\n      swap2\n      pop\n        /* \"#utility.yul\":3704:3797   */\n      tag_124\n        /* \"#utility.yul\":3793:3796   */\n      dup3\n        /* \"#utility.yul\":3704:3797   */\n      tag_79\n      jump\t// in\n    tag_124:\n        /* \"#utility.yul\":3822:3824   */\n      0x20\n        /* \"#utility.yul\":3817:3820   */\n      dup3\n        /* \"#utility.yul\":3813:3825   */\n      add\n        /* \"#utility.yul\":3806:3825   */\n      swap1\n      pop\n        /* \"#utility.yul\":3465:3831   */\n      swap2\n      swap1\n      pop\n      jump\t// out\n        /* \"#utility.yul\":3837:4256   */\n    tag_50:\n        /* \"#utility.yul\":4003:4007   */\n      0x00\n        /* \"#utility.yul\":4041:4043   */\n      0x20\n        /* \"#utility.yul\":4030:4039   */\n      dup3\n        /* \"#utility.yul\":4026:4044   */\n      add\n        /* \"#utility.yul\":4018:4044   */\n      swap1\n      pop\n        /* \"#utility.yul\":4090:4099   */\n      dup2\n        /* \"#utility.yul\":4084:4088   */\n      dup2\n        /* \"#utility.yul\":4080:4100   */\n      sub\n        /* \"#utility.yul\":4076:4077   */\n      0x00\n        /* \"#utility.yul\":4065:4074   */\n      dup4\n        /* \"#utility.yul\":4061:4078   */\n      add\n        /* \"#utility.yul\":4054:4101   */\n      mstore\n        /* \"#utility.yul\":4118:4249   */\n      tag_126\n        /* \"#utility.yul\":4244:4248   */\n      dup2\n        /* \"#utility.yul\":4118:4249   */\n      tag_80\n      jump\t// in\n    tag_126:\n        /* \"#utility.yul\":4110:4249   */\n      swap1\n      pop\n        /* \"#utility.yul\":3837:4256   */\n      swap2\n      swap1\n      pop\n      jump\t// out\n        /* \"#utility.yul\":4262:4672   */\n    tag_55:\n        /* \"#utility.yul\":4302:4309   */\n      0x00\n        /* \"#utility.yul\":4325:4345   */\n      tag_128\n        /* \"#utility.yul\":4343:4344   */\n      dup3\n        /* \"#utility.yul\":4325:4345   */\n      tag_74\n      jump\t// in\n    tag_128:\n        /* \"#utility.yul\":4320:4345   */\n      swap2\n      pop\n        /* \"#utility.yul\":4359:4379   */\n      tag_129\n        /* \"#utility.yul\":4377:4378   */\n      dup4\n        /* \"#utility.yul\":4359:4379   */\n      tag_74\n      jump\t// in\n    tag_129:\n        /* \"#utility.yul\":4354:4379   */\n      swap3\n      pop\n        /* \"#utility.yul\":4414:4415   */\n      dup3\n        /* \"#utility.yul\":4411:4412   */\n      dup3\n        /* \"#utility.yul\":4407:4416   */\n      mul\n        /* \"#utility.yul\":4436:4466   */\n      tag_130\n        /* \"#utility.yul\":4454:4465   */\n      dup2\n        /* \"#utility.yul\":4436:4466   */\n      tag_74\n      jump\t// in\n    tag_130:\n        /* \"#utility.yul\":4425:4466   */\n      swap2\n      pop\n        /* \"#utility.yul\":4615:4616   */\n      dup3\n        /* \"#utility.yul\":4606:4613   */\n      dup3\n        /* \"#utility.yul\":4602:4617   */\n      div\n        /* \"#utility.yul\":4599:4600   */\n      dup5\n        /* \"#utility.yul\":4596:4618   */\n      eq\n        /* \"#utility.yul\":4576:4577   */\n      dup4\n        /* \"#utility.yul\":4569:4578   */\n      iszero\n        /* \"#utility.yul\":4549:4632   */\n      or\n        /* \"#utility.yul\":4526:4665   */\n      tag_131\n      jumpi\n        /* \"#utility.yul\":4645:4663   */\n      tag_132\n      tag_75\n      jump\t// in\n    tag_132:\n        /* \"#utility.yul\":4526:4665   */\n    tag_131:\n        /* \"#utility.yul\":4310:4672   */\n      pop\n        /* \"#utility.yul\":4262:4672   */\n      swap3\n      swap2\n      pop\n      pop\n      jump\t// out\n        /* \"#utility.yul\":4678:4858   */\n    tag_81:\n        /* \"#utility.yul\":4726:4803   */\n      0x4e487b7100000000000000000000000000000000000000000000000000000000\n        /* \"#utility.yul\":4723:4724   */\n      0x00\n        /* \"#utility.yul\":4716:4804   */\n      mstore\n        /* \"#utility.yul\":4823:4827   */\n      0x12\n        /* \"#utility.yul\":4820:4821   */\n      0x04\n        /* \"#utility.yul\":4813:4828   */\n      mstore\n        /* \"#utility.yul\":4847:4851   */\n      0x24\n        /* \"#utility.yul\":4844:4845   */\n      0x00\n        /* \"#utility.yul\":4837:4852   */\n      revert\n        /* \"#utility.yul\":4864:5049   */\n    tag_57:\n        /* \"#utility.yul\":4904:4905   */\n      0x00\n        /* \"#utility.yul\":4921:4941   */\n      tag_135\n        /* \"#utility.yul\":4939:4940   */\n      dup3\n        /* \"#utility.yul\":4921:4941   */\n      tag_74\n      jump\t// in\n    tag_135:\n        /* \"#utility.yul\":4916:4941   */\n      swap2\n      pop\n        /* \"#utility.yul\":4955:4975   */\n      tag_136\n        /* \"#utility.yul\":4973:4974   */\n      dup4\n        /* \"#utility.yul\":4955:4975   */\n      tag_74\n      jump\t// in\n    tag_136:\n        /* \"#utility.yul\":4950:4975   */\n      swap3\n      pop\n        /* \"#utility.yul\":4994:4995   */\n      dup3\n        /* \"#utility.yul\":4984:5019   */\n      tag_137\n      jumpi\n        /* \"#utility.yul\":4999:5017   */\n      tag_138\n      tag_81\n      jump\t// in\n    tag_138:\n        /* \"#utility.yul\":4984:5019   */\n    tag_137:\n        /* \"#utility.yul\":5041:5042   */\n      dup3\n        /* \"#utility.yul\":5038:5039   */\n      dup3\n        /* \"#utility.yul\":5034:5043   */\n      div\n        /* \"#utility.yul\":5029:5043   */\n      swap1\n      pop\n        /* \"#utility.yul\":4864:5049   */\n      swap3\n      swap2\n      pop\n      pop\n      jump\t// out\n        /* \"#utility.yul\":5136:5253   */\n    tag_83:\n        /* \"#utility.yul\":5245:5246   */\n      0x00\n        /* \"#utility.yul\":5242:5243   */\n      0x00\n        /* \"#utility.yul\":5235:5247   */\n      revert\n        /* \"#utility.yul\":5382:5487   */\n    tag_85:\n        /* \"#utility.yul\":5418:5425   */\n      0x00\n        /* \"#utility.yul\":5458:5480   */\n      0xffffffffffffffffffff\n        /* \"#utility.yul\":5451:5456   */\n      dup3\n        /* \"#utility.yul\":5447:5481   */\n      and\n        /* \"#utility.yul\":5436:5481   */\n      swap1\n      pop\n        /* \"#utility.yul\":5382:5487   */\n      swap2\n      swap1\n      pop\n      jump\t// out\n        /* \"#utility.yul\":5493:5613   */\n    tag_86:\n        /* \"#utility.yul\":5565:5588   */\n      tag_144\n        /* \"#utility.yul\":5582:5587   */\n      dup2\n        /* \"#utility.yul\":5565:5588   */\n      tag_85\n      jump\t// in\n    tag_144:\n        /* \"#utility.yul\":5558:5563   */\n      dup2\n        /* \"#utility.yul\":5555:5589   */\n      eq\n        /* \"#utility.yul\":5545:5607   */\n      tag_145\n      jumpi\n        /* \"#utility.yul\":5603:5604   */\n      0x00\n        /* \"#utility.yul\":5600:5601   */\n      0x00\n        /* \"#utility.yul\":5593:5605   */\n      revert\n        /* \"#utility.yul\":5545:5607   */\n    tag_145:\n        /* \"#utility.yul\":5493:5613   */\n      pop\n      jump\t// out\n        /* \"#utility.yul\":5619:5760   */\n    tag_87:\n        /* \"#utility.yul\":5675:5680   */\n      0x00\n        /* \"#utility.yul\":5706:5712   */\n      dup2\n        /* \"#utility.yul\":5700:5713   */\n      mload\n        /* \"#utility.yul\":5691:5713   */\n      swap1\n      pop\n        /* \"#utility.yul\":5722:5754   */\n      tag_147\n        /* \"#utility.yul\":5748:5753   */\n      dup2\n        /* \"#utility.yul\":5722:5754   */\n      tag_86\n      jump\t// in\n    tag_147:\n        /* \"#utility.yul\":5619:5760   */\n      swap3\n      swap2\n      pop\n      pop\n      jump\t// out\n        /* \"#utility.yul\":5766:5842   */\n    tag_88:\n        /* \"#utility.yul\":5802:5809   */\n      0x00\n        /* \"#utility.yul\":5831:5836   */\n      dup2\n        /* \"#utility.yul\":5820:5836   */\n      swap1\n      pop\n        /* \"#utility.yul\":5766:5842   */\n      swap2\n      swap1\n      pop\n      jump\t// out\n        /* \"#utility.yul\":5848:5968   */\n    tag_89:\n        /* \"#utility.yul\":5920:5943   */\n      tag_150\n        /* \"#utility.yul\":5937:5942   */\n      dup2\n        /* \"#utility.yul\":5920:5943   */\n      tag_88\n      jump\t// in\n    tag_150:\n        /* \"#utility.yul\":5913:5918   */\n      dup2\n        /* \"#utility.yul\":5910:5944   */\n      eq\n        /* \"#utility.yul\":5900:5962   */\n      tag_151\n      jumpi\n        /* \"#utility.yul\":5958:5959   */\n      0x00\n        /* \"#utility.yul\":5955:5956   */\n      0x00\n        /* \"#utility.yul\":5948:5960   */\n      revert\n        /* \"#utility.yul\":5900:5962   */\n    tag_151:\n        /* \"#utility.yul\":5848:5968   */\n      pop\n      jump\t// out\n        /* \"#utility.yul\":5974:6115   */\n    tag_90:\n        /* \"#utility.yul\":6030:6035   */\n      0x00\n        /* \"#utility.yul\":6061:6067   */\n      dup2\n        /* \"#utility.yul\":6055:6068   */\n      mload\n        /* \"#utility.yul\":6046:6068   */\n      swap1\n      pop\n        /* \"#utility.yul\":6077:6109   */\n      tag_153\n        /* \"#utility.yul\":6103:6108   */\n      dup2\n        /* \"#utility.yul\":6077:6109   */\n      tag_89\n      jump\t// in\n    tag_153:\n        /* \"#utility.yul\":5974:6115   */\n      swap3\n      swap2\n      pop\n      pop\n      jump\t// out\n        /* \"#utility.yul\":6121:6243   */\n    tag_91:\n        /* \"#utility.yul\":6194:6218   */\n      tag_155\n        /* \"#utility.yul\":6212:6217   */\n      dup2\n        /* \"#utility.yul\":6194:6218   */\n      tag_74\n      jump\t// in\n    tag_155:\n        /* \"#utility.yul\":6187:6192   */\n      dup2\n        /* \"#utility.yul\":6184:6219   */\n      eq\n        /* \"#utility.yul\":6174:6237   */\n      tag_156\n      jumpi\n        /* \"#utility.yul\":6233:6234   */\n      0x00\n        /* \"#utility.yul\":6230:6231   */\n      0x00\n        /* \"#utility.yul\":6223:6235   */\n      revert\n        /* \"#utility.yul\":6174:6237   */\n    tag_156:\n        /* \"#utility.yul\":6121:6243   */\n      pop\n      jump\t// out\n        /* \"#utility.yul\":6249:6392   */\n    tag_92:\n        /* \"#utility.yul\":6306:6311   */\n      0x00\n        /* \"#utility.yul\":6337:6343   */\n      dup2\n        /* \"#utility.yul\":6331:6344   */\n      mload\n        /* \"#utility.yul\":6322:6344   */\n      swap1\n      pop\n        /* \"#utility.yul\":6353:6386   */\n      tag_158\n        /* \"#utility.yul\":6380:6385   */\n      dup2\n        /* \"#utility.yul\":6353:6386   */\n      tag_91\n      jump\t// in\n    tag_158:\n        /* \"#utility.yul\":6249:6392   */\n      swap3\n      swap2\n      pop\n      pop\n      jump\t// out\n        /* \"#utility.yul\":6398:7369   */\n    tag_62:\n        /* \"#utility.yul\":6501:6507   */\n      0x00\n        /* \"#utility.yul\":6509:6515   */\n      0x00\n        /* \"#utility.yul\":6517:6523   */\n      0x00\n        /* \"#utility.yul\":6525:6531   */\n      0x00\n        /* \"#utility.yul\":6533:6539   */\n      0x00\n        /* \"#utility.yul\":6582:6585   */\n      0xa0\n        /* \"#utility.yul\":6570:6579   */\n      dup7\n        /* \"#utility.yul\":6561:6568   */\n      dup9\n        /* \"#utility.yul\":6557:6580   */\n      sub\n        /* \"#utility.yul\":6553:6586   */\n      slt\n        /* \"#utility.yul\":6550:6670   */\n      iszero\n      tag_160\n      jumpi\n        /* \"#utility.yul\":6589:6668   */\n      tag_161\n      tag_83\n      jump\t// in\n    tag_161:\n        /* \"#utility.yul\":6550:6670   */\n    tag_160:\n        /* \"#utility.yul\":6709:6710   */\n      0x00\n        /* \"#utility.yul\":6734:6797   */\n      tag_162\n        /* \"#utility.yul\":6789:6796   */\n      dup9\n        /* \"#utility.yul\":6780:6786   */\n      dup3\n        /* \"#utility.yul\":6769:6778   */\n      dup10\n        /* \"#utility.yul\":6765:6787   */\n      add\n        /* \"#utility.yul\":6734:6797   */\n      tag_87\n      jump\t// in\n    tag_162:\n        /* \"#utility.yul\":6724:6797   */\n      swap6\n      pop\n        /* \"#utility.yul\":6680:6807   */\n      pop\n        /* \"#utility.yul\":6846:6848   */\n      0x20\n        /* \"#utility.yul\":6872:6935   */\n      tag_163\n        /* \"#utility.yul\":6927:6934   */\n      dup9\n        /* \"#utility.yul\":6918:6924   */\n      dup3\n        /* \"#utility.yul\":6907:6916   */\n      dup10\n        /* \"#utility.yul\":6903:6925   */\n      add\n        /* \"#utility.yul\":6872:6935   */\n      tag_90\n      jump\t// in\n    tag_163:\n        /* \"#utility.yul\":6862:6935   */\n      swap5\n      pop\n        /* \"#utility.yul\":6817:6945   */\n      pop\n        /* \"#utility.yul\":6984:6986   */\n      0x40\n        /* \"#utility.yul\":7010:7074   */\n      tag_164\n        /* \"#utility.yul\":7066:7073   */\n      dup9\n        /* \"#utility.yul\":7057:7063   */\n      dup3\n        /* \"#utility.yul\":7046:7055   */\n      dup10\n        /* \"#utility.yul\":7042:7064   */\n      add\n        /* \"#utility.yul\":7010:7074   */\n      tag_92\n      jump\t// in\n    tag_164:\n        /* \"#utility.yul\":7000:7074   */\n      swap4\n      pop\n        /* \"#utility.yul\":6955:7084   */\n      pop\n        /* \"#utility.yul\":7123:7125   */\n      0x60\n        /* \"#utility.yul\":7149:7213   */\n      tag_165\n        /* \"#utility.yul\":7205:7212   */\n      dup9\n        /* \"#utility.yul\":7196:7202   */\n      dup3\n        /* \"#utility.yul\":7185:7194   */\n      dup10\n        /* \"#utility.yul\":7181:7203   */\n      add\n        /* \"#utility.yul\":7149:7213   */\n      tag_92\n      jump\t// in\n    tag_165:\n        /* \"#utility.yul\":7139:7213   */\n      swap3\n      pop\n        /* \"#utility.yul\":7094:7223   */\n      pop\n        /* \"#utility.yul\":7262:7265   */\n      0x80\n        /* \"#utility.yul\":7289:7352   */\n      tag_166\n        /* \"#utility.yul\":7344:7351   */\n      dup9\n        /* \"#utility.yul\":7335:7341   */\n      dup3\n        /* \"#utility.yul\":7324:7333   */\n      dup10\n        /* \"#utility.yul\":7320:7342   */\n      add\n        /* \"#utility.yul\":7289:7352   */\n      tag_87\n      jump\t// in\n    tag_166:\n        /* \"#utility.yul\":7279:7352   */\n      swap2\n      pop\n        /* \"#utility.yul\":7233:7362   */\n      pop\n        /* \"#utility.yul\":6398:7369   */\n      swap3\n      swap6\n      pop\n      swap3\n      swap6\n      swap1\n      swap4\n      pop\n      jump\t// out\n\n    auxdata: 0xa2646970667358221220b1b4f5370a7c4214c33110924c47f7af913028cdbfd6c2f113de6318067df59e64736f6c634300081b0033\n}\n",
				"bytecode": {
					"linkReferences": {},
					"object": "60a0604052348015600e575f5ffd5b503373ffffffffffffffffffffffffffffffffffffffff1660808173ffffffffffffffffffffffffffffffffffffffff168152505060805161092b61005b5f395f610167015261092b5ff3fe60806040526004361061002c575f3560e01c80633ccfd60b14610045578063b60d42881461005b5761003b565b3661003b57610039610065565b005b610043610065565b005b348015610050575f5ffd5b50610059610165565b005b610063610065565b005b600561007034610396565b10156100b1576040517f08c379a00000000000000000000000000000000000000000000000000000000081526004016100a89061056f565b60405180910390fd5b5f33908060018154018082558091505060019003905f5260205f20015f9091909190916101000a81548173ffffffffffffffffffffffffffffffffffffffff021916908373ffffffffffffffffffffffffffffffffffffffff1602179055503460015f3373ffffffffffffffffffffffffffffffffffffffff1673ffffffffffffffffffffffffffffffffffffffff1681526020019081526020015f205f82825461015c91906105c3565b92505081905550565b7f000000000000000000000000000000000000000000000000000000000000000073ffffffffffffffffffffffffffffffffffffffff163373ffffffffffffffffffffffffffffffffffffffff16146101ea576040517f579610db00000000000000000000000000000000000000000000000000000000815260040160405180910390fd5b5f5b5f8054905081111561028c575f5f828154811061020c5761020b6105f6565b5b905f5260205f20015f9054906101000a900473ffffffffffffffffffffffffffffffffffffffff1690505f60015f8373ffffffffffffffffffffffffffffffffffffffff1673ffffffffffffffffffffffffffffffffffffffff1681526020019081526020015f208190555050808061028490610623565b9150506101ec565b5f67ffffffffffffffff8111156102a6576102a561066a565b5b6040519080825280602002602001820160405280156102d45781602001602082028036833780820191505090505b505f90805190602001906102e9929190610473565b505f3373ffffffffffffffffffffffffffffffffffffffff164760405161030f906106c4565b5f6040518083038185875af1925050503d805f8114610349576040519150601f19603f3d011682016040523d82523d5f602084013e61034e565b606091505b5050905080610392576040517f08c379a000000000000000000000000000000000000000000000000000000000815260040161038990610722565b60405180910390fd5b5050565b5f5f6103a06103ce565b90505f670de0b6b3a764000084836103b89190610740565b6103c291906107ae565b90508092505050919050565b5f5f731b44f3514812d835eb1bdb0acb33d3fa3351ee4390505f8173ffffffffffffffffffffffffffffffffffffffff1663feaf968c6040518163ffffffff1660e01b815260040160a060405180830381865afa158015610431573d5f5f3e3d5ffd5b505050506040513d601f19601f82011682018060405250810190610455919061087e565b5050509150506402540be4008161046c9190610740565b9250505090565b828054828255905f5260205f209081019282156104e9579160200282015b828111156104e8578251825f6101000a81548173ffffffffffffffffffffffffffffffffffffffff021916908373ffffffffffffffffffffffffffffffffffffffff16021790555091602001919060010190610491565b5b5090506104f691906104fa565b5090565b5b80821115610511575f815f9055506001016104fb565b5090565b5f82825260208201905092915050565b7f6c657373207468616e203520646f6c6c6172732073656e7400000000000000005f82015250565b5f610559601883610515565b915061056482610525565b602082019050919050565b5f6020820190508181035f8301526105868161054d565b9050919050565b5f819050919050565b7f4e487b71000000000000000000000000000000000000000000000000000000005f52601160045260245ffd5b5f6105cd8261058d565b91506105d88361058d565b92508282019050808211156105f0576105ef610596565b5b92915050565b7f4e487b71000000000000000000000000000000000000000000000000000000005f52603260045260245ffd5b5f61062d8261058d565b91507fffffffffffffffffffffffffffffffffffffffffffffffffffffffffffffffff820361065f5761065e610596565b5b600182019050919050565b7f4e487b71000000000000000000000000000000000000000000000000000000005f52604160045260245ffd5b5f81905092915050565b50565b5f6106af5f83610697565b91506106ba826106a1565b5f82019050919050565b5f6106ce826106a4565b9150819050919050565b7f43616c6c206661696c65640000000000000000000000000000000000000000005f82015250565b5f61070c600b83610515565b9150610717826106d8565b602082019050919050565b5f6020820190508181035f83015261073981610700565b9050919050565b5f61074a8261058d565b91506107558361058d565b92508282026107638161058d565b9150828204841483151761077a57610779610596565b5b5092915050565b7f4e487b71000000000000000000000000000000000000000000000000000000005f52601260045260245ffd5b5f6107b88261058d565b91506107c38361058d565b9250826107d3576107d2610781565b5b828204905092915050565b5f5ffd5b5f69ffffffffffffffffffff82169050919050565b610800816107e2565b811461080a575f5ffd5b50565b5f8151905061081b816107f7565b92915050565b5f819050919050565b61083381610821565b811461083d575f5ffd5b50565b5f8151905061084e8161082a565b92915050565b61085d8161058d565b8114610867575f5ffd5b50565b5f8151905061087881610854565b92915050565b5f5f5f5f5f60a08688031215610897576108966107de565b5b5f6108a48882890161080d565b95505060206108b588828901610840565b94505060406108c68882890161086a565b93505060606108d78882890161086a565b92505060806108e88882890161080d565b915050929550929590935056fea2646970667358221220b1b4f5370a7c4214c33110924c47f7af913028cdbfd6c2f113de6318067df59e64736f6c634300081b0033",
					"opcodes": "PUSH1 0xA0 PUSH1 0x40 MSTORE CALLVALUE DUP1 ISZERO PUSH1 0xE JUMPI PUSH0 PUSH0 REVERT JUMPDEST POP CALLER PUSH20 0xFFFFFFFFFFFFFFFFFFFFFFFFFFFFFFFFFFFFFFFF AND PUSH1 0x80 DUP2 PUSH20 0xFFFFFFFFFFFFFFFFFFFFFFFFFFFFFFFFFFFFFFFF AND DUP2 MSTORE POP POP PUSH1 0x80 MLOAD PUSH2 0x92B PUSH2 0x5B PUSH0 CODECOPY PUSH0 PUSH2 0x167 ADD MSTORE PUSH2 0x92B PUSH0 RETURN INVALID PUSH1 0x80 PUSH1 0x40 MSTORE PUSH1 0x4 CALLDATASIZE LT PUSH2 0x2C JUMPI PUSH0 CALLDATALOAD PUSH1 0xE0 SHR DUP1 PUSH4 0x3CCFD60B EQ PUSH2 0x45 JUMPI DUP1 PUSH4 0xB60D4288 EQ PUSH2 0x5B JUMPI PUSH2 0x3B JUMP JUMPDEST CALLDATASIZE PUSH2 0x3B JUMPI PUSH2 0x39 PUSH2 0x65 JUMP JUMPDEST STOP JUMPDEST PUSH2 0x43 PUSH2 0x65 JUMP JUMPDEST STOP JUMPDEST CALLVALUE DUP1 ISZERO PUSH2 0x50 JUMPI PUSH0 PUSH0 REVERT JUMPDEST POP PUSH2 0x59 PUSH2 0x165 JUMP JUMPDEST STOP JUMPDEST PUSH2 0x63 PUSH2 0x65 JUMP JUMPDEST STOP JUMPDEST PUSH1 0x5 PUSH2 0x70 CALLVALUE PUSH2 0x396 JUMP JUMPDEST LT ISZERO PUSH2 0xB1 JUMPI PUSH1 0x40 MLOAD PUSH32 0x8C379A000000000000000000000000000000000000000000000000000000000 DUP2 MSTORE PUSH1 0x4 ADD PUSH2 0xA8 SWAP1 PUSH2 0x56F JUMP JUMPDEST PUSH1 0x40 MLOAD DUP1 SWAP2 SUB SWAP1 REVERT JUMPDEST PUSH0 CALLER SWAP1 DUP1 PUSH1 0x1 DUP2 SLOAD ADD DUP1 DUP3 SSTORE DUP1 SWAP2 POP POP PUSH1 0x1 SWAP1 SUB SWAP1 PUSH0 MSTORE PUSH1 0x20 PUSH0 KECCAK256 ADD PUSH0 SWAP1 SWAP2 SWAP1 SWAP2 SWAP1 SWAP2 PUSH2 0x100 EXP DUP2 SLOAD DUP2 PUSH20 0xFFFFFFFFFFFFFFFFFFFFFFFFFFFFFFFFFFFFFFFF MUL NOT AND SWAP1 DUP4 PUSH20 0xFFFFFFFFFFFFFFFFFFFFFFFFFFFFFFFFFFFFFFFF AND MUL OR SWAP1 SSTORE POP CALLVALUE PUSH1 0x1 PUSH0 CALLER PUSH20 0xFFFFFFFFFFFFFFFFFFFFFFFFFFFFFFFFFFFFFFFF AND PUSH20 0xFFFFFFFFFFFFFFFFFFFFFFFFFFFFFFFFFFFFFFFF AND DUP2 MSTORE PUSH1 0x20 ADD SWAP1 DUP2 MSTORE PUSH1 0x20 ADD PUSH0 KECCAK256 PUSH0 DUP3 DUP3 SLOAD PUSH2 0x15C SWAP2 SWAP1 PUSH2 0x5C3 JUMP JUMPDEST SWAP3 POP POP DUP2 SWAP1 SSTORE POP JUMP JUMPDEST PUSH32 0x0 PUSH20 0xFFFFFFFFFFFFFFFFFFFFFFFFFFFFFFFFFFFFFFFF AND CALLER PUSH20 0xFFFFFFFFFFFFFFFFFFFFFFFFFFFFFFFFFFFFFFFF AND EQ PUSH2 0x1EA JUMPI PUSH1 0x40 MLOAD PUSH32 0x579610DB00000000000000000000000000000000000000000000000000000000 DUP2 MSTORE PUSH1 0x4 ADD PUSH1 0x40 MLOAD DUP1 SWAP2 SUB SWAP1 REVERT JUMPDEST PUSH0 JUMPDEST PUSH0 DUP1 SLOAD SWAP1 POP DUP2 GT ISZERO PUSH2 0x28C JUMPI PUSH0 PUSH0 DUP3 DUP2 SLOAD DUP2 LT PUSH2 0x20C JUMPI PUSH2 0x20B PUSH2 0x5F6 JUMP JUMPDEST JUMPDEST SWAP1 PUSH0 MSTORE PUSH1 0x20 PUSH0 KECCAK256 ADD PUSH0 SWAP1 SLOAD SWAP1 PUSH2 0x100 EXP SWAP1 DIV PUSH20 0xFFFFFFFFFFFFFFFFFFFFFFFFFFFFFFFFFFFFFFFF AND SWAP1 POP PUSH0 PUSH1 0x1 PUSH0 DUP4 PUSH20 0xFFFFFFFFFFFFFFFFFFFFFFFFFFFFFFFFFFFFFFFF AND PUSH20 0xFFFFFFFFFFFFFFFFFFFFFFFFFFFFFFFFFFFFFFFF AND DUP2 MSTORE PUSH1 0x20 ADD SWAP1 DUP2 MSTORE PUSH1 0x20 ADD PUSH0 KECCAK256 DUP2 SWAP1 SSTORE POP POP DUP1 DUP1 PUSH2 0x284 SWAP1 PUSH2 0x623 JUMP JUMPDEST SWAP2 POP POP PUSH2 0x1EC JUMP JUMPDEST PUSH0 PUSH8 0xFFFFFFFFFFFFFFFF DUP2 GT ISZERO PUSH2 0x2A6 JUMPI PUSH2 0x2A5 PUSH2 0x66A JUMP JUMPDEST JUMPDEST PUSH1 0x40 MLOAD SWAP1 DUP1 DUP3 MSTORE DUP1 PUSH1 0x20 MUL PUSH1 0x20 ADD DUP3 ADD PUSH1 0x40 MSTORE DUP1 ISZERO PUSH2 0x2D4 JUMPI DUP2 PUSH1 0x20 ADD PUSH1 0x20 DUP3 MUL DUP1 CALLDATASIZE DUP4 CALLDATACOPY DUP1 DUP3 ADD SWAP2 POP POP SWAP1 POP JUMPDEST POP PUSH0 SWAP1 DUP1 MLOAD SWAP1 PUSH1 0x20 ADD SWAP1 PUSH2 0x2E9 SWAP3 SWAP2 SWAP1 PUSH2 0x473 JUMP JUMPDEST POP PUSH0 CALLER PUSH20 0xFFFFFFFFFFFFFFFFFFFFFFFFFFFFFFFFFFFFFFFF AND SELFBALANCE PUSH1 0x40 MLOAD PUSH2 0x30F SWAP1 PUSH2 0x6C4 JUMP JUMPDEST PUSH0 PUSH1 0x40 MLOAD DUP1 DUP4 SUB DUP2 DUP6 DUP8 GAS CALL SWAP3 POP POP POP RETURNDATASIZE DUP1 PUSH0 DUP2 EQ PUSH2 0x349 JUMPI PUSH1 0x40 MLOAD SWAP2 POP PUSH1 0x1F NOT PUSH1 0x3F RETURNDATASIZE ADD AND DUP3 ADD PUSH1 0x40 MSTORE RETURNDATASIZE DUP3 MSTORE RETURNDATASIZE PUSH0 PUSH1 0x20 DUP5 ADD RETURNDATACOPY PUSH2 0x34E JUMP JUMPDEST PUSH1 0x60 SWAP2 POP JUMPDEST POP POP SWAP1 POP DUP1 PUSH2 0x392 JUMPI PUSH1 0x40 MLOAD PUSH32 0x8C379A000000000000000000000000000000000000000000000000000000000 DUP2 MSTORE PUSH1 0x4 ADD PUSH2 0x389 SWAP1 PUSH2 0x722 JUMP JUMPDEST PUSH1 0x40 MLOAD DUP1 SWAP2 SUB SWAP1 REVERT JUMPDEST POP POP JUMP JUMPDEST PUSH0 PUSH0 PUSH2 0x3A0 PUSH2 0x3CE JUMP JUMPDEST SWAP1 POP PUSH0 PUSH8 0xDE0B6B3A7640000 DUP5 DUP4 PUSH2 0x3B8 SWAP2 SWAP1 PUSH2 0x740 JUMP JUMPDEST PUSH2 0x3C2 SWAP2 SWAP1 PUSH2 0x7AE JUMP JUMPDEST SWAP1 POP DUP1 SWAP3 POP POP POP SWAP2 SWAP1 POP JUMP JUMPDEST PUSH0 PUSH0 PUSH20 0x1B44F3514812D835EB1BDB0ACB33D3FA3351EE43 SWAP1 POP PUSH0 DUP2 PUSH20 0xFFFFFFFFFFFFFFFFFFFFFFFFFFFFFFFFFFFFFFFF AND PUSH4 0xFEAF968C PUSH1 0x40 MLOAD DUP2 PUSH4 0xFFFFFFFF AND PUSH1 0xE0 SHL DUP2 MSTORE PUSH1 0x4 ADD PUSH1 0xA0 PUSH1 0x40 MLOAD DUP1 DUP4 SUB DUP2 DUP7 GAS STATICCALL ISZERO DUP1 ISZERO PUSH2 0x431 JUMPI RETURNDATASIZE PUSH0 PUSH0 RETURNDATACOPY RETURNDATASIZE PUSH0 REVERT JUMPDEST POP POP POP POP PUSH1 0x40 MLOAD RETURNDATASIZE PUSH1 0x1F NOT PUSH1 0x1F DUP3 ADD AND DUP3 ADD DUP1 PUSH1 0x40 MSTORE POP DUP2 ADD SWAP1 PUSH2 0x455 SWAP2 SWAP1 PUSH2 0x87E JUMP JUMPDEST POP POP POP SWAP2 POP POP PUSH5 0x2540BE400 DUP2 PUSH2 0x46C SWAP2 SWAP1 PUSH2 0x740 JUMP JUMPDEST SWAP3 POP POP POP SWAP1 JUMP JUMPDEST DUP3 DUP1 SLOAD DUP3 DUP3 SSTORE SWAP1 PUSH0 MSTORE PUSH1 0x20 PUSH0 KECCAK256 SWAP1 DUP2 ADD SWAP3 DUP3 ISZERO PUSH2 0x4E9 JUMPI SWAP2 PUSH1 0x20 MUL DUP3 ADD JUMPDEST DUP3 DUP2 GT ISZERO PUSH2 0x4E8 JUMPI DUP3 MLOAD DUP3 PUSH0 PUSH2 0x100 EXP DUP2 SLOAD DUP2 PUSH20 0xFFFFFFFFFFFFFFFFFFFFFFFFFFFFFFFFFFFFFFFF MUL NOT AND SWAP1 DUP4 PUSH20 0xFFFFFFFFFFFFFFFFFFFFFFFFFFFFFFFFFFFFFFFF AND MUL OR SWAP1 SSTORE POP SWAP2 PUSH1 0x20 ADD SWAP2 SWAP1 PUSH1 0x1 ADD SWAP1 PUSH2 0x491 JUMP JUMPDEST JUMPDEST POP SWAP1 POP PUSH2 0x4F6 SWAP2 SWAP1 PUSH2 0x4FA JUMP JUMPDEST POP SWAP1 JUMP JUMPDEST JUMPDEST DUP1 DUP3 GT ISZERO PUSH2 0x511 JUMPI PUSH0 DUP2 PUSH0 SWAP1 SSTORE POP PUSH1 0x1 ADD PUSH2 0x4FB JUMP JUMPDEST POP SWAP1 JUMP JUMPDEST PUSH0 DUP3 DUP3 MSTORE PUSH1 0x20 DUP3 ADD SWAP1 POP SWAP3 SWAP2 POP POP JUMP JUMPDEST PUSH32 0x6C657373207468616E203520646F6C6C6172732073656E740000000000000000 PUSH0 DUP3 ADD MSTORE POP JUMP JUMPDEST PUSH0 PUSH2 0x559 PUSH1 0x18 DUP4 PUSH2 0x515 JUMP JUMPDEST SWAP2 POP PUSH2 0x564 DUP3 PUSH2 0x525 JUMP JUMPDEST PUSH1 0x20 DUP3 ADD SWAP1 POP SWAP2 SWAP1 POP JUMP JUMPDEST PUSH0 PUSH1 0x20 DUP3 ADD SWAP1 POP DUP2 DUP2 SUB PUSH0 DUP4 ADD MSTORE PUSH2 0x586 DUP2 PUSH2 0x54D JUMP JUMPDEST SWAP1 POP SWAP2 SWAP1 POP JUMP JUMPDEST PUSH0 DUP2 SWAP1 POP SWAP2 SWAP1 POP JUMP JUMPDEST PUSH32 0x4E487B7100000000000000000000000000000000000000000000000000000000 PUSH0 MSTORE PUSH1 0x11 PUSH1 0x4 MSTORE PUSH1 0x24 PUSH0 REVERT JUMPDEST PUSH0 PUSH2 0x5CD DUP3 PUSH2 0x58D JUMP JUMPDEST SWAP2 POP PUSH2 0x5D8 DUP4 PUSH2 0x58D JUMP JUMPDEST SWAP3 POP DUP3 DUP3 ADD SWAP1 POP DUP1 DUP3 GT ISZERO PUSH2 0x5F0 JUMPI PUSH2 0x5EF PUSH2 0x596 JUMP JUMPDEST JUMPDEST SWAP3 SWAP2 POP POP JUMP JUMPDEST PUSH32 0x4E487B7100000000000000000000000000000000000000000000000000000000 PUSH0 MSTORE PUSH1 0x32 PUSH1 0x4 MSTORE PUSH1 0x24 PUSH0 REVERT JUMPDEST PUSH0 PUSH2 0x62D DUP3 PUSH2 0x58D JUMP JUMPDEST SWAP2 POP PUSH32 0xFFFFFFFFFFFFFFFFFFFFFFFFFFFFFFFFFFFFFFFFFFFFFFFFFFFFFFFFFFFFFFFF DUP3 SUB PUSH2 0x65F JUMPI PUSH2 0x65E PUSH2 0x596 JUMP JUMPDEST JUMPDEST PUSH1 0x1 DUP3 ADD SWAP1 POP SWAP2 SWAP1 POP JUMP JUMPDEST PUSH32 0x4E487B7100000000000000000000000000000000000000000000000000000000 PUSH0 MSTORE PUSH1 0x41 PUSH1 0x4 MSTORE PUSH1 0x24 PUSH0 REVERT JUMPDEST PUSH0 DUP2 SWAP1 POP SWAP3 SWAP2 POP POP JUMP JUMPDEST POP JUMP JUMPDEST PUSH0 PUSH2 0x6AF PUSH0 DUP4 PUSH2 0x697 JUMP JUMPDEST SWAP2 POP PUSH2 0x6BA DUP3 PUSH2 0x6A1 JUMP JUMPDEST PUSH0 DUP3 ADD SWAP1 POP SWAP2 SWAP1 POP JUMP JUMPDEST PUSH0 PUSH2 0x6CE DUP3 PUSH2 0x6A4 JUMP JUMPDEST SWAP2 POP DUP2 SWAP1 POP SWAP2 SWAP1 POP JUMP JUMPDEST PUSH32 0x43616C6C206661696C6564000000000000000000000000000000000000000000 PUSH0 DUP3 ADD MSTORE POP JUMP JUMPDEST PUSH0 PUSH2 0x70C PUSH1 0xB DUP4 PUSH2 0x515 JUMP JUMPDEST SWAP2 POP PUSH2 0x717 DUP3 PUSH2 0x6D8 JUMP JUMPDEST PUSH1 0x20 DUP3 ADD SWAP1 POP SWAP2 SWAP1 POP JUMP JUMPDEST PUSH0 PUSH1 0x20 DUP3 ADD SWAP1 POP DUP2 DUP2 SUB PUSH0 DUP4 ADD MSTORE PUSH2 0x739 DUP2 PUSH2 0x700 JUMP JUMPDEST SWAP1 POP SWAP2 SWAP1 POP JUMP JUMPDEST PUSH0 PUSH2 0x74A DUP3 PUSH2 0x58D JUMP JUMPDEST SWAP2 POP PUSH2 0x755 DUP4 PUSH2 0x58D JUMP JUMPDEST SWAP3 POP DUP3 DUP3 MUL PUSH2 0x763 DUP2 PUSH2 0x58D JUMP JUMPDEST SWAP2 POP DUP3 DUP3 DIV DUP5 EQ DUP4 ISZERO OR PUSH2 0x77A JUMPI PUSH2 0x779 PUSH2 0x596 JUMP JUMPDEST JUMPDEST POP SWAP3 SWAP2 POP POP JUMP JUMPDEST PUSH32 0x4E487B7100000000000000000000000000000000000000000000000000000000 PUSH0 MSTORE PUSH1 0x12 PUSH1 0x4 MSTORE PUSH1 0x24 PUSH0 REVERT JUMPDEST PUSH0 PUSH2 0x7B8 DUP3 PUSH2 0x58D JUMP JUMPDEST SWAP2 POP PUSH2 0x7C3 DUP4 PUSH2 0x58D JUMP JUMPDEST SWAP3 POP DUP3 PUSH2 0x7D3 JUMPI PUSH2 0x7D2 PUSH2 0x781 JUMP JUMPDEST JUMPDEST DUP3 DUP3 DIV SWAP1 POP SWAP3 SWAP2 POP POP JUMP JUMPDEST PUSH0 PUSH0 REVERT JUMPDEST PUSH0 PUSH10 0xFFFFFFFFFFFFFFFFFFFF DUP3 AND SWAP1 POP SWAP2 SWAP1 POP JUMP JUMPDEST PUSH2 0x800 DUP2 PUSH2 0x7E2 JUMP JUMPDEST DUP2 EQ PUSH2 0x80A JUMPI PUSH0 PUSH0 REVERT JUMPDEST POP JUMP JUMPDEST PUSH0 DUP2 MLOAD SWAP1 POP PUSH2 0x81B DUP2 PUSH2 0x7F7 JUMP JUMPDEST SWAP3 SWAP2 POP POP JUMP JUMPDEST PUSH0 DUP2 SWAP1 POP SWAP2 SWAP1 POP JUMP JUMPDEST PUSH2 0x833 DUP2 PUSH2 0x821 JUMP JUMPDEST DUP2 EQ PUSH2 0x83D JUMPI PUSH0 PUSH0 REVERT JUMPDEST POP JUMP JUMPDEST PUSH0 DUP2 MLOAD SWAP1 POP PUSH2 0x84E DUP2 PUSH2 0x82A JUMP JUMPDEST SWAP3 SWAP2 POP POP JUMP JUMPDEST PUSH2 0x85D DUP2 PUSH2 0x58D JUMP JUMPDEST DUP2 EQ PUSH2 0x867 JUMPI PUSH0 PUSH0 REVERT JUMPDEST POP JUMP JUMPDEST PUSH0 DUP2 MLOAD SWAP1 POP PUSH2 0x878 DUP2 PUSH2 0x854 JUMP JUMPDEST SWAP3 SWAP2 POP POP JUMP JUMPDEST PUSH0 PUSH0 PUSH0 PUSH0 PUSH0 PUSH1 0xA0 DUP7 DUP9 SUB SLT ISZERO PUSH2 0x897 JUMPI PUSH2 0x896 PUSH2 0x7DE JUMP JUMPDEST JUMPDEST PUSH0 PUSH2 0x8A4 DUP9 DUP3 DUP10 ADD PUSH2 0x80D JUMP JUMPDEST SWAP6 POP POP PUSH1 0x20 PUSH2 0x8B5 DUP9 DUP3 DUP10 ADD PUSH2 0x840 JUMP JUMPDEST SWAP5 POP POP PUSH1 0x40 PUSH2 0x8C6 DUP9 DUP3 DUP10 ADD PUSH2 0x86A JUMP JUMPDEST SWAP4 POP POP PUSH1 0x60 PUSH2 0x8D7 DUP9 DUP3 DUP10 ADD PUSH2 0x86A JUMP JUMPDEST SWAP3 POP POP PUSH1 0x80 PUSH2 0x8E8 DUP9 DUP3 DUP10 ADD PUSH2 0x80D JUMP JUMPDEST SWAP2 POP POP SWAP3 SWAP6 POP SWAP3 SWAP6 SWAP1 SWAP4 POP JUMP INVALID LOG2 PUSH5 0x6970667358 0x22 SLT KECCAK256 0xB1 0xB4 CREATE2 CALLDATACOPY EXP PUSH29 0x4214C33110924C47F7AF913028CDBFD6C2F113DE6318067DF59E64736F PUSH13 0x634300081B0033000000000000 "
				},
				"gasEstimates": {
					"creation": {
						"codeDepositCost": "469400",
						"executionCost": "infinite",
						"totalCost": "infinite"
					},
					"external": {
						"": "infinite",
						"fund()": "infinite",
						"withdraw()": "infinite"
					}
				},
				"methodIdentifiers": {
					"fund()": "b60d4288",
					"withdraw()": "3ccfd60b"
				}
			},
			"storageLayout": {
				"storage": [
					{
						"astId": 62,
						"contract": "FundMe.sol:FundMe",
						"label": "funders",
						"offset": 0,
						"slot": "0",
						"type": "t_array(t_address)dyn_storage"
					},
					{
						"astId": 66,
						"contract": "FundMe.sol:FundMe",
						"label": "addressToAmountFunded",
						"offset": 0,
						"slot": "1",
						"type": "t_mapping(t_address,t_uint256)"
					}
				],
				"types": {
					"t_address": {
						"encoding": "inplace",
						"label": "address",
						"numberOfBytes": "20"
					},
					"t_array(t_address)dyn_storage": {
						"base": "t_address",
						"encoding": "dynamic_array",
						"label": "address[]",
						"numberOfBytes": "32"
					},
					"t_mapping(t_address,t_uint256)": {
						"encoding": "mapping",
						"key": "t_address",
						"label": "mapping(address => uint256)",
						"numberOfBytes": "32",
						"value": "t_uint256"
					},
					"t_uint256": {
						"encoding": "inplace",
						"label": "uint256",
						"numberOfBytes": "32"
					}
				}
			},
			"userdoc": {
				"kind": "user",
				"methods": {},
				"version": 1
			}
		}
	}
}