{
	"Cyfrin Updraft Challenges/2.08.sol": {
		"FundMe": {
			"abi": [
				{
					"inputs": [],
					"name": "getDecimals",
					"outputs": [
						{
							"internalType": "uint256",
							"name": "",
							"type": "uint256"
						}
					],
					"stateMutability": "view",
					"type": "function"
				}
			],
			"devdoc": {
				"kind": "dev",
				"methods": {},
				"version": 1
			},
			"evm": {
				"assembly": "    /* \"Cyfrin Updraft Challenges/2.08.sol\":174:356  contract FundMe{... */\n  mstore(0x40, 0x80)\n  callvalue\n  dup1\n  iszero\n  tag_1\n  jumpi\n  revert(0x00, 0x00)\ntag_1:\n  pop\n  dataSize(sub_0)\n  dup1\n  dataOffset(sub_0)\n  0x00\n  codecopy\n  0x00\n  return\nstop\n\nsub_0: assembly {\n        /* \"Cyfrin Updraft Challenges/2.08.sol\":174:356  contract FundMe{... */\n      mstore(0x40, 0x80)\n      callvalue\n      dup1\n      iszero\n      tag_1\n      jumpi\n      revert(0x00, 0x00)\n    tag_1:\n      pop\n      jumpi(tag_2, lt(calldatasize, 0x04))\n      shr(0xe0, calldataload(0x00))\n      dup1\n      0xf0141d84\n      eq\n      tag_3\n      jumpi\n    tag_2:\n      revert(0x00, 0x00)\n        /* \"Cyfrin Updraft Challenges/2.08.sol\":196:351  function getDecimals() public view returns (uint256) {... */\n    tag_3:\n      tag_4\n      tag_5\n      jump\t// in\n    tag_4:\n      mload(0x40)\n      tag_6\n      swap2\n      swap1\n      tag_7\n      jump\t// in\n    tag_6:\n      mload(0x40)\n      dup1\n      swap2\n      sub\n      swap1\n      return\n    tag_5:\n        /* \"Cyfrin Updraft Challenges/2.08.sol\":240:247  uint256 */\n      0x00\n        /* \"Cyfrin Updraft Challenges/2.08.sol\":289:331  0x5f4eC3Df9cbd43714FE2740f5E3616155c5b8419 */\n      0x5f4ec3df9cbd43714fe2740f5e3616155c5b8419\n        /* \"Cyfrin Updraft Challenges/2.08.sol\":267:341  AggregatorV3Interface(0x5f4eC3Df9cbd43714FE2740f5E3616155c5b8419).decimals */\n      0xffffffffffffffffffffffffffffffffffffffff\n      and\n      0x313ce567\n        /* \"Cyfrin Updraft Challenges/2.08.sol\":267:343  AggregatorV3Interface(0x5f4eC3Df9cbd43714FE2740f5E3616155c5b8419).decimals() */\n      mload(0x40)\n      dup2\n      0xffffffff\n      and\n      0xe0\n      shl\n      dup2\n      mstore\n      0x04\n      add\n      0x20\n      mload(0x40)\n      dup1\n      dup4\n      sub\n      dup2\n      dup7\n      gas\n      staticcall\n      iszero\n      dup1\n      iszero\n      tag_10\n      jumpi\n      returndatacopy(0x00, 0x00, returndatasize)\n      revert(0x00, returndatasize)\n    tag_10:\n      pop\n      pop\n      pop\n      pop\n      mload(0x40)\n      returndatasize\n      not(0x1f)\n      0x1f\n      dup3\n      add\n      and\n      dup3\n      add\n      dup1\n      0x40\n      mstore\n      pop\n      dup2\n      add\n      swap1\n      tag_11\n      swap2\n      swap1\n      tag_12\n      jump\t// in\n    tag_11:\n        /* \"Cyfrin Updraft Challenges/2.08.sol\":260:343  return AggregatorV3Interface(0x5f4eC3Df9cbd43714FE2740f5E3616155c5b8419).decimals() */\n      0xff\n      and\n      swap1\n      pop\n        /* \"Cyfrin Updraft Challenges/2.08.sol\":196:351  function getDecimals() public view returns (uint256) {... */\n      swap1\n      jump\t// out\n        /* \"#utility.yul\":7:84   */\n    tag_13:\n        /* \"#utility.yul\":44:51   */\n      0x00\n        /* \"#utility.yul\":73:78   */\n      dup2\n        /* \"#utility.yul\":62:78   */\n      swap1\n      pop\n        /* \"#utility.yul\":7:84   */\n      swap2\n      swap1\n      pop\n      jump\t// out\n        /* \"#utility.yul\":90:208   */\n    tag_14:\n        /* \"#utility.yul\":177:201   */\n      tag_24\n        /* \"#utility.yul\":195:200   */\n      dup2\n        /* \"#utility.yul\":177:201   */\n      tag_13\n      jump\t// in\n    tag_24:\n        /* \"#utility.yul\":172:175   */\n      dup3\n        /* \"#utility.yul\":165:202   */\n      mstore\n        /* \"#utility.yul\":90:208   */\n      pop\n      pop\n      jump\t// out\n        /* \"#utility.yul\":214:436   */\n    tag_7:\n        /* \"#utility.yul\":307:311   */\n      0x00\n        /* \"#utility.yul\":345:347   */\n      0x20\n        /* \"#utility.yul\":334:343   */\n      dup3\n        /* \"#utility.yul\":330:348   */\n      add\n        /* \"#utility.yul\":322:348   */\n      swap1\n      pop\n        /* \"#utility.yul\":358:429   */\n      tag_26\n        /* \"#utility.yul\":426:427   */\n      0x00\n        /* \"#utility.yul\":415:424   */\n      dup4\n        /* \"#utility.yul\":411:428   */\n      add\n        /* \"#utility.yul\":402:408   */\n      dup5\n        /* \"#utility.yul\":358:429   */\n      tag_14\n      jump\t// in\n    tag_26:\n        /* \"#utility.yul\":214:436   */\n      swap3\n      swap2\n      pop\n      pop\n      jump\t// out\n        /* \"#utility.yul\":523:640   */\n    tag_16:\n        /* \"#utility.yul\":632:633   */\n      0x00\n        /* \"#utility.yul\":629:630   */\n      0x00\n        /* \"#utility.yul\":622:634   */\n      revert\n        /* \"#utility.yul\":769:855   */\n    tag_18:\n        /* \"#utility.yul\":804:811   */\n      0x00\n        /* \"#utility.yul\":844:848   */\n      0xff\n        /* \"#utility.yul\":837:842   */\n      dup3\n        /* \"#utility.yul\":833:849   */\n      and\n        /* \"#utility.yul\":822:849   */\n      swap1\n      pop\n        /* \"#utility.yul\":769:855   */\n      swap2\n      swap1\n      pop\n      jump\t// out\n        /* \"#utility.yul\":861:979   */\n    tag_19:\n        /* \"#utility.yul\":932:954   */\n      tag_32\n        /* \"#utility.yul\":948:953   */\n      dup2\n        /* \"#utility.yul\":932:954   */\n      tag_18\n      jump\t// in\n    tag_32:\n        /* \"#utility.yul\":925:930   */\n      dup2\n        /* \"#utility.yul\":922:955   */\n      eq\n        /* \"#utility.yul\":912:973   */\n      tag_33\n      jumpi\n        /* \"#utility.yul\":969:970   */\n      0x00\n        /* \"#utility.yul\":966:967   */\n      0x00\n        /* \"#utility.yul\":959:971   */\n      revert\n        /* \"#utility.yul\":912:973   */\n    tag_33:\n        /* \"#utility.yul\":861:979   */\n      pop\n      jump\t// out\n        /* \"#utility.yul\":985:1124   */\n    tag_20:\n        /* \"#utility.yul\":1040:1045   */\n      0x00\n        /* \"#utility.yul\":1071:1077   */\n      dup2\n        /* \"#utility.yul\":1065:1078   */\n      mload\n        /* \"#utility.yul\":1056:1078   */\n      swap1\n      pop\n        /* \"#utility.yul\":1087:1118   */\n      tag_35\n        /* \"#utility.yul\":1112:1117   */\n      dup2\n        /* \"#utility.yul\":1087:1118   */\n      tag_19\n      jump\t// in\n    tag_35:\n        /* \"#utility.yul\":985:1124   */\n      swap3\n      swap2\n      pop\n      pop\n      jump\t// out\n        /* \"#utility.yul\":1130:1477   */\n    tag_12:\n        /* \"#utility.yul\":1198:1204   */\n      0x00\n        /* \"#utility.yul\":1247:1249   */\n      0x20\n        /* \"#utility.yul\":1235:1244   */\n      dup3\n        /* \"#utility.yul\":1226:1233   */\n      dup5\n        /* \"#utility.yul\":1222:1245   */\n      sub\n        /* \"#utility.yul\":1218:1250   */\n      slt\n        /* \"#utility.yul\":1215:1334   */\n      iszero\n      tag_37\n      jumpi\n        /* \"#utility.yul\":1253:1332   */\n      tag_38\n      tag_16\n      jump\t// in\n    tag_38:\n        /* \"#utility.yul\":1215:1334   */\n    tag_37:\n        /* \"#utility.yul\":1373:1374   */\n      0x00\n        /* \"#utility.yul\":1398:1460   */\n      tag_39\n        /* \"#utility.yul\":1452:1459   */\n      dup5\n        /* \"#utility.yul\":1443:1449   */\n      dup3\n        /* \"#utility.yul\":1432:1441   */\n      dup6\n        /* \"#utility.yul\":1428:1450   */\n      add\n        /* \"#utility.yul\":1398:1460   */\n      tag_20\n      jump\t// in\n    tag_39:\n        /* \"#utility.yul\":1388:1460   */\n      swap2\n      pop\n        /* \"#utility.yul\":1344:1470   */\n      pop\n        /* \"#utility.yul\":1130:1477   */\n      swap3\n      swap2\n      pop\n      pop\n      jump\t// out\n\n    auxdata: 0xa26469706673582212209605c43273208cf52d92b0548c036bb7aaeb4b9d7a4d901cc57a1477d074dd6f64736f6c634300081b0033\n}\n",
				"bytecode": {
					"linkReferences": {},
					"object": "6080604052348015600e575f5ffd5b506101a18061001c5f395ff3fe608060405234801561000f575f5ffd5b5060043610610029575f3560e01c8063f0141d841461002d575b5f5ffd5b61003561004b565b60405161004291906100ed565b60405180910390f35b5f735f4ec3df9cbd43714fe2740f5e3616155c5b841973ffffffffffffffffffffffffffffffffffffffff1663313ce5676040518163ffffffff1660e01b8152600401602060405180830381865afa1580156100a9573d5f5f3e3d5ffd5b505050506040513d601f19601f820116820180604052508101906100cd9190610140565b60ff16905090565b5f819050919050565b6100e7816100d5565b82525050565b5f6020820190506101005f8301846100de565b92915050565b5f5ffd5b5f60ff82169050919050565b61011f8161010a565b8114610129575f5ffd5b50565b5f8151905061013a81610116565b92915050565b5f6020828403121561015557610154610106565b5b5f6101628482850161012c565b9150509291505056fea26469706673582212209605c43273208cf52d92b0548c036bb7aaeb4b9d7a4d901cc57a1477d074dd6f64736f6c634300081b0033",
					"opcodes": "PUSH1 0x80 PUSH1 0x40 MSTORE CALLVALUE DUP1 ISZERO PUSH1 0xE JUMPI PUSH0 PUSH0 REVERT JUMPDEST POP PUSH2 0x1A1 DUP1 PUSH2 0x1C PUSH0 CODECOPY PUSH0 RETURN INVALID PUSH1 0x80 PUSH1 0x40 MSTORE CALLVALUE DUP1 ISZERO PUSH2 0xF JUMPI PUSH0 PUSH0 REVERT JUMPDEST POP PUSH1 0x4 CALLDATASIZE LT PUSH2 0x29 JUMPI PUSH0 CALLDATALOAD PUSH1 0xE0 SHR DUP1 PUSH4 0xF0141D84 EQ PUSH2 0x2D JUMPI JUMPDEST PUSH0 PUSH0 REVERT JUMPDEST PUSH2 0x35 PUSH2 0x4B JUMP JUMPDEST PUSH1 0x40 MLOAD PUSH2 0x42 SWAP2 SWAP1 PUSH2 0xED JUMP JUMPDEST PUSH1 0x40 MLOAD DUP1 SWAP2 SUB SWAP1 RETURN JUMPDEST PUSH0 PUSH20 0x5F4EC3DF9CBD43714FE2740F5E3616155C5B8419 PUSH20 0xFFFFFFFFFFFFFFFFFFFFFFFFFFFFFFFFFFFFFFFF AND PUSH4 0x313CE567 PUSH1 0x40 MLOAD DUP2 PUSH4 0xFFFFFFFF AND PUSH1 0xE0 SHL DUP2 MSTORE PUSH1 0x4 ADD PUSH1 0x20 PUSH1 0x40 MLOAD DUP1 DUP4 SUB DUP2 DUP7 GAS STATICCALL ISZERO DUP1 ISZERO PUSH2 0xA9 JUMPI RETURNDATASIZE PUSH0 PUSH0 RETURNDATACOPY RETURNDATASIZE PUSH0 REVERT JUMPDEST POP POP POP POP PUSH1 0x40 MLOAD RETURNDATASIZE PUSH1 0x1F NOT PUSH1 0x1F DUP3 ADD AND DUP3 ADD DUP1 PUSH1 0x40 MSTORE POP DUP2 ADD SWAP1 PUSH2 0xCD SWAP2 SWAP1 PUSH2 0x140 JUMP JUMPDEST PUSH1 0xFF AND SWAP1 POP SWAP1 JUMP JUMPDEST PUSH0 DUP2 SWAP1 POP SWAP2 SWAP1 POP JUMP JUMPDEST PUSH2 0xE7 DUP2 PUSH2 0xD5 JUMP JUMPDEST DUP3 MSTORE POP POP JUMP JUMPDEST PUSH0 PUSH1 0x20 DUP3 ADD SWAP1 POP PUSH2 0x100 PUSH0 DUP4 ADD DUP5 PUSH2 0xDE JUMP JUMPDEST SWAP3 SWAP2 POP POP JUMP JUMPDEST PUSH0 PUSH0 REVERT JUMPDEST PUSH0 PUSH1 0xFF DUP3 AND SWAP1 POP SWAP2 SWAP1 POP JUMP JUMPDEST PUSH2 0x11F DUP2 PUSH2 0x10A JUMP JUMPDEST DUP2 EQ PUSH2 0x129 JUMPI PUSH0 PUSH0 REVERT JUMPDEST POP JUMP JUMPDEST PUSH0 DUP2 MLOAD SWAP1 POP PUSH2 0x13A DUP2 PUSH2 0x116 JUMP JUMPDEST SWAP3 SWAP2 POP POP JUMP JUMPDEST PUSH0 PUSH1 0x20 DUP3 DUP5 SUB SLT ISZERO PUSH2 0x155 JUMPI PUSH2 0x154 PUSH2 0x106 JUMP JUMPDEST JUMPDEST PUSH0 PUSH2 0x162 DUP5 DUP3 DUP6 ADD PUSH2 0x12C JUMP JUMPDEST SWAP2 POP POP SWAP3 SWAP2 POP POP JUMP INVALID LOG2 PUSH5 0x6970667358 0x22 SLT KECCAK256 SWAP7 SDIV 0xC4 ORIGIN PUSH20 0x208CF52D92B0548C036BB7AAEB4B9D7A4D901CC5 PUSH27 0x1477D074DD6F64736F6C634300081B003300000000000000000000 "
				},
				"gasEstimates": {
					"creation": {
						"codeDepositCost": "83400",
						"executionCost": "133",
						"totalCost": "83533"
					},
					"external": {
						"getDecimals()": "infinite"
					}
				},
				"methodIdentifiers": {
					"getDecimals()": "f0141d84"
				}
			},
			"storageLayout": {
				"storage": [],
				"types": null
			},
			"userdoc": {
				"kind": "user",
				"methods": {},
				"version": 1
			}
		}
	}
}