{
	"Cyfrin Updraft Challenges/3.21.sol": {
		"FundMe": {
			"abi": [
				{
					"inputs": [],
					"name": "withdrawOnlyFirstAccountRemix",
					"outputs": [],
					"stateMutability": "nonpayable",
					"type": "function"
				}
			],
			"devdoc": {
				"kind": "dev",
				"methods": {},
				"version": 1
			},
			"evm": {
				"assembly": "    /* \"Cyfrin Updraft Challenges/3.21.sol\":60:419  contract FundMe{... */\n  mstore(0x40, 0x80)\n    /* \"Cyfrin Updraft Challenges/3.21.sol\":110:152  0x5B38Da6a701c568545dCfcB03FcB875f56beddC4 */\n  0x5b38da6a701c568545dcfcb03fcb875f56beddc4\n    /* \"Cyfrin Updraft Challenges/3.21.sol\":82:152  address firstAccountRemix = 0x5B38Da6a701c568545dCfcB03FcB875f56beddC4 */\n  0x00\n  exp(0x0100, 0x00)\n  dup2\n  sload\n  dup2\n  0xffffffffffffffffffffffffffffffffffffffff\n  mul\n  not\n  and\n  swap1\n  dup4\n  0xffffffffffffffffffffffffffffffffffffffff\n  and\n  mul\n  or\n  swap1\n  sstore\n  pop\n    /* \"Cyfrin Updraft Challenges/3.21.sol\":60:419  contract FundMe{... */\n  callvalue\n  dup1\n  iszero\n  tag_1\n  jumpi\n  revert(0x00, 0x00)\ntag_1:\n  pop\n  dataSize(sub_0)\n  dup1\n  dataOffset(sub_0)\n  0x00\n  codecopy\n  0x00\n  return\nstop\n\nsub_0: assembly {\n        /* \"Cyfrin Updraft Challenges/3.21.sol\":60:419  contract FundMe{... */\n      mstore(0x40, 0x80)\n      callvalue\n      dup1\n      iszero\n      tag_1\n      jumpi\n      revert(0x00, 0x00)\n    tag_1:\n      pop\n      jumpi(tag_2, lt(calldatasize, 0x04))\n      shr(0xe0, calldataload(0x00))\n      dup1\n      0x17482baa\n      eq\n      tag_3\n      jumpi\n    tag_2:\n      revert(0x00, 0x00)\n        /* \"Cyfrin Updraft Challenges/3.21.sol\":165:416  function withdrawOnlyFirstAccountRemix() public {... */\n    tag_3:\n      tag_4\n      tag_5\n      jump\t// in\n    tag_4:\n      stop\n    tag_5:\n        /* \"Cyfrin Updraft Challenges/3.21.sol\":246:263  firstAccountRemix */\n      0x00\n      0x00\n      swap1\n      sload\n      swap1\n      0x0100\n      exp\n      swap1\n      div\n      0xffffffffffffffffffffffffffffffffffffffff\n      and\n        /* \"Cyfrin Updraft Challenges/3.21.sol\":232:263  msg.sender == firstAccountRemix */\n      0xffffffffffffffffffffffffffffffffffffffff\n      and\n        /* \"Cyfrin Updraft Challenges/3.21.sol\":232:242  msg.sender */\n      caller\n        /* \"Cyfrin Updraft Challenges/3.21.sol\":232:263  msg.sender == firstAccountRemix */\n      0xffffffffffffffffffffffffffffffffffffffff\n      and\n      eq\n        /* \"Cyfrin Updraft Challenges/3.21.sol\":224:277  require(msg.sender == firstAccountRemix, \"Not Owner\") */\n      tag_7\n      jumpi\n      mload(0x40)\n      0x08c379a000000000000000000000000000000000000000000000000000000000\n      dup2\n      mstore\n      0x04\n      add\n      tag_8\n      swap1\n      tag_9\n      jump\t// in\n    tag_8:\n      mload(0x40)\n      dup1\n      swap2\n      sub\n      swap1\n      revert\n    tag_7:\n        /* \"Cyfrin Updraft Challenges/3.21.sol\":290:302  bool success */\n      0x00\n        /* \"Cyfrin Updraft Challenges/3.21.sol\":316:326  msg.sender */\n      caller\n        /* \"Cyfrin Updraft Challenges/3.21.sol\":308:332  payable(msg.sender).call */\n      0xffffffffffffffffffffffffffffffffffffffff\n      and\n        /* \"Cyfrin Updraft Challenges/3.21.sol\":340:361  address(this).balance */\n      selfbalance\n        /* \"Cyfrin Updraft Challenges/3.21.sol\":308:366  payable(msg.sender).call{value: address(this).balance}(\"\") */\n      mload(0x40)\n      tag_10\n      swap1\n      tag_11\n      jump\t// in\n    tag_10:\n      0x00\n      mload(0x40)\n      dup1\n      dup4\n      sub\n      dup2\n      dup6\n      dup8\n      gas\n      call\n      swap3\n      pop\n      pop\n      pop\n      returndatasize\n      dup1\n      0x00\n      dup2\n      eq\n      tag_14\n      jumpi\n      mload(0x40)\n      swap2\n      pop\n      and(add(returndatasize, 0x3f), not(0x1f))\n      dup3\n      add\n      0x40\n      mstore\n      returndatasize\n      dup3\n      mstore\n      returndatasize\n      0x00\n      0x20\n      dup5\n      add\n      returndatacopy\n      jump(tag_13)\n    tag_14:\n      0x60\n      swap2\n      pop\n    tag_13:\n      pop\n        /* \"Cyfrin Updraft Challenges/3.21.sol\":289:366  (bool success, ) = payable(msg.sender).call{value: address(this).balance}(\"\") */\n      pop\n      swap1\n      pop\n        /* \"Cyfrin Updraft Challenges/3.21.sol\":385:392  success */\n      dup1\n        /* \"Cyfrin Updraft Challenges/3.21.sol\":377:408  require(success, \"Call failed\") */\n      tag_15\n      jumpi\n      mload(0x40)\n      0x08c379a000000000000000000000000000000000000000000000000000000000\n      dup2\n      mstore\n      0x04\n      add\n      tag_16\n      swap1\n      tag_17\n      jump\t// in\n    tag_16:\n      mload(0x40)\n      dup1\n      swap2\n      sub\n      swap1\n      revert\n    tag_15:\n        /* \"Cyfrin Updraft Challenges/3.21.sol\":213:416  {... */\n      pop\n        /* \"Cyfrin Updraft Challenges/3.21.sol\":165:416  function withdrawOnlyFirstAccountRemix() public {... */\n      jump\t// out\n        /* \"#utility.yul\":7:176   */\n    tag_18:\n        /* \"#utility.yul\":91:102   */\n      0x00\n        /* \"#utility.yul\":125:131   */\n      dup3\n        /* \"#utility.yul\":120:123   */\n      dup3\n        /* \"#utility.yul\":113:132   */\n      mstore\n        /* \"#utility.yul\":165:169   */\n      0x20\n        /* \"#utility.yul\":160:163   */\n      dup3\n        /* \"#utility.yul\":156:170   */\n      add\n        /* \"#utility.yul\":141:170   */\n      swap1\n      pop\n        /* \"#utility.yul\":7:176   */\n      swap3\n      swap2\n      pop\n      pop\n      jump\t// out\n        /* \"#utility.yul\":182:341   */\n    tag_19:\n        /* \"#utility.yul\":322:333   */\n      0x4e6f74204f776e65720000000000000000000000000000000000000000000000\n        /* \"#utility.yul\":318:319   */\n      0x00\n        /* \"#utility.yul\":310:316   */\n      dup3\n        /* \"#utility.yul\":306:320   */\n      add\n        /* \"#utility.yul\":299:334   */\n      mstore\n        /* \"#utility.yul\":182:341   */\n      pop\n      jump\t// out\n        /* \"#utility.yul\":347:712   */\n    tag_20:\n        /* \"#utility.yul\":489:492   */\n      0x00\n        /* \"#utility.yul\":510:576   */\n      tag_30\n        /* \"#utility.yul\":574:575   */\n      0x09\n        /* \"#utility.yul\":569:572   */\n      dup4\n        /* \"#utility.yul\":510:576   */\n      tag_18\n      jump\t// in\n    tag_30:\n        /* \"#utility.yul\":503:576   */\n      swap2\n      pop\n        /* \"#utility.yul\":585:678   */\n      tag_31\n        /* \"#utility.yul\":674:677   */\n      dup3\n        /* \"#utility.yul\":585:678   */\n      tag_19\n      jump\t// in\n    tag_31:\n        /* \"#utility.yul\":703:705   */\n      0x20\n        /* \"#utility.yul\":698:701   */\n      dup3\n        /* \"#utility.yul\":694:706   */\n      add\n        /* \"#utility.yul\":687:706   */\n      swap1\n      pop\n        /* \"#utility.yul\":347:712   */\n      swap2\n      swap1\n      pop\n      jump\t// out\n        /* \"#utility.yul\":718:1137   */\n    tag_9:\n        /* \"#utility.yul\":884:888   */\n      0x00\n        /* \"#utility.yul\":922:924   */\n      0x20\n        /* \"#utility.yul\":911:920   */\n      dup3\n        /* \"#utility.yul\":907:925   */\n      add\n        /* \"#utility.yul\":899:925   */\n      swap1\n      pop\n        /* \"#utility.yul\":971:980   */\n      dup2\n        /* \"#utility.yul\":965:969   */\n      dup2\n        /* \"#utility.yul\":961:981   */\n      sub\n        /* \"#utility.yul\":957:958   */\n      0x00\n        /* \"#utility.yul\":946:955   */\n      dup4\n        /* \"#utility.yul\":942:959   */\n      add\n        /* \"#utility.yul\":935:982   */\n      mstore\n        /* \"#utility.yul\":999:1130   */\n      tag_33\n        /* \"#utility.yul\":1125:1129   */\n      dup2\n        /* \"#utility.yul\":999:1130   */\n      tag_20\n      jump\t// in\n    tag_33:\n        /* \"#utility.yul\":991:1130   */\n      swap1\n      pop\n        /* \"#utility.yul\":718:1137   */\n      swap2\n      swap1\n      pop\n      jump\t// out\n        /* \"#utility.yul\":1143:1290   */\n    tag_21:\n        /* \"#utility.yul\":1244:1255   */\n      0x00\n        /* \"#utility.yul\":1281:1284   */\n      dup2\n        /* \"#utility.yul\":1266:1284   */\n      swap1\n      pop\n        /* \"#utility.yul\":1143:1290   */\n      swap3\n      swap2\n      pop\n      pop\n      jump\t// out\n        /* \"#utility.yul\":1296:1410   */\n    tag_22:\n      pop\n      jump\t// out\n        /* \"#utility.yul\":1416:1814   */\n    tag_23:\n        /* \"#utility.yul\":1575:1578   */\n      0x00\n        /* \"#utility.yul\":1596:1679   */\n      tag_37\n        /* \"#utility.yul\":1677:1678   */\n      0x00\n        /* \"#utility.yul\":1672:1675   */\n      dup4\n        /* \"#utility.yul\":1596:1679   */\n      tag_21\n      jump\t// in\n    tag_37:\n        /* \"#utility.yul\":1589:1679   */\n      swap2\n      pop\n        /* \"#utility.yul\":1688:1781   */\n      tag_38\n        /* \"#utility.yul\":1777:1780   */\n      dup3\n        /* \"#utility.yul\":1688:1781   */\n      tag_22\n      jump\t// in\n    tag_38:\n        /* \"#utility.yul\":1806:1807   */\n      0x00\n        /* \"#utility.yul\":1801:1804   */\n      dup3\n        /* \"#utility.yul\":1797:1808   */\n      add\n        /* \"#utility.yul\":1790:1808   */\n      swap1\n      pop\n        /* \"#utility.yul\":1416:1814   */\n      swap2\n      swap1\n      pop\n      jump\t// out\n        /* \"#utility.yul\":1820:2199   */\n    tag_11:\n        /* \"#utility.yul\":2004:2007   */\n      0x00\n        /* \"#utility.yul\":2026:2173   */\n      tag_40\n        /* \"#utility.yul\":2169:2172   */\n      dup3\n        /* \"#utility.yul\":2026:2173   */\n      tag_23\n      jump\t// in\n    tag_40:\n        /* \"#utility.yul\":2019:2173   */\n      swap2\n      pop\n        /* \"#utility.yul\":2190:2193   */\n      dup2\n        /* \"#utility.yul\":2183:2193   */\n      swap1\n      pop\n        /* \"#utility.yul\":1820:2199   */\n      swap2\n      swap1\n      pop\n      jump\t// out\n        /* \"#utility.yul\":2205:2366   */\n    tag_24:\n        /* \"#utility.yul\":2345:2358   */\n      0x43616c6c206661696c6564000000000000000000000000000000000000000000\n        /* \"#utility.yul\":2341:2342   */\n      0x00\n        /* \"#utility.yul\":2333:2339   */\n      dup3\n        /* \"#utility.yul\":2329:2343   */\n      add\n        /* \"#utility.yul\":2322:2359   */\n      mstore\n        /* \"#utility.yul\":2205:2366   */\n      pop\n      jump\t// out\n        /* \"#utility.yul\":2372:2738   */\n    tag_25:\n        /* \"#utility.yul\":2514:2517   */\n      0x00\n        /* \"#utility.yul\":2535:2602   */\n      tag_43\n        /* \"#utility.yul\":2599:2601   */\n      0x0b\n        /* \"#utility.yul\":2594:2597   */\n      dup4\n        /* \"#utility.yul\":2535:2602   */\n      tag_18\n      jump\t// in\n    tag_43:\n        /* \"#utility.yul\":2528:2602   */\n      swap2\n      pop\n        /* \"#utility.yul\":2611:2704   */\n      tag_44\n        /* \"#utility.yul\":2700:2703   */\n      dup3\n        /* \"#utility.yul\":2611:2704   */\n      tag_24\n      jump\t// in\n    tag_44:\n        /* \"#utility.yul\":2729:2731   */\n      0x20\n        /* \"#utility.yul\":2724:2727   */\n      dup3\n        /* \"#utility.yul\":2720:2732   */\n      add\n        /* \"#utility.yul\":2713:2732   */\n      swap1\n      pop\n        /* \"#utility.yul\":2372:2738   */\n      swap2\n      swap1\n      pop\n      jump\t// out\n        /* \"#utility.yul\":2744:3163   */\n    tag_17:\n        /* \"#utility.yul\":2910:2914   */\n      0x00\n        /* \"#utility.yul\":2948:2950   */\n      0x20\n        /* \"#utility.yul\":2937:2946   */\n      dup3\n        /* \"#utility.yul\":2933:2951   */\n      add\n        /* \"#utility.yul\":2925:2951   */\n      swap1\n      pop\n        /* \"#utility.yul\":2997:3006   */\n      dup2\n        /* \"#utility.yul\":2991:2995   */\n      dup2\n        /* \"#utility.yul\":2987:3007   */\n      sub\n        /* \"#utility.yul\":2983:2984   */\n      0x00\n        /* \"#utility.yul\":2972:2981   */\n      dup4\n        /* \"#utility.yul\":2968:2985   */\n      add\n        /* \"#utility.yul\":2961:3008   */\n      mstore\n        /* \"#utility.yul\":3025:3156   */\n      tag_46\n        /* \"#utility.yul\":3151:3155   */\n      dup2\n        /* \"#utility.yul\":3025:3156   */\n      tag_25\n      jump\t// in\n    tag_46:\n        /* \"#utility.yul\":3017:3156   */\n      swap1\n      pop\n        /* \"#utility.yul\":2744:3163   */\n      swap2\n      swap1\n      pop\n      jump\t// out\n\n    auxdata: 0xa2646970667358221220b0eecb9ee87e248a927172d4725c8444f0a9796d3c07cd73e81d7372727eb71764736f6c634300081b0033\n}\n",
				"bytecode": {
					"linkReferences": {},
					"object": "6080604052735b38da6a701c568545dcfcb03fcb875f56beddc45f5f6101000a81548173ffffffffffffffffffffffffffffffffffffffff021916908373ffffffffffffffffffffffffffffffffffffffff1602179055503480156061575f5ffd5b506102c78061006f5f395ff3fe608060405234801561000f575f5ffd5b5060043610610029575f3560e01c806317482baa1461002d575b5f5ffd5b610035610037565b005b5f5f9054906101000a900473ffffffffffffffffffffffffffffffffffffffff1673ffffffffffffffffffffffffffffffffffffffff163373ffffffffffffffffffffffffffffffffffffffff16146100c5576040517f08c379a00000000000000000000000000000000000000000000000000000000081526004016100bc906101ca565b60405180910390fd5b5f3373ffffffffffffffffffffffffffffffffffffffff16476040516100ea90610215565b5f6040518083038185875af1925050503d805f8114610124576040519150601f19603f3d011682016040523d82523d5f602084013e610129565b606091505b505090508061016d576040517f08c379a000000000000000000000000000000000000000000000000000000000815260040161016490610273565b60405180910390fd5b50565b5f82825260208201905092915050565b7f4e6f74204f776e657200000000000000000000000000000000000000000000005f82015250565b5f6101b4600983610170565b91506101bf82610180565b602082019050919050565b5f6020820190508181035f8301526101e1816101a8565b9050919050565b5f81905092915050565b50565b5f6102005f836101e8565b915061020b826101f2565b5f82019050919050565b5f61021f826101f5565b9150819050919050565b7f43616c6c206661696c65640000000000000000000000000000000000000000005f82015250565b5f61025d600b83610170565b915061026882610229565b602082019050919050565b5f6020820190508181035f83015261028a81610251565b905091905056fea2646970667358221220b0eecb9ee87e248a927172d4725c8444f0a9796d3c07cd73e81d7372727eb71764736f6c634300081b0033",
					"opcodes": "PUSH1 0x80 PUSH1 0x40 MSTORE PUSH20 0x5B38DA6A701C568545DCFCB03FCB875F56BEDDC4 PUSH0 PUSH0 PUSH2 0x100 EXP DUP2 SLOAD DUP2 PUSH20 0xFFFFFFFFFFFFFFFFFFFFFFFFFFFFFFFFFFFFFFFF MUL NOT AND SWAP1 DUP4 PUSH20 0xFFFFFFFFFFFFFFFFFFFFFFFFFFFFFFFFFFFFFFFF AND MUL OR SWAP1 SSTORE POP CALLVALUE DUP1 ISZERO PUSH1 0x61 JUMPI PUSH0 PUSH0 REVERT JUMPDEST POP PUSH2 0x2C7 DUP1 PUSH2 0x6F PUSH0 CODECOPY PUSH0 RETURN INVALID PUSH1 0x80 PUSH1 0x40 MSTORE CALLVALUE DUP1 ISZERO PUSH2 0xF JUMPI PUSH0 PUSH0 REVERT JUMPDEST POP PUSH1 0x4 CALLDATASIZE LT PUSH2 0x29 JUMPI PUSH0 CALLDATALOAD PUSH1 0xE0 SHR DUP1 PUSH4 0x17482BAA EQ PUSH2 0x2D JUMPI JUMPDEST PUSH0 PUSH0 REVERT JUMPDEST PUSH2 0x35 PUSH2 0x37 JUMP JUMPDEST STOP JUMPDEST PUSH0 PUSH0 SWAP1 SLOAD SWAP1 PUSH2 0x100 EXP SWAP1 DIV PUSH20 0xFFFFFFFFFFFFFFFFFFFFFFFFFFFFFFFFFFFFFFFF AND PUSH20 0xFFFFFFFFFFFFFFFFFFFFFFFFFFFFFFFFFFFFFFFF AND CALLER PUSH20 0xFFFFFFFFFFFFFFFFFFFFFFFFFFFFFFFFFFFFFFFF AND EQ PUSH2 0xC5 JUMPI PUSH1 0x40 MLOAD PUSH32 0x8C379A000000000000000000000000000000000000000000000000000000000 DUP2 MSTORE PUSH1 0x4 ADD PUSH2 0xBC SWAP1 PUSH2 0x1CA JUMP JUMPDEST PUSH1 0x40 MLOAD DUP1 SWAP2 SUB SWAP1 REVERT JUMPDEST PUSH0 CALLER PUSH20 0xFFFFFFFFFFFFFFFFFFFFFFFFFFFFFFFFFFFFFFFF AND SELFBALANCE PUSH1 0x40 MLOAD PUSH2 0xEA SWAP1 PUSH2 0x215 JUMP JUMPDEST PUSH0 PUSH1 0x40 MLOAD DUP1 DUP4 SUB DUP2 DUP6 DUP8 GAS CALL SWAP3 POP POP POP RETURNDATASIZE DUP1 PUSH0 DUP2 EQ PUSH2 0x124 JUMPI PUSH1 0x40 MLOAD SWAP2 POP PUSH1 0x1F NOT PUSH1 0x3F RETURNDATASIZE ADD AND DUP3 ADD PUSH1 0x40 MSTORE RETURNDATASIZE DUP3 MSTORE RETURNDATASIZE PUSH0 PUSH1 0x20 DUP5 ADD RETURNDATACOPY PUSH2 0x129 JUMP JUMPDEST PUSH1 0x60 SWAP2 POP JUMPDEST POP POP SWAP1 POP DUP1 PUSH2 0x16D JUMPI PUSH1 0x40 MLOAD PUSH32 0x8C379A000000000000000000000000000000000000000000000000000000000 DUP2 MSTORE PUSH1 0x4 ADD PUSH2 0x164 SWAP1 PUSH2 0x273 JUMP JUMPDEST PUSH1 0x40 MLOAD DUP1 SWAP2 SUB SWAP1 REVERT JUMPDEST POP JUMP JUMPDEST PUSH0 DUP3 DUP3 MSTORE PUSH1 0x20 DUP3 ADD SWAP1 POP SWAP3 SWAP2 POP POP JUMP JUMPDEST PUSH32 0x4E6F74204F776E65720000000000000000000000000000000000000000000000 PUSH0 DUP3 ADD MSTORE POP JUMP JUMPDEST PUSH0 PUSH2 0x1B4 PUSH1 0x9 DUP4 PUSH2 0x170 JUMP JUMPDEST SWAP2 POP PUSH2 0x1BF DUP3 PUSH2 0x180 JUMP JUMPDEST PUSH1 0x20 DUP3 ADD SWAP1 POP SWAP2 SWAP1 POP JUMP JUMPDEST PUSH0 PUSH1 0x20 DUP3 ADD SWAP1 POP DUP2 DUP2 SUB PUSH0 DUP4 ADD MSTORE PUSH2 0x1E1 DUP2 PUSH2 0x1A8 JUMP JUMPDEST SWAP1 POP SWAP2 SWAP1 POP JUMP JUMPDEST PUSH0 DUP2 SWAP1 POP SWAP3 SWAP2 POP POP JUMP JUMPDEST POP JUMP JUMPDEST PUSH0 PUSH2 0x200 PUSH0 DUP4 PUSH2 0x1E8 JUMP JUMPDEST SWAP2 POP PUSH2 0x20B DUP3 PUSH2 0x1F2 JUMP JUMPDEST PUSH0 DUP3 ADD SWAP1 POP SWAP2 SWAP1 POP JUMP JUMPDEST PUSH0 PUSH2 0x21F DUP3 PUSH2 0x1F5 JUMP JUMPDEST SWAP2 POP DUP2 SWAP1 POP SWAP2 SWAP1 POP JUMP JUMPDEST PUSH32 0x43616C6C206661696C6564000000000000000000000000000000000000000000 PUSH0 DUP3 ADD MSTORE POP JUMP JUMPDEST PUSH0 PUSH2 0x25D PUSH1 0xB DUP4 PUSH2 0x170 JUMP JUMPDEST SWAP2 POP PUSH2 0x268 DUP3 PUSH2 0x229 JUMP JUMPDEST PUSH1 0x20 DUP3 ADD SWAP1 POP SWAP2 SWAP1 POP JUMP JUMPDEST PUSH0 PUSH1 0x20 DUP3 ADD SWAP1 POP DUP2 DUP2 SUB PUSH0 DUP4 ADD MSTORE PUSH2 0x28A DUP2 PUSH2 0x251 JUMP JUMPDEST SWAP1 POP SWAP2 SWAP1 POP JUMP INVALID LOG2 PUSH5 0x6970667358 0x22 SLT KECCAK256 0xB0 0xEE 0xCB SWAP15 0xE8 PUSH31 0x248A927172D4725C8444F0A9796D3C07CD73E81D7372727EB71764736F6C63 NUMBER STOP ADDMOD SHL STOP CALLER "
				},
				"gasEstimates": {
					"creation": {
						"codeDepositCost": "142200",
						"executionCost": "24453",
						"totalCost": "166653"
					},
					"external": {
						"withdrawOnlyFirstAccountRemix()": "infinite"
					}
				},
				"methodIdentifiers": {
					"withdrawOnlyFirstAccountRemix()": "17482baa"
				}
			},
			"storageLayout": {
				"storage": [
					{
						"astId": 4,
						"contract": "Cyfrin Updraft Challenges/3.21.sol:FundMe",
						"label": "firstAccountRemix",
						"offset": 0,
						"slot": "0",
						"type": "t_address"
					}
				],
				"types": {
					"t_address": {
						"encoding": "inplace",
						"label": "address",
						"numberOfBytes": "20"
					}
				}
			},
			"userdoc": {
				"kind": "user",
				"methods": {},
				"version": 1
			}
		}
	}
}