{
	"Cyfrin Updraft Challenges/2.3.sol": {
		"TinyTip": {
			"abi": [
				{
					"inputs": [],
					"name": "tinyTip",
					"outputs": [],
					"stateMutability": "payable",
					"type": "function"
				}
			],
			"devdoc": {
				"kind": "dev",
				"methods": {},
				"version": 1
			},
			"evm": {
				"assembly": "    /* \"Cyfrin Updraft Challenges/2.3.sol\":60:163  contract TinyTip{... */\n  mstore(0x40, 0x80)\n  callvalue\n  dup1\n  iszero\n  tag_1\n  jumpi\n  revert(0x00, 0x00)\ntag_1:\n  pop\n  dataSize(sub_0)\n  dup1\n  dataOffset(sub_0)\n  0x00\n  codecopy\n  0x00\n  return\nstop\n\nsub_0: assembly {\n        /* \"Cyfrin Updraft Challenges/2.3.sol\":60:163  contract TinyTip{... */\n      mstore(0x40, 0x80)\n      jumpi(tag_1, lt(calldatasize, 0x04))\n      shr(0xe0, calldataload(0x00))\n      dup1\n      0xbdfcb936\n      eq\n      tag_2\n      jumpi\n    tag_1:\n      revert(0x00, 0x00)\n        /* \"Cyfrin Updraft Challenges/2.3.sol\":83:160  function tinyTip() public payable{... */\n    tag_2:\n      tag_3\n      tag_4\n      jump\t// in\n    tag_3:\n      stop\n    tag_4:\n        /* \"Cyfrin Updraft Challenges/2.3.sol\":147:150  1e9 */\n      0x3b9aca00\n        /* \"Cyfrin Updraft Challenges/2.3.sol\":135:144  msg.value */\n      callvalue\n        /* \"Cyfrin Updraft Challenges/2.3.sol\":135:150  msg.value > 1e9 */\n      gt\n        /* \"Cyfrin Updraft Challenges/2.3.sol\":127:151  require(msg.value > 1e9) */\n      tag_6\n      jumpi\n      revert(0x00, 0x00)\n    tag_6:\n        /* \"Cyfrin Updraft Challenges/2.3.sol\":83:160  function tinyTip() public payable{... */\n      jump\t// out\n\n    auxdata: 0xa26469706673582212206321d66aa27bae2fd2dc85c53fd5feacd18cd121c2ab78516bc9939518929ce664736f6c634300081b0033\n}\n",
				"bytecode": {
					"linkReferences": {},
					"object": "6080604052348015600e575f5ffd5b50606d80601a5f395ff3fe608060405260043610601b575f3560e01c8063bdfcb93614601f575b5f5ffd5b60256027565b005b633b9aca0034116035575f5ffd5b56fea26469706673582212206321d66aa27bae2fd2dc85c53fd5feacd18cd121c2ab78516bc9939518929ce664736f6c634300081b0033",
					"opcodes": "PUSH1 0x80 PUSH1 0x40 MSTORE CALLVALUE DUP1 ISZERO PUSH1 0xE JUMPI PUSH0 PUSH0 REVERT JUMPDEST POP PUSH1 0x6D DUP1 PUSH1 0x1A PUSH0 CODECOPY PUSH0 RETURN INVALID PUSH1 0x80 PUSH1 0x40 MSTORE PUSH1 0x4 CALLDATASIZE LT PUSH1 0x1B JUMPI PUSH0 CALLDATALOAD PUSH1 0xE0 SHR DUP1 PUSH4 0xBDFCB936 EQ PUSH1 0x1F JUMPI JUMPDEST PUSH0 PUSH0 REVERT JUMPDEST PUSH1 0x25 PUSH1 0x27 JUMP JUMPDEST STOP JUMPDEST PUSH4 0x3B9ACA00 CALLVALUE GT PUSH1 0x35 JUMPI PUSH0 PUSH0 REVERT JUMPDEST JUMP INVALID LOG2 PUSH5 0x6970667358 0x22 SLT KECCAK256 PUSH4 0x21D66AA2 PUSH28 0xAE2FD2DC85C53FD5FEACD18CD121C2AB78516BC9939518929CE66473 PUSH16 0x6C634300081B00330000000000000000 "
				},
				"gasEstimates": {
					"creation": {
						"codeDepositCost": "21800",
						"executionCost": "73",
						"totalCost": "21873"
					},
					"external": {
						"tinyTip()": "119"
					}
				},
				"methodIdentifiers": {
					"tinyTip()": "bdfcb936"
				}
			},
			"storageLayout": {
				"storage": [],
				"types": null
			},
			"userdoc": {
				"kind": "user",
				"methods": {},
				"version": 1
			}
		}
	}
}