{
	"Cyfrin Updraft Challenges/3.19.sol": {
		"ExpensiveReset": {
			"abi": [
				{
					"inputs": [],
					"name": "expensiveReset",
					"outputs": [],
					"stateMutability": "nonpayable",
					"type": "function"
				},
				{
					"inputs": [
						{
							"internalType": "uint256",
							"name": "",
							"type": "uint256"
						}
					],
					"name": "numbers",
					"outputs": [
						{
							"internalType": "uint256",
							"name": "",
							"type": "uint256"
						}
					],
					"stateMutability": "view",
					"type": "function"
				},
				{
					"inputs": [],
					"name": "pushNumbers",
					"outputs": [],
					"stateMutability": "nonpayable",
					"type": "function"
				}
			],
			"devdoc": {
				"kind": "dev",
				"methods": {},
				"version": 1
			},
			"evm": {
				"assembly": "    /* \"Cyfrin Updraft Challenges/3.19.sol\":61:447  contract ExpensiveReset{... */\n  mstore(0x40, 0x80)\n  callvalue\n  dup1\n  iszero\n  tag_1\n  jumpi\n  revert(0x00, 0x00)\ntag_1:\n  pop\n  dataSize(sub_0)\n  dup1\n  dataOffset(sub_0)\n  0x00\n  codecopy\n  0x00\n  return\nstop\n\nsub_0: assembly {\n        /* \"Cyfrin Updraft Challenges/3.19.sol\":61:447  contract ExpensiveReset{... */\n      mstore(0x40, 0x80)\n      callvalue\n      dup1\n      iszero\n      tag_1\n      jumpi\n      revert(0x00, 0x00)\n    tag_1:\n      pop\n      jumpi(tag_2, lt(calldatasize, 0x04))\n      shr(0xe0, calldataload(0x00))\n      dup1\n      0x014b640b\n      eq\n      tag_3\n      jumpi\n      dup1\n      0xce7fd430\n      eq\n      tag_4\n      jumpi\n      dup1\n      0xd39fa233\n      eq\n      tag_5\n      jumpi\n    tag_2:\n      revert(0x00, 0x00)\n        /* \"Cyfrin Updraft Challenges/3.19.sol\":288:444  function expensiveReset() public{... */\n    tag_3:\n      tag_6\n      tag_7\n      jump\t// in\n    tag_6:\n      stop\n        /* \"Cyfrin Updraft Challenges/3.19.sol\":124:280  function pushNumbers() public{... */\n    tag_4:\n      tag_8\n      tag_9\n      jump\t// in\n    tag_8:\n      stop\n        /* \"Cyfrin Updraft Challenges/3.19.sol\":91:115  uint256[] public numbers */\n    tag_5:\n      tag_10\n      0x04\n      dup1\n      calldatasize\n      sub\n      dup2\n      add\n      swap1\n      tag_11\n      swap2\n      swap1\n      tag_12\n      jump\t// in\n    tag_11:\n      tag_13\n      jump\t// in\n    tag_10:\n      mload(0x40)\n      tag_14\n      swap2\n      swap1\n      tag_15\n      jump\t// in\n    tag_14:\n      mload(0x40)\n      dup1\n      swap2\n      sub\n      swap1\n      return\n        /* \"Cyfrin Updraft Challenges/3.19.sol\":288:444  function expensiveReset() public{... */\n    tag_7:\n        /* \"Cyfrin Updraft Challenges/3.19.sol\":331:344  uint256 index */\n      0x00\n        /* \"Cyfrin Updraft Challenges/3.19.sol\":368:369  0 */\n      0x00\n        /* \"Cyfrin Updraft Challenges/3.19.sol\":360:369  index = 0 */\n      swap1\n      pop\n        /* \"Cyfrin Updraft Challenges/3.19.sol\":356:437  for(index = 0; index < 10; index++) {... */\n    tag_17:\n        /* \"Cyfrin Updraft Challenges/3.19.sol\":379:381  10 */\n      0x0a\n        /* \"Cyfrin Updraft Challenges/3.19.sol\":371:376  index */\n      dup2\n        /* \"Cyfrin Updraft Challenges/3.19.sol\":371:381  index < 10 */\n      lt\n        /* \"Cyfrin Updraft Challenges/3.19.sol\":356:437  for(index = 0; index < 10; index++) {... */\n      iszero\n      tag_18\n      jumpi\n        /* \"Cyfrin Updraft Challenges/3.19.sol\":424:425  0 */\n      0x00\n        /* \"Cyfrin Updraft Challenges/3.19.sol\":407:414  numbers */\n      0x00\n        /* \"Cyfrin Updraft Challenges/3.19.sol\":415:420  index */\n      dup3\n        /* \"Cyfrin Updraft Challenges/3.19.sol\":407:421  numbers[index] */\n      dup2\n      sload\n      dup2\n      lt\n      tag_20\n      jumpi\n      tag_21\n      tag_22\n      jump\t// in\n    tag_21:\n    tag_20:\n      swap1\n      0x00\n      mstore\n      keccak256(0x00, 0x20)\n      add\n        /* \"Cyfrin Updraft Challenges/3.19.sol\":407:425  numbers[index] = 0 */\n      dup2\n      swap1\n      sstore\n      pop\n        /* \"Cyfrin Updraft Challenges/3.19.sol\":383:390  index++ */\n      dup1\n      dup1\n      0x01\n      add\n      swap2\n      pop\n      pop\n        /* \"Cyfrin Updraft Challenges/3.19.sol\":356:437  for(index = 0; index < 10; index++) {... */\n      jump(tag_17)\n    tag_18:\n        /* \"Cyfrin Updraft Challenges/3.19.sol\":320:444  {... */\n      pop\n        /* \"Cyfrin Updraft Challenges/3.19.sol\":288:444  function expensiveReset() public{... */\n      jump\t// out\n        /* \"Cyfrin Updraft Challenges/3.19.sol\":124:280  function pushNumbers() public{... */\n    tag_9:\n        /* \"Cyfrin Updraft Challenges/3.19.sol\":164:177  uint256 index */\n      0x00\n        /* \"Cyfrin Updraft Challenges/3.19.sol\":201:202  0 */\n      0x00\n        /* \"Cyfrin Updraft Challenges/3.19.sol\":193:202  index = 0 */\n      swap1\n      pop\n        /* \"Cyfrin Updraft Challenges/3.19.sol\":189:273  for(index = 0; index < 10; index++) {... */\n    tag_25:\n        /* \"Cyfrin Updraft Challenges/3.19.sol\":212:214  10 */\n      0x0a\n        /* \"Cyfrin Updraft Challenges/3.19.sol\":204:209  index */\n      dup2\n        /* \"Cyfrin Updraft Challenges/3.19.sol\":204:214  index < 10 */\n      lt\n        /* \"Cyfrin Updraft Challenges/3.19.sol\":189:273  for(index = 0; index < 10; index++) {... */\n      iszero\n      tag_26\n      jumpi\n        /* \"Cyfrin Updraft Challenges/3.19.sol\":240:247  numbers */\n      0x00\n        /* \"Cyfrin Updraft Challenges/3.19.sol\":259:260  1 */\n      0x01\n        /* \"Cyfrin Updraft Challenges/3.19.sol\":253:258  index */\n      dup3\n        /* \"Cyfrin Updraft Challenges/3.19.sol\":253:260  index+1 */\n      tag_28\n      swap2\n      swap1\n      tag_29\n      jump\t// in\n    tag_28:\n        /* \"Cyfrin Updraft Challenges/3.19.sol\":240:261  numbers.push(index+1) */\n      swap1\n      dup1\n      0x01\n      dup2\n      sload\n      add\n      dup1\n      dup3\n      sstore\n      dup1\n      swap2\n      pop\n      pop\n      0x01\n      swap1\n      sub\n      swap1\n      0x00\n      mstore\n      keccak256(0x00, 0x20)\n      add\n      0x00\n      swap1\n      swap2\n      swap1\n      swap2\n      swap1\n      swap2\n      pop\n      sstore\n        /* \"Cyfrin Updraft Challenges/3.19.sol\":216:223  index++ */\n      dup1\n      dup1\n      0x01\n      add\n      swap2\n      pop\n      pop\n        /* \"Cyfrin Updraft Challenges/3.19.sol\":189:273  for(index = 0; index < 10; index++) {... */\n      jump(tag_25)\n    tag_26:\n        /* \"Cyfrin Updraft Challenges/3.19.sol\":153:280  {... */\n      pop\n        /* \"Cyfrin Updraft Challenges/3.19.sol\":124:280  function pushNumbers() public{... */\n      jump\t// out\n        /* \"Cyfrin Updraft Challenges/3.19.sol\":91:115  uint256[] public numbers */\n    tag_13:\n      0x00\n      dup2\n      dup2\n      sload\n      dup2\n      lt\n      tag_31\n      jumpi\n      0x00\n      dup1\n      revert\n    tag_31:\n      swap1\n      0x00\n      mstore\n      keccak256(0x00, 0x20)\n      add\n      0x00\n      swap2\n      pop\n      swap1\n      pop\n      sload\n      dup2\n      jump\t// out\n        /* \"#utility.yul\":88:205   */\n    tag_34:\n        /* \"#utility.yul\":197:198   */\n      0x00\n        /* \"#utility.yul\":194:195   */\n      0x00\n        /* \"#utility.yul\":187:199   */\n      revert\n        /* \"#utility.yul\":334:411   */\n    tag_36:\n        /* \"#utility.yul\":371:378   */\n      0x00\n        /* \"#utility.yul\":400:405   */\n      dup2\n        /* \"#utility.yul\":389:405   */\n      swap1\n      pop\n        /* \"#utility.yul\":334:411   */\n      swap2\n      swap1\n      pop\n      jump\t// out\n        /* \"#utility.yul\":417:539   */\n    tag_37:\n        /* \"#utility.yul\":490:514   */\n      tag_47\n        /* \"#utility.yul\":508:513   */\n      dup2\n        /* \"#utility.yul\":490:514   */\n      tag_36\n      jump\t// in\n    tag_47:\n        /* \"#utility.yul\":483:488   */\n      dup2\n        /* \"#utility.yul\":480:515   */\n      eq\n        /* \"#utility.yul\":470:533   */\n      tag_48\n      jumpi\n        /* \"#utility.yul\":529:530   */\n      0x00\n        /* \"#utility.yul\":526:527   */\n      0x00\n        /* \"#utility.yul\":519:531   */\n      revert\n        /* \"#utility.yul\":470:533   */\n    tag_48:\n        /* \"#utility.yul\":417:539   */\n      pop\n      jump\t// out\n        /* \"#utility.yul\":545:684   */\n    tag_38:\n        /* \"#utility.yul\":591:596   */\n      0x00\n        /* \"#utility.yul\":629:635   */\n      dup2\n        /* \"#utility.yul\":616:636   */\n      calldataload\n        /* \"#utility.yul\":607:636   */\n      swap1\n      pop\n        /* \"#utility.yul\":645:678   */\n      tag_50\n        /* \"#utility.yul\":672:677   */\n      dup2\n        /* \"#utility.yul\":645:678   */\n      tag_37\n      jump\t// in\n    tag_50:\n        /* \"#utility.yul\":545:684   */\n      swap3\n      swap2\n      pop\n      pop\n      jump\t// out\n        /* \"#utility.yul\":690:1019   */\n    tag_12:\n        /* \"#utility.yul\":749:755   */\n      0x00\n        /* \"#utility.yul\":798:800   */\n      0x20\n        /* \"#utility.yul\":786:795   */\n      dup3\n        /* \"#utility.yul\":777:784   */\n      dup5\n        /* \"#utility.yul\":773:796   */\n      sub\n        /* \"#utility.yul\":769:801   */\n      slt\n        /* \"#utility.yul\":766:885   */\n      iszero\n      tag_52\n      jumpi\n        /* \"#utility.yul\":804:883   */\n      tag_53\n      tag_34\n      jump\t// in\n    tag_53:\n        /* \"#utility.yul\":766:885   */\n    tag_52:\n        /* \"#utility.yul\":924:925   */\n      0x00\n        /* \"#utility.yul\":949:1002   */\n      tag_54\n        /* \"#utility.yul\":994:1001   */\n      dup5\n        /* \"#utility.yul\":985:991   */\n      dup3\n        /* \"#utility.yul\":974:983   */\n      dup6\n        /* \"#utility.yul\":970:992   */\n      add\n        /* \"#utility.yul\":949:1002   */\n      tag_38\n      jump\t// in\n    tag_54:\n        /* \"#utility.yul\":939:1002   */\n      swap2\n      pop\n        /* \"#utility.yul\":895:1012   */\n      pop\n        /* \"#utility.yul\":690:1019   */\n      swap3\n      swap2\n      pop\n      pop\n      jump\t// out\n        /* \"#utility.yul\":1025:1143   */\n    tag_39:\n        /* \"#utility.yul\":1112:1136   */\n      tag_56\n        /* \"#utility.yul\":1130:1135   */\n      dup2\n        /* \"#utility.yul\":1112:1136   */\n      tag_36\n      jump\t// in\n    tag_56:\n        /* \"#utility.yul\":1107:1110   */\n      dup3\n        /* \"#utility.yul\":1100:1137   */\n      mstore\n        /* \"#utility.yul\":1025:1143   */\n      pop\n      pop\n      jump\t// out\n        /* \"#utility.yul\":1149:1371   */\n    tag_15:\n        /* \"#utility.yul\":1242:1246   */\n      0x00\n        /* \"#utility.yul\":1280:1282   */\n      0x20\n        /* \"#utility.yul\":1269:1278   */\n      dup3\n        /* \"#utility.yul\":1265:1283   */\n      add\n        /* \"#utility.yul\":1257:1283   */\n      swap1\n      pop\n        /* \"#utility.yul\":1293:1364   */\n      tag_58\n        /* \"#utility.yul\":1361:1362   */\n      0x00\n        /* \"#utility.yul\":1350:1359   */\n      dup4\n        /* \"#utility.yul\":1346:1363   */\n      add\n        /* \"#utility.yul\":1337:1343   */\n      dup5\n        /* \"#utility.yul\":1293:1364   */\n      tag_39\n      jump\t// in\n    tag_58:\n        /* \"#utility.yul\":1149:1371   */\n      swap3\n      swap2\n      pop\n      pop\n      jump\t// out\n        /* \"#utility.yul\":1377:1557   */\n    tag_22:\n        /* \"#utility.yul\":1425:1502   */\n      0x4e487b7100000000000000000000000000000000000000000000000000000000\n        /* \"#utility.yul\":1422:1423   */\n      0x00\n        /* \"#utility.yul\":1415:1503   */\n      mstore\n        /* \"#utility.yul\":1522:1526   */\n      0x32\n        /* \"#utility.yul\":1519:1520   */\n      0x04\n        /* \"#utility.yul\":1512:1527   */\n      mstore\n        /* \"#utility.yul\":1546:1550   */\n      0x24\n        /* \"#utility.yul\":1543:1544   */\n      0x00\n        /* \"#utility.yul\":1536:1551   */\n      revert\n        /* \"#utility.yul\":1563:1743   */\n    tag_40:\n        /* \"#utility.yul\":1611:1688   */\n      0x4e487b7100000000000000000000000000000000000000000000000000000000\n        /* \"#utility.yul\":1608:1609   */\n      0x00\n        /* \"#utility.yul\":1601:1689   */\n      mstore\n        /* \"#utility.yul\":1708:1712   */\n      0x11\n        /* \"#utility.yul\":1705:1706   */\n      0x04\n        /* \"#utility.yul\":1698:1713   */\n      mstore\n        /* \"#utility.yul\":1732:1736   */\n      0x24\n        /* \"#utility.yul\":1729:1730   */\n      0x00\n        /* \"#utility.yul\":1722:1737   */\n      revert\n        /* \"#utility.yul\":1749:1940   */\n    tag_29:\n        /* \"#utility.yul\":1789:1792   */\n      0x00\n        /* \"#utility.yul\":1808:1828   */\n      tag_62\n        /* \"#utility.yul\":1826:1827   */\n      dup3\n        /* \"#utility.yul\":1808:1828   */\n      tag_36\n      jump\t// in\n    tag_62:\n        /* \"#utility.yul\":1803:1828   */\n      swap2\n      pop\n        /* \"#utility.yul\":1842:1862   */\n      tag_63\n        /* \"#utility.yul\":1860:1861   */\n      dup4\n        /* \"#utility.yul\":1842:1862   */\n      tag_36\n      jump\t// in\n    tag_63:\n        /* \"#utility.yul\":1837:1862   */\n      swap3\n      pop\n        /* \"#utility.yul\":1885:1886   */\n      dup3\n        /* \"#utility.yul\":1882:1883   */\n      dup3\n        /* \"#utility.yul\":1878:1887   */\n      add\n        /* \"#utility.yul\":1871:1887   */\n      swap1\n      pop\n        /* \"#utility.yul\":1906:1909   */\n      dup1\n        /* \"#utility.yul\":1903:1904   */\n      dup3\n        /* \"#utility.yul\":1900:1910   */\n      gt\n        /* \"#utility.yul\":1897:1933   */\n      iszero\n      tag_64\n      jumpi\n        /* \"#utility.yul\":1913:1931   */\n      tag_65\n      tag_40\n      jump\t// in\n    tag_65:\n        /* \"#utility.yul\":1897:1933   */\n    tag_64:\n        /* \"#utility.yul\":1749:1940   */\n      swap3\n      swap2\n      pop\n      pop\n      jump\t// out\n\n    auxdata: 0xa264697066735822122046033034cdf0cf4e327825f50688265b2e7f130fa98fb18eed5bd0b7c770dff264736f6c634300081b0033\n}\n",
				"bytecode": {
					"linkReferences": {},
					"object": "6080604052348015600e575f5ffd5b506102808061001c5f395ff3fe608060405234801561000f575f5ffd5b506004361061003f575f3560e01c8063014b640b14610043578063ce7fd4301461004d578063d39fa23314610057575b5f5ffd5b61004b610087565b005b6100556100c5565b005b610071600480360381019061006c919061016a565b610114565b60405161007e91906101a4565b60405180910390f35b5f5f90505b600a8110156100c2575f5f82815481106100a9576100a86101bd565b5b905f5260205f200181905550808060010191505061008c565b50565b5f5f90505b600a811015610111575f6001826100e19190610217565b908060018154018082558091505060019003905f5260205f20015f909190919091505580806001019150506100ca565b50565b5f8181548110610122575f80fd5b905f5260205f20015f915090505481565b5f5ffd5b5f819050919050565b61014981610137565b8114610153575f5ffd5b50565b5f8135905061016481610140565b92915050565b5f6020828403121561017f5761017e610133565b5b5f61018c84828501610156565b91505092915050565b61019e81610137565b82525050565b5f6020820190506101b75f830184610195565b92915050565b7f4e487b71000000000000000000000000000000000000000000000000000000005f52603260045260245ffd5b7f4e487b71000000000000000000000000000000000000000000000000000000005f52601160045260245ffd5b5f61022182610137565b915061022c83610137565b9250828201905080821115610244576102436101ea565b5b9291505056fea264697066735822122046033034cdf0cf4e327825f50688265b2e7f130fa98fb18eed5bd0b7c770dff264736f6c634300081b0033",
					"opcodes": "PUSH1 0x80 PUSH1 0x40 MSTORE CALLVALUE DUP1 ISZERO PUSH1 0xE JUMPI PUSH0 PUSH0 REVERT JUMPDEST POP PUSH2 0x280 DUP1 PUSH2 0x1C PUSH0 CODECOPY PUSH0 RETURN INVALID PUSH1 0x80 PUSH1 0x40 MSTORE CALLVALUE DUP1 ISZERO PUSH2 0xF JUMPI PUSH0 PUSH0 REVERT JUMPDEST POP PUSH1 0x4 CALLDATASIZE LT PUSH2 0x3F JUMPI PUSH0 CALLDATALOAD PUSH1 0xE0 SHR DUP1 PUSH4 0x14B640B EQ PUSH2 0x43 JUMPI DUP1 PUSH4 0xCE7FD430 EQ PUSH2 0x4D JUMPI DUP1 PUSH4 0xD39FA233 EQ PUSH2 0x57 JUMPI JUMPDEST PUSH0 PUSH0 REVERT JUMPDEST PUSH2 0x4B PUSH2 0x87 JUMP JUMPDEST STOP JUMPDEST PUSH2 0x55 PUSH2 0xC5 JUMP JUMPDEST STOP JUMPDEST PUSH2 0x71 PUSH1 0x4 DUP1 CALLDATASIZE SUB DUP2 ADD SWAP1 PUSH2 0x6C SWAP2 SWAP1 PUSH2 0x16A JUMP JUMPDEST PUSH2 0x114 JUMP JUMPDEST PUSH1 0x40 MLOAD PUSH2 0x7E SWAP2 SWAP1 PUSH2 0x1A4 JUMP JUMPDEST PUSH1 0x40 MLOAD DUP1 SWAP2 SUB SWAP1 RETURN JUMPDEST PUSH0 PUSH0 SWAP1 POP JUMPDEST PUSH1 0xA DUP2 LT ISZERO PUSH2 0xC2 JUMPI PUSH0 PUSH0 DUP3 DUP2 SLOAD DUP2 LT PUSH2 0xA9 JUMPI PUSH2 0xA8 PUSH2 0x1BD JUMP JUMPDEST JUMPDEST SWAP1 PUSH0 MSTORE PUSH1 0x20 PUSH0 KECCAK256 ADD DUP2 SWAP1 SSTORE POP DUP1 DUP1 PUSH1 0x1 ADD SWAP2 POP POP PUSH2 0x8C JUMP JUMPDEST POP JUMP JUMPDEST PUSH0 PUSH0 SWAP1 POP JUMPDEST PUSH1 0xA DUP2 LT ISZERO PUSH2 0x111 JUMPI PUSH0 PUSH1 0x1 DUP3 PUSH2 0xE1 SWAP2 SWAP1 PUSH2 0x217 JUMP JUMPDEST SWAP1 DUP1 PUSH1 0x1 DUP2 SLOAD ADD DUP1 DUP3 SSTORE DUP1 SWAP2 POP POP PUSH1 0x1 SWAP1 SUB SWAP1 PUSH0 MSTORE PUSH1 0x20 PUSH0 KECCAK256 ADD PUSH0 SWAP1 SWAP2 SWAP1 SWAP2 SWAP1 SWAP2 POP SSTORE DUP1 DUP1 PUSH1 0x1 ADD SWAP2 POP POP PUSH2 0xCA JUMP JUMPDEST POP JUMP JUMPDEST PUSH0 DUP2 DUP2 SLOAD DUP2 LT PUSH2 0x122 JUMPI PUSH0 DUP1 REVERT JUMPDEST SWAP1 PUSH0 MSTORE PUSH1 0x20 PUSH0 KECCAK256 ADD PUSH0 SWAP2 POP SWAP1 POP SLOAD DUP2 JUMP JUMPDEST PUSH0 PUSH0 REVERT JUMPDEST PUSH0 DUP2 SWAP1 POP SWAP2 SWAP1 POP JUMP JUMPDEST PUSH2 0x149 DUP2 PUSH2 0x137 JUMP JUMPDEST DUP2 EQ PUSH2 0x153 JUMPI PUSH0 PUSH0 REVERT JUMPDEST POP JUMP JUMPDEST PUSH0 DUP2 CALLDATALOAD SWAP1 POP PUSH2 0x164 DUP2 PUSH2 0x140 JUMP JUMPDEST SWAP3 SWAP2 POP POP JUMP JUMPDEST PUSH0 PUSH1 0x20 DUP3 DUP5 SUB SLT ISZERO PUSH2 0x17F JUMPI PUSH2 0x17E PUSH2 0x133 JUMP JUMPDEST JUMPDEST PUSH0 PUSH2 0x18C DUP5 DUP3 DUP6 ADD PUSH2 0x156 JUMP JUMPDEST SWAP2 POP POP SWAP3 SWAP2 POP POP JUMP JUMPDEST PUSH2 0x19E DUP2 PUSH2 0x137 JUMP JUMPDEST DUP3 MSTORE POP POP JUMP JUMPDEST PUSH0 PUSH1 0x20 DUP3 ADD SWAP1 POP PUSH2 0x1B7 PUSH0 DUP4 ADD DUP5 PUSH2 0x195 JUMP JUMPDEST SWAP3 SWAP2 POP POP JUMP JUMPDEST PUSH32 0x4E487B7100000000000000000000000000000000000000000000000000000000 PUSH0 MSTORE PUSH1 0x32 PUSH1 0x4 MSTORE PUSH1 0x24 PUSH0 REVERT JUMPDEST PUSH32 0x4E487B7100000000000000000000000000000000000000000000000000000000 PUSH0 MSTORE PUSH1 0x11 PUSH1 0x4 MSTORE PUSH1 0x24 PUSH0 REVERT JUMPDEST PUSH0 PUSH2 0x221 DUP3 PUSH2 0x137 JUMP JUMPDEST SWAP2 POP PUSH2 0x22C DUP4 PUSH2 0x137 JUMP JUMPDEST SWAP3 POP DUP3 DUP3 ADD SWAP1 POP DUP1 DUP3 GT ISZERO PUSH2 0x244 JUMPI PUSH2 0x243 PUSH2 0x1EA JUMP JUMPDEST JUMPDEST SWAP3 SWAP2 POP POP JUMP INVALID LOG2 PUSH5 0x6970667358 0x22 SLT KECCAK256 CHAINID SUB ADDRESS CALLVALUE 0xCD CREATE 0xCF 0x4E ORIGIN PUSH25 0x25F50688265B2E7F130FA98FB18EED5BD0B7C770DFF264736F PUSH13 0x634300081B0033000000000000 "
				},
				"gasEstimates": {
					"creation": {
						"codeDepositCost": "128000",
						"executionCost": "169",
						"totalCost": "128169"
					},
					"external": {
						"expensiveReset()": "infinite",
						"numbers(uint256)": "infinite",
						"pushNumbers()": "infinite"
					}
				},
				"methodIdentifiers": {
					"expensiveReset()": "014b640b",
					"numbers(uint256)": "d39fa233",
					"pushNumbers()": "ce7fd430"
				}
			},
			"storageLayout": {
				"storage": [
					{
						"astId": 4,
						"contract": "Cyfrin Updraft Challenges/3.19.sol:ExpensiveReset",
						"label": "numbers",
						"offset": 0,
						"slot": "0",
						"type": "t_array(t_uint256)dyn_storage"
					}
				],
				"types": {
					"t_array(t_uint256)dyn_storage": {
						"base": "t_uint256",
						"encoding": "dynamic_array",
						"label": "uint256[]",
						"numberOfBytes": "32"
					},
					"t_uint256": {
						"encoding": "inplace",
						"label": "uint256",
						"numberOfBytes": "32"
					}
				}
			},
			"userdoc": {
				"kind": "user",
				"methods": {},
				"version": 1
			}
		}
	}
}