{
	"Cyfrin Updraft Challenges/2.11.sol": {
		"FundMe": {
			"abi": [
				{
					"inputs": [],
					"name": "getLatestBTCPriceInEth",
					"outputs": [
						{
							"internalType": "uint256",
							"name": "",
							"type": "uint256"
						}
					],
					"stateMutability": "view",
					"type": "function"
				}
			],
			"devdoc": {
				"kind": "dev",
				"methods": {},
				"version": 1
			},
			"evm": {
				"assembly": "    /* \"Cyfrin Updraft Challenges/2.11.sol\":176:469  contract FundMe{... */\n  mstore(0x40, 0x80)\n    /* \"Cyfrin Updraft Challenges/2.11.sol\":254:296  0x5fb1616F78dA7aFC9FF79e0371741a747D2a7F22 */\n  0x5fb1616f78da7afc9ff79e0371741a747d2a7f22\n    /* \"Cyfrin Updraft Challenges/2.11.sol\":198:297  AggregatorV3Interface priceFeed = AggregatorV3Interface(0x5fb1616F78dA7aFC9FF79e0371741a747D2a7F22) */\n  0x00\n  exp(0x0100, 0x00)\n  dup2\n  sload\n  dup2\n  0xffffffffffffffffffffffffffffffffffffffff\n  mul\n  not\n  and\n  swap1\n  dup4\n  0xffffffffffffffffffffffffffffffffffffffff\n  and\n  mul\n  or\n  swap1\n  sstore\n  pop\n    /* \"Cyfrin Updraft Challenges/2.11.sol\":176:469  contract FundMe{... */\n  callvalue\n  dup1\n  iszero\n  tag_1\n  jumpi\n  revert(0x00, 0x00)\ntag_1:\n  pop\n  dataSize(sub_0)\n  dup1\n  dataOffset(sub_0)\n  0x00\n  codecopy\n  0x00\n  return\nstop\n\nsub_0: assembly {\n        /* \"Cyfrin Updraft Challenges/2.11.sol\":176:469  contract FundMe{... */\n      mstore(0x40, 0x80)\n      callvalue\n      dup1\n      iszero\n      tag_1\n      jumpi\n      revert(0x00, 0x00)\n    tag_1:\n      pop\n      jumpi(tag_2, lt(calldatasize, 0x04))\n      shr(0xe0, calldataload(0x00))\n      dup1\n      0xc49890d7\n      eq\n      tag_3\n      jumpi\n    tag_2:\n      revert(0x00, 0x00)\n        /* \"Cyfrin Updraft Challenges/2.11.sol\":307:466  function getLatestBTCPriceInEth() public view returns(uint256){... */\n    tag_3:\n      tag_4\n      tag_5\n      jump\t// in\n    tag_4:\n      mload(0x40)\n      tag_6\n      swap2\n      swap1\n      tag_7\n      jump\t// in\n    tag_6:\n      mload(0x40)\n      dup1\n      swap2\n      sub\n      swap1\n      return\n    tag_5:\n        /* \"Cyfrin Updraft Challenges/2.11.sol\":361:368  uint256 */\n      0x00\n        /* \"Cyfrin Updraft Challenges/2.11.sol\":382:391  int price */\n      0x00\n        /* \"Cyfrin Updraft Challenges/2.11.sol\":397:406  priceFeed */\n      0x00\n      0x00\n      swap1\n      sload\n      swap1\n      0x0100\n      exp\n      swap1\n      div\n      0xffffffffffffffffffffffffffffffffffffffff\n      and\n        /* \"Cyfrin Updraft Challenges/2.11.sol\":397:422  priceFeed.latestRoundData */\n      0xffffffffffffffffffffffffffffffffffffffff\n      and\n      0xfeaf968c\n        /* \"Cyfrin Updraft Challenges/2.11.sol\":397:424  priceFeed.latestRoundData() */\n      mload(0x40)\n      dup2\n      0xffffffff\n      and\n      0xe0\n      shl\n      dup2\n      mstore\n      0x04\n      add\n      0xa0\n      mload(0x40)\n      dup1\n      dup4\n      sub\n      dup2\n      dup7\n      gas\n      staticcall\n      iszero\n      dup1\n      iszero\n      tag_10\n      jumpi\n      returndatacopy(0x00, 0x00, returndatasize)\n      revert(0x00, returndatasize)\n    tag_10:\n      pop\n      pop\n      pop\n      pop\n      mload(0x40)\n      returndatasize\n      not(0x1f)\n      0x1f\n      dup3\n      add\n      and\n      dup3\n      add\n      dup1\n      0x40\n      mstore\n      pop\n      dup2\n      add\n      swap1\n      tag_11\n      swap2\n      swap1\n      tag_12\n      jump\t// in\n    tag_11:\n        /* \"Cyfrin Updraft Challenges/2.11.sol\":380:424  (,int price,,,)= priceFeed.latestRoundData() */\n      pop\n      pop\n      pop\n      swap2\n      pop\n      pop\n        /* \"Cyfrin Updraft Challenges/2.11.sol\":451:456  price */\n      dup1\n        /* \"Cyfrin Updraft Challenges/2.11.sol\":436:457  return uint256(price) */\n      swap2\n      pop\n      pop\n        /* \"Cyfrin Updraft Challenges/2.11.sol\":307:466  function getLatestBTCPriceInEth() public view returns(uint256){... */\n      swap1\n      jump\t// out\n        /* \"#utility.yul\":7:84   */\n    tag_13:\n        /* \"#utility.yul\":44:51   */\n      0x00\n        /* \"#utility.yul\":73:78   */\n      dup2\n        /* \"#utility.yul\":62:78   */\n      swap1\n      pop\n        /* \"#utility.yul\":7:84   */\n      swap2\n      swap1\n      pop\n      jump\t// out\n        /* \"#utility.yul\":90:208   */\n    tag_14:\n        /* \"#utility.yul\":177:201   */\n      tag_29\n        /* \"#utility.yul\":195:200   */\n      dup2\n        /* \"#utility.yul\":177:201   */\n      tag_13\n      jump\t// in\n    tag_29:\n        /* \"#utility.yul\":172:175   */\n      dup3\n        /* \"#utility.yul\":165:202   */\n      mstore\n        /* \"#utility.yul\":90:208   */\n      pop\n      pop\n      jump\t// out\n        /* \"#utility.yul\":214:436   */\n    tag_7:\n        /* \"#utility.yul\":307:311   */\n      0x00\n        /* \"#utility.yul\":345:347   */\n      0x20\n        /* \"#utility.yul\":334:343   */\n      dup3\n        /* \"#utility.yul\":330:348   */\n      add\n        /* \"#utility.yul\":322:348   */\n      swap1\n      pop\n        /* \"#utility.yul\":358:429   */\n      tag_31\n        /* \"#utility.yul\":426:427   */\n      0x00\n        /* \"#utility.yul\":415:424   */\n      dup4\n        /* \"#utility.yul\":411:428   */\n      add\n        /* \"#utility.yul\":402:408   */\n      dup5\n        /* \"#utility.yul\":358:429   */\n      tag_14\n      jump\t// in\n    tag_31:\n        /* \"#utility.yul\":214:436   */\n      swap3\n      swap2\n      pop\n      pop\n      jump\t// out\n        /* \"#utility.yul\":523:640   */\n    tag_16:\n        /* \"#utility.yul\":632:633   */\n      0x00\n        /* \"#utility.yul\":629:630   */\n      0x00\n        /* \"#utility.yul\":622:634   */\n      revert\n        /* \"#utility.yul\":769:874   */\n    tag_18:\n        /* \"#utility.yul\":805:812   */\n      0x00\n        /* \"#utility.yul\":845:867   */\n      0xffffffffffffffffffff\n        /* \"#utility.yul\":838:843   */\n      dup3\n        /* \"#utility.yul\":834:868   */\n      and\n        /* \"#utility.yul\":823:868   */\n      swap1\n      pop\n        /* \"#utility.yul\":769:874   */\n      swap2\n      swap1\n      pop\n      jump\t// out\n        /* \"#utility.yul\":880:1000   */\n    tag_19:\n        /* \"#utility.yul\":952:975   */\n      tag_37\n        /* \"#utility.yul\":969:974   */\n      dup2\n        /* \"#utility.yul\":952:975   */\n      tag_18\n      jump\t// in\n    tag_37:\n        /* \"#utility.yul\":945:950   */\n      dup2\n        /* \"#utility.yul\":942:976   */\n      eq\n        /* \"#utility.yul\":932:994   */\n      tag_38\n      jumpi\n        /* \"#utility.yul\":990:991   */\n      0x00\n        /* \"#utility.yul\":987:988   */\n      0x00\n        /* \"#utility.yul\":980:992   */\n      revert\n        /* \"#utility.yul\":932:994   */\n    tag_38:\n        /* \"#utility.yul\":880:1000   */\n      pop\n      jump\t// out\n        /* \"#utility.yul\":1006:1147   */\n    tag_20:\n        /* \"#utility.yul\":1062:1067   */\n      0x00\n        /* \"#utility.yul\":1093:1099   */\n      dup2\n        /* \"#utility.yul\":1087:1100   */\n      mload\n        /* \"#utility.yul\":1078:1100   */\n      swap1\n      pop\n        /* \"#utility.yul\":1109:1141   */\n      tag_40\n        /* \"#utility.yul\":1135:1140   */\n      dup2\n        /* \"#utility.yul\":1109:1141   */\n      tag_19\n      jump\t// in\n    tag_40:\n        /* \"#utility.yul\":1006:1147   */\n      swap3\n      swap2\n      pop\n      pop\n      jump\t// out\n        /* \"#utility.yul\":1153:1229   */\n    tag_21:\n        /* \"#utility.yul\":1189:1196   */\n      0x00\n        /* \"#utility.yul\":1218:1223   */\n      dup2\n        /* \"#utility.yul\":1207:1223   */\n      swap1\n      pop\n        /* \"#utility.yul\":1153:1229   */\n      swap2\n      swap1\n      pop\n      jump\t// out\n        /* \"#utility.yul\":1235:1355   */\n    tag_22:\n        /* \"#utility.yul\":1307:1330   */\n      tag_43\n        /* \"#utility.yul\":1324:1329   */\n      dup2\n        /* \"#utility.yul\":1307:1330   */\n      tag_21\n      jump\t// in\n    tag_43:\n        /* \"#utility.yul\":1300:1305   */\n      dup2\n        /* \"#utility.yul\":1297:1331   */\n      eq\n        /* \"#utility.yul\":1287:1349   */\n      tag_44\n      jumpi\n        /* \"#utility.yul\":1345:1346   */\n      0x00\n        /* \"#utility.yul\":1342:1343   */\n      0x00\n        /* \"#utility.yul\":1335:1347   */\n      revert\n        /* \"#utility.yul\":1287:1349   */\n    tag_44:\n        /* \"#utility.yul\":1235:1355   */\n      pop\n      jump\t// out\n        /* \"#utility.yul\":1361:1502   */\n    tag_23:\n        /* \"#utility.yul\":1417:1422   */\n      0x00\n        /* \"#utility.yul\":1448:1454   */\n      dup2\n        /* \"#utility.yul\":1442:1455   */\n      mload\n        /* \"#utility.yul\":1433:1455   */\n      swap1\n      pop\n        /* \"#utility.yul\":1464:1496   */\n      tag_46\n        /* \"#utility.yul\":1490:1495   */\n      dup2\n        /* \"#utility.yul\":1464:1496   */\n      tag_22\n      jump\t// in\n    tag_46:\n        /* \"#utility.yul\":1361:1502   */\n      swap3\n      swap2\n      pop\n      pop\n      jump\t// out\n        /* \"#utility.yul\":1508:1630   */\n    tag_24:\n        /* \"#utility.yul\":1581:1605   */\n      tag_48\n        /* \"#utility.yul\":1599:1604   */\n      dup2\n        /* \"#utility.yul\":1581:1605   */\n      tag_13\n      jump\t// in\n    tag_48:\n        /* \"#utility.yul\":1574:1579   */\n      dup2\n        /* \"#utility.yul\":1571:1606   */\n      eq\n        /* \"#utility.yul\":1561:1624   */\n      tag_49\n      jumpi\n        /* \"#utility.yul\":1620:1621   */\n      0x00\n        /* \"#utility.yul\":1617:1618   */\n      0x00\n        /* \"#utility.yul\":1610:1622   */\n      revert\n        /* \"#utility.yul\":1561:1624   */\n    tag_49:\n        /* \"#utility.yul\":1508:1630   */\n      pop\n      jump\t// out\n        /* \"#utility.yul\":1636:1779   */\n    tag_25:\n        /* \"#utility.yul\":1693:1698   */\n      0x00\n        /* \"#utility.yul\":1724:1730   */\n      dup2\n        /* \"#utility.yul\":1718:1731   */\n      mload\n        /* \"#utility.yul\":1709:1731   */\n      swap1\n      pop\n        /* \"#utility.yul\":1740:1773   */\n      tag_51\n        /* \"#utility.yul\":1767:1772   */\n      dup2\n        /* \"#utility.yul\":1740:1773   */\n      tag_24\n      jump\t// in\n    tag_51:\n        /* \"#utility.yul\":1636:1779   */\n      swap3\n      swap2\n      pop\n      pop\n      jump\t// out\n        /* \"#utility.yul\":1785:2756   */\n    tag_12:\n        /* \"#utility.yul\":1888:1894   */\n      0x00\n        /* \"#utility.yul\":1896:1902   */\n      0x00\n        /* \"#utility.yul\":1904:1910   */\n      0x00\n        /* \"#utility.yul\":1912:1918   */\n      0x00\n        /* \"#utility.yul\":1920:1926   */\n      0x00\n        /* \"#utility.yul\":1969:1972   */\n      0xa0\n        /* \"#utility.yul\":1957:1966   */\n      dup7\n        /* \"#utility.yul\":1948:1955   */\n      dup9\n        /* \"#utility.yul\":1944:1967   */\n      sub\n        /* \"#utility.yul\":1940:1973   */\n      slt\n        /* \"#utility.yul\":1937:2057   */\n      iszero\n      tag_53\n      jumpi\n        /* \"#utility.yul\":1976:2055   */\n      tag_54\n      tag_16\n      jump\t// in\n    tag_54:\n        /* \"#utility.yul\":1937:2057   */\n    tag_53:\n        /* \"#utility.yul\":2096:2097   */\n      0x00\n        /* \"#utility.yul\":2121:2184   */\n      tag_55\n        /* \"#utility.yul\":2176:2183   */\n      dup9\n        /* \"#utility.yul\":2167:2173   */\n      dup3\n        /* \"#utility.yul\":2156:2165   */\n      dup10\n        /* \"#utility.yul\":2152:2174   */\n      add\n        /* \"#utility.yul\":2121:2184   */\n      tag_20\n      jump\t// in\n    tag_55:\n        /* \"#utility.yul\":2111:2184   */\n      swap6\n      pop\n        /* \"#utility.yul\":2067:2194   */\n      pop\n        /* \"#utility.yul\":2233:2235   */\n      0x20\n        /* \"#utility.yul\":2259:2322   */\n      tag_56\n        /* \"#utility.yul\":2314:2321   */\n      dup9\n        /* \"#utility.yul\":2305:2311   */\n      dup3\n        /* \"#utility.yul\":2294:2303   */\n      dup10\n        /* \"#utility.yul\":2290:2312   */\n      add\n        /* \"#utility.yul\":2259:2322   */\n      tag_23\n      jump\t// in\n    tag_56:\n        /* \"#utility.yul\":2249:2322   */\n      swap5\n      pop\n        /* \"#utility.yul\":2204:2332   */\n      pop\n        /* \"#utility.yul\":2371:2373   */\n      0x40\n        /* \"#utility.yul\":2397:2461   */\n      tag_57\n        /* \"#utility.yul\":2453:2460   */\n      dup9\n        /* \"#utility.yul\":2444:2450   */\n      dup3\n        /* \"#utility.yul\":2433:2442   */\n      dup10\n        /* \"#utility.yul\":2429:2451   */\n      add\n        /* \"#utility.yul\":2397:2461   */\n      tag_25\n      jump\t// in\n    tag_57:\n        /* \"#utility.yul\":2387:2461   */\n      swap4\n      pop\n        /* \"#utility.yul\":2342:2471   */\n      pop\n        /* \"#utility.yul\":2510:2512   */\n      0x60\n        /* \"#utility.yul\":2536:2600   */\n      tag_58\n        /* \"#utility.yul\":2592:2599   */\n      dup9\n        /* \"#utility.yul\":2583:2589   */\n      dup3\n        /* \"#utility.yul\":2572:2581   */\n      dup10\n        /* \"#utility.yul\":2568:2590   */\n      add\n        /* \"#utility.yul\":2536:2600   */\n      tag_25\n      jump\t// in\n    tag_58:\n        /* \"#utility.yul\":2526:2600   */\n      swap3\n      pop\n        /* \"#utility.yul\":2481:2610   */\n      pop\n        /* \"#utility.yul\":2649:2652   */\n      0x80\n        /* \"#utility.yul\":2676:2739   */\n      tag_59\n        /* \"#utility.yul\":2731:2738   */\n      dup9\n        /* \"#utility.yul\":2722:2728   */\n      dup3\n        /* \"#utility.yul\":2711:2720   */\n      dup10\n        /* \"#utility.yul\":2707:2729   */\n      add\n        /* \"#utility.yul\":2676:2739   */\n      tag_20\n      jump\t// in\n    tag_59:\n        /* \"#utility.yul\":2666:2739   */\n      swap2\n      pop\n        /* \"#utility.yul\":2620:2749   */\n      pop\n        /* \"#utility.yul\":1785:2756   */\n      swap3\n      swap6\n      pop\n      swap3\n      swap6\n      swap1\n      swap4\n      pop\n      jump\t// out\n\n    auxdata: 0xa2646970667358221220627ae314e3835fc9a6160cd3f267af326f7c5c4d1d657efb0fba946d8cc3a6c364736f6c634300081b0033\n}\n",
				"bytecode": {
					"linkReferences": {},
					"object": "6080604052735fb1616f78da7afc9ff79e0371741a747d2a7f225f5f6101000a81548173ffffffffffffffffffffffffffffffffffffffff021916908373ffffffffffffffffffffffffffffffffffffffff1602179055503480156061575f5ffd5b506102658061006f5f395ff3fe608060405234801561000f575f5ffd5b5060043610610029575f3560e01c8063c49890d71461002d575b5f5ffd5b61003561004b565b60405161004291906100ff565b60405180910390f35b5f5f5f5f9054906101000a900473ffffffffffffffffffffffffffffffffffffffff1673ffffffffffffffffffffffffffffffffffffffff1663feaf968c6040518163ffffffff1660e01b815260040160a060405180830381865afa1580156100b6573d5f5f3e3d5ffd5b505050506040513d601f19601f820116820180604052508101906100da91906101b8565b5050509150508091505090565b5f819050919050565b6100f9816100e7565b82525050565b5f6020820190506101125f8301846100f0565b92915050565b5f5ffd5b5f69ffffffffffffffffffff82169050919050565b61013a8161011c565b8114610144575f5ffd5b50565b5f8151905061015581610131565b92915050565b5f819050919050565b61016d8161015b565b8114610177575f5ffd5b50565b5f8151905061018881610164565b92915050565b610197816100e7565b81146101a1575f5ffd5b50565b5f815190506101b28161018e565b92915050565b5f5f5f5f5f60a086880312156101d1576101d0610118565b5b5f6101de88828901610147565b95505060206101ef8882890161017a565b9450506040610200888289016101a4565b9350506060610211888289016101a4565b925050608061022288828901610147565b915050929550929590935056fea2646970667358221220627ae314e3835fc9a6160cd3f267af326f7c5c4d1d657efb0fba946d8cc3a6c364736f6c634300081b0033",
					"opcodes": "PUSH1 0x80 PUSH1 0x40 MSTORE PUSH20 0x5FB1616F78DA7AFC9FF79E0371741A747D2A7F22 PUSH0 PUSH0 PUSH2 0x100 EXP DUP2 SLOAD DUP2 PUSH20 0xFFFFFFFFFFFFFFFFFFFFFFFFFFFFFFFFFFFFFFFF MUL NOT AND SWAP1 DUP4 PUSH20 0xFFFFFFFFFFFFFFFFFFFFFFFFFFFFFFFFFFFFFFFF AND MUL OR SWAP1 SSTORE POP CALLVALUE DUP1 ISZERO PUSH1 0x61 JUMPI PUSH0 PUSH0 REVERT JUMPDEST POP PUSH2 0x265 DUP1 PUSH2 0x6F PUSH0 CODECOPY PUSH0 RETURN INVALID PUSH1 0x80 PUSH1 0x40 MSTORE CALLVALUE DUP1 ISZERO PUSH2 0xF JUMPI PUSH0 PUSH0 REVERT JUMPDEST POP PUSH1 0x4 CALLDATASIZE LT PUSH2 0x29 JUMPI PUSH0 CALLDATALOAD PUSH1 0xE0 SHR DUP1 PUSH4 0xC49890D7 EQ PUSH2 0x2D JUMPI JUMPDEST PUSH0 PUSH0 REVERT JUMPDEST PUSH2 0x35 PUSH2 0x4B JUMP JUMPDEST PUSH1 0x40 MLOAD PUSH2 0x42 SWAP2 SWAP1 PUSH2 0xFF JUMP JUMPDEST PUSH1 0x40 MLOAD DUP1 SWAP2 SUB SWAP1 RETURN JUMPDEST PUSH0 PUSH0 PUSH0 PUSH0 SWAP1 SLOAD SWAP1 PUSH2 0x100 EXP SWAP1 DIV PUSH20 0xFFFFFFFFFFFFFFFFFFFFFFFFFFFFFFFFFFFFFFFF AND PUSH20 0xFFFFFFFFFFFFFFFFFFFFFFFFFFFFFFFFFFFFFFFF AND PUSH4 0xFEAF968C PUSH1 0x40 MLOAD DUP2 PUSH4 0xFFFFFFFF AND PUSH1 0xE0 SHL DUP2 MSTORE PUSH1 0x4 ADD PUSH1 0xA0 PUSH1 0x40 MLOAD DUP1 DUP4 SUB DUP2 DUP7 GAS STATICCALL ISZERO DUP1 ISZERO PUSH2 0xB6 JUMPI RETURNDATASIZE PUSH0 PUSH0 RETURNDATACOPY RETURNDATASIZE PUSH0 REVERT JUMPDEST POP POP POP POP PUSH1 0x40 MLOAD RETURNDATASIZE PUSH1 0x1F NOT PUSH1 0x1F DUP3 ADD AND DUP3 ADD DUP1 PUSH1 0x40 MSTORE POP DUP2 ADD SWAP1 PUSH2 0xDA SWAP2 SWAP1 PUSH2 0x1B8 JUMP JUMPDEST POP POP POP SWAP2 POP POP DUP1 SWAP2 POP POP SWAP1 JUMP JUMPDEST PUSH0 DUP2 SWAP1 POP SWAP2 SWAP1 POP JUMP JUMPDEST PUSH2 0xF9 DUP2 PUSH2 0xE7 JUMP JUMPDEST DUP3 MSTORE POP POP JUMP JUMPDEST PUSH0 PUSH1 0x20 DUP3 ADD SWAP1 POP PUSH2 0x112 PUSH0 DUP4 ADD DUP5 PUSH2 0xF0 JUMP JUMPDEST SWAP3 SWAP2 POP POP JUMP JUMPDEST PUSH0 PUSH0 REVERT JUMPDEST PUSH0 PUSH10 0xFFFFFFFFFFFFFFFFFFFF DUP3 AND SWAP1 POP SWAP2 SWAP1 POP JUMP JUMPDEST PUSH2 0x13A DUP2 PUSH2 0x11C JUMP JUMPDEST DUP2 EQ PUSH2 0x144 JUMPI PUSH0 PUSH0 REVERT JUMPDEST POP JUMP JUMPDEST PUSH0 DUP2 MLOAD SWAP1 POP PUSH2 0x155 DUP2 PUSH2 0x131 JUMP JUMPDEST SWAP3 SWAP2 POP POP JUMP JUMPDEST PUSH0 DUP2 SWAP1 POP SWAP2 SWAP1 POP JUMP JUMPDEST PUSH2 0x16D DUP2 PUSH2 0x15B JUMP JUMPDEST DUP2 EQ PUSH2 0x177 JUMPI PUSH0 PUSH0 REVERT JUMPDEST POP JUMP JUMPDEST PUSH0 DUP2 MLOAD SWAP1 POP PUSH2 0x188 DUP2 PUSH2 0x164 JUMP JUMPDEST SWAP3 SWAP2 POP POP JUMP JUMPDEST PUSH2 0x197 DUP2 PUSH2 0xE7 JUMP JUMPDEST DUP2 EQ PUSH2 0x1A1 JUMPI PUSH0 PUSH0 REVERT JUMPDEST POP JUMP JUMPDEST PUSH0 DUP2 MLOAD SWAP1 POP PUSH2 0x1B2 DUP2 PUSH2 0x18E JUMP JUMPDEST SWAP3 SWAP2 POP POP JUMP JUMPDEST PUSH0 PUSH0 PUSH0 PUSH0 PUSH0 PUSH1 0xA0 DUP7 DUP9 SUB SLT ISZERO PUSH2 0x1D1 JUMPI PUSH2 0x1D0 PUSH2 0x118 JUMP JUMPDEST JUMPDEST PUSH0 PUSH2 0x1DE DUP9 DUP3 DUP10 ADD PUSH2 0x147 JUMP JUMPDEST SWAP6 POP POP PUSH1 0x20 PUSH2 0x1EF DUP9 DUP3 DUP10 ADD PUSH2 0x17A JUMP JUMPDEST SWAP5 POP POP PUSH1 0x40 PUSH2 0x200 DUP9 DUP3 DUP10 ADD PUSH2 0x1A4 JUMP JUMPDEST SWAP4 POP POP PUSH1 0x60 PUSH2 0x211 DUP9 DUP3 DUP10 ADD PUSH2 0x1A4 JUMP JUMPDEST SWAP3 POP POP PUSH1 0x80 PUSH2 0x222 DUP9 DUP3 DUP10 ADD PUSH2 0x147 JUMP JUMPDEST SWAP2 POP POP SWAP3 SWAP6 POP SWAP3 SWAP6 SWAP1 SWAP4 POP JUMP INVALID LOG2 PUSH5 0x6970667358 0x22 SLT KECCAK256 PUSH3 0x7AE314 0xE3 DUP4 PUSH0 0xC9 0xA6 AND 0xC 0xD3 CALLCODE PUSH8 0xAF326F7C5C4D1D65 PUSH31 0xFB0FBA946D8CC3A6C364736F6C634300081B00330000000000000000000000 "
				},
				"gasEstimates": {
					"creation": {
						"codeDepositCost": "122600",
						"executionCost": "24434",
						"totalCost": "147034"
					},
					"external": {
						"getLatestBTCPriceInEth()": "infinite"
					}
				},
				"methodIdentifiers": {
					"getLatestBTCPriceInEth()": "c49890d7"
				}
			},
			"storageLayout": {
				"storage": [
					{
						"astId": 55,
						"contract": "Cyfrin Updraft Challenges/2.11.sol:FundMe",
						"label": "priceFeed",
						"offset": 0,
						"slot": "0",
						"type": "t_contract(AggregatorV3Interface)45"
					}
				],
				"types": {
					"t_contract(AggregatorV3Interface)45": {
						"encoding": "inplace",
						"label": "contract AggregatorV3Interface",
						"numberOfBytes": "20"
					}
				}
			},
			"userdoc": {
				"kind": "user",
				"methods": {},
				"version": 1
			}
		}
	}
}