{
	"Cyfrin Updraft Challenges/3.24.sol": {
		"FundMe": {
			"abi": [
				{
					"inputs": [],
					"stateMutability": "nonpayable",
					"type": "constructor"
				},
				{
					"inputs": [],
					"name": "fund",
					"outputs": [],
					"stateMutability": "payable",
					"type": "function"
				},
				{
					"inputs": [],
					"name": "withdraw",
					"outputs": [],
					"stateMutability": "nonpayable",
					"type": "function"
				}
			],
			"devdoc": {
				"kind": "dev",
				"methods": {},
				"version": 1
			},
			"evm": {
				"assembly": "    /* \"Cyfrin Updraft Challenges/3.24.sol\":270:1359  contract FundMe{... */\n  mstore(0x40, 0xc0)\n    /* \"Cyfrin Updraft Challenges/3.24.sol\":524:577  constructor(){... */\n  callvalue\n  dup1\n  iszero\n  tag_1\n  jumpi\n  revert(0x00, 0x00)\ntag_1:\n  pop\n    /* \"Cyfrin Updraft Challenges/3.24.sol\":558:568  msg.sender */\n  caller\n    /* \"Cyfrin Updraft Challenges/3.24.sol\":548:568  i_owner = msg.sender */\n  0xffffffffffffffffffffffffffffffffffffffff\n  and\n  0x80\n  dup2\n  0xffffffffffffffffffffffffffffffffffffffff\n  and\n  dup2\n  mstore\n  pop\n  pop\n    /* \"Cyfrin Updraft Challenges/3.24.sol\":270:1359  contract FundMe{... */\n  mload(0x80)\n  mload(0xa0)\n  codecopy(0x00, dataOffset(sub_0), dataSize(sub_0))\n  0x00\n  assignImmutable(\"0x2cc0d3dcb20652cd8f106aee76b6a7391771a130885634c0eb2bbe3cde796691\")\n  0x00\n  assignImmutable(\"0xdb37925934a3d3177db64e11f5e0156ceb8a756fee58ded16e549afa607ddb1d\")\n  return(0x00, dataSize(sub_0))\nstop\n\nsub_0: assembly {\n        /* \"Cyfrin Updraft Challenges/3.24.sol\":270:1359  contract FundMe{... */\n      mstore(0x40, 0x80)\n      jumpi(tag_1, lt(calldatasize, 0x04))\n      shr(0xe0, calldataload(0x00))\n      dup1\n      0x3ccfd60b\n      eq\n      tag_2\n      jumpi\n      dup1\n      0xb60d4288\n      eq\n      tag_3\n      jumpi\n    tag_1:\n      revert(0x00, 0x00)\n        /* \"Cyfrin Updraft Challenges/3.24.sol\":818:1252  function withdraw() public onlyOwner {... */\n    tag_2:\n      callvalue\n      dup1\n      iszero\n      tag_4\n      jumpi\n      revert(0x00, 0x00)\n    tag_4:\n      pop\n      tag_5\n      tag_6\n      jump\t// in\n    tag_5:\n      stop\n        /* \"Cyfrin Updraft Challenges/3.24.sol\":585:810  function fund() public payable {... */\n    tag_3:\n      tag_7\n      tag_8\n      jump\t// in\n    tag_7:\n      stop\n        /* \"Cyfrin Updraft Challenges/3.24.sol\":818:1252  function withdraw() public onlyOwner {... */\n    tag_6:\n        /* \"Cyfrin Updraft Challenges/3.24.sol\":1314:1321  i_owner */\n      immutable(\"0xdb37925934a3d3177db64e11f5e0156ceb8a756fee58ded16e549afa607ddb1d\")\n        /* \"Cyfrin Updraft Challenges/3.24.sol\":1300:1321  msg.sender == i_owner */\n      0xffffffffffffffffffffffffffffffffffffffff\n      and\n        /* \"Cyfrin Updraft Challenges/3.24.sol\":1300:1310  msg.sender */\n      caller\n        /* \"Cyfrin Updraft Challenges/3.24.sol\":1300:1321  msg.sender == i_owner */\n      0xffffffffffffffffffffffffffffffffffffffff\n      and\n      eq\n        /* \"Cyfrin Updraft Challenges/3.24.sol\":1292:1335  require(msg.sender == i_owner, \"Not Owner\") */\n      tag_10\n      jumpi\n      mload(0x40)\n      0x08c379a000000000000000000000000000000000000000000000000000000000\n      dup2\n      mstore\n      0x04\n      add\n      tag_11\n      swap1\n      tag_12\n      jump\t// in\n    tag_11:\n      mload(0x40)\n      dup1\n      swap2\n      sub\n      swap1\n      revert\n    tag_10:\n        /* \"Cyfrin Updraft Challenges/3.24.sol\":866:885  uint256 funderIndex */\n      0x00\n        /* \"Cyfrin Updraft Challenges/3.24.sol\":896:1077  for(funderIndex == 0 ; funderIndex > funders.length; funderIndex++){... */\n    tag_14:\n        /* \"Cyfrin Updraft Challenges/3.24.sol\":933:940  funders */\n      0x00\n        /* \"Cyfrin Updraft Challenges/3.24.sol\":933:947  funders.length */\n      dup1\n      sload\n      swap1\n      pop\n        /* \"Cyfrin Updraft Challenges/3.24.sol\":919:930  funderIndex */\n      dup2\n        /* \"Cyfrin Updraft Challenges/3.24.sol\":919:947  funderIndex > funders.length */\n      gt\n        /* \"Cyfrin Updraft Challenges/3.24.sol\":896:1077  for(funderIndex == 0 ; funderIndex > funders.length; funderIndex++){... */\n      iszero\n      tag_15\n      jumpi\n        /* \"Cyfrin Updraft Challenges/3.24.sol\":978:992  address funder */\n      0x00\n        /* \"Cyfrin Updraft Challenges/3.24.sol\":995:1002  funders */\n      0x00\n        /* \"Cyfrin Updraft Challenges/3.24.sol\":1003:1014  funderIndex */\n      dup3\n        /* \"Cyfrin Updraft Challenges/3.24.sol\":995:1015  funders[funderIndex] */\n      dup2\n      sload\n      dup2\n      lt\n      tag_17\n      jumpi\n      tag_18\n      tag_19\n      jump\t// in\n    tag_18:\n    tag_17:\n      swap1\n      0x00\n      mstore\n      keccak256(0x00, 0x20)\n      add\n      0x00\n      swap1\n      sload\n      swap1\n      0x0100\n      exp\n      swap1\n      div\n      0xffffffffffffffffffffffffffffffffffffffff\n      and\n        /* \"Cyfrin Updraft Challenges/3.24.sol\":978:1015  address funder = funders[funderIndex] */\n      swap1\n      pop\n        /* \"Cyfrin Updraft Challenges/3.24.sol\":1063:1064  0 */\n      0x00\n        /* \"Cyfrin Updraft Challenges/3.24.sol\":1031:1052  addressToAmountFunded */\n      0x01\n        /* \"Cyfrin Updraft Challenges/3.24.sol\":1031:1060  addressToAmountFunded[funder] */\n      0x00\n        /* \"Cyfrin Updraft Challenges/3.24.sol\":1053:1059  funder */\n      dup4\n        /* \"Cyfrin Updraft Challenges/3.24.sol\":1031:1060  addressToAmountFunded[funder] */\n      0xffffffffffffffffffffffffffffffffffffffff\n      and\n      0xffffffffffffffffffffffffffffffffffffffff\n      and\n      dup2\n      mstore\n      0x20\n      add\n      swap1\n      dup2\n      mstore\n      0x20\n      add\n      0x00\n      keccak256\n        /* \"Cyfrin Updraft Challenges/3.24.sol\":1031:1064  addressToAmountFunded[funder] = 0 */\n      dup2\n      swap1\n      sstore\n      pop\n        /* \"Cyfrin Updraft Challenges/3.24.sol\":963:1077  {... */\n      pop\n        /* \"Cyfrin Updraft Challenges/3.24.sol\":949:962  funderIndex++ */\n      dup1\n      dup1\n      tag_21\n      swap1\n      tag_22\n      jump\t// in\n    tag_21:\n      swap2\n      pop\n      pop\n        /* \"Cyfrin Updraft Challenges/3.24.sol\":896:1077  for(funderIndex == 0 ; funderIndex > funders.length; funderIndex++){... */\n      jump(tag_14)\n    tag_15:\n        /* \"Cyfrin Updraft Challenges/3.24.sol\":1111:1112  0 */\n      0x00\n        /* \"Cyfrin Updraft Challenges/3.24.sol\":1097:1113  new address[](0) */\n      0xffffffffffffffff\n      dup2\n      gt\n      iszero\n      tag_23\n      jumpi\n      tag_24\n      tag_25\n      jump\t// in\n    tag_24:\n    tag_23:\n      mload(0x40)\n      swap1\n      dup1\n      dup3\n      mstore\n      dup1\n      0x20\n      mul\n      0x20\n      add\n      dup3\n      add\n      0x40\n      mstore\n      dup1\n      iszero\n      tag_26\n      jumpi\n      dup2\n      0x20\n      add\n      0x20\n      dup3\n      mul\n      dup1\n      calldatasize\n      dup4\n      calldatacopy\n      dup1\n      dup3\n      add\n      swap2\n      pop\n      pop\n      swap1\n      pop\n    tag_26:\n      pop\n        /* \"Cyfrin Updraft Challenges/3.24.sol\":1087:1094  funders */\n      0x00\n        /* \"Cyfrin Updraft Challenges/3.24.sol\":1087:1113  funders = new address[](0) */\n      swap1\n      dup1\n      mload\n      swap1\n      0x20\n      add\n      swap1\n      tag_27\n      swap3\n      swap2\n      swap1\n      tag_28\n      jump\t// in\n    tag_27:\n      pop\n        /* \"Cyfrin Updraft Challenges/3.24.sol\":1126:1138  bool success */\n      0x00\n        /* \"Cyfrin Updraft Challenges/3.24.sol\":1152:1162  msg.sender */\n      caller\n        /* \"Cyfrin Updraft Challenges/3.24.sol\":1144:1168  payable(msg.sender).call */\n      0xffffffffffffffffffffffffffffffffffffffff\n      and\n        /* \"Cyfrin Updraft Challenges/3.24.sol\":1176:1197  address(this).balance */\n      selfbalance\n        /* \"Cyfrin Updraft Challenges/3.24.sol\":1144:1202  payable(msg.sender).call{value: address(this).balance}(\"\") */\n      mload(0x40)\n      tag_29\n      swap1\n      tag_30\n      jump\t// in\n    tag_29:\n      0x00\n      mload(0x40)\n      dup1\n      dup4\n      sub\n      dup2\n      dup6\n      dup8\n      gas\n      call\n      swap3\n      pop\n      pop\n      pop\n      returndatasize\n      dup1\n      0x00\n      dup2\n      eq\n      tag_33\n      jumpi\n      mload(0x40)\n      swap2\n      pop\n      and(add(returndatasize, 0x3f), not(0x1f))\n      dup3\n      add\n      0x40\n      mstore\n      returndatasize\n      dup3\n      mstore\n      returndatasize\n      0x00\n      0x20\n      dup5\n      add\n      returndatacopy\n      jump(tag_32)\n    tag_33:\n      0x60\n      swap2\n      pop\n    tag_32:\n      pop\n        /* \"Cyfrin Updraft Challenges/3.24.sol\":1125:1202  (bool success, ) = payable(msg.sender).call{value: address(this).balance}(\"\") */\n      pop\n      swap1\n      pop\n        /* \"Cyfrin Updraft Challenges/3.24.sol\":1221:1228  success */\n      dup1\n        /* \"Cyfrin Updraft Challenges/3.24.sol\":1213:1244  require(success, \"Call failed\") */\n      tag_34\n      jumpi\n      mload(0x40)\n      0x08c379a000000000000000000000000000000000000000000000000000000000\n      dup2\n      mstore\n      0x04\n      add\n      tag_35\n      swap1\n      tag_36\n      jump\t// in\n    tag_35:\n      mload(0x40)\n      dup1\n      swap2\n      sub\n      swap1\n      revert\n    tag_34:\n        /* \"Cyfrin Updraft Challenges/3.24.sol\":855:1252  {... */\n      pop\n      pop\n        /* \"Cyfrin Updraft Challenges/3.24.sol\":818:1252  function withdraw() public onlyOwner {... */\n      jump\t// out\n        /* \"Cyfrin Updraft Challenges/3.24.sol\":585:810  function fund() public payable {... */\n    tag_8:\n        /* \"Cyfrin Updraft Challenges/3.24.sol\":329:330  5 */\n      0x05\n        /* \"Cyfrin Updraft Challenges/3.24.sol\":635:664  msg.value.getConversionRate() */\n      tag_38\n        /* \"Cyfrin Updraft Challenges/3.24.sol\":635:644  msg.value */\n      callvalue\n        /* \"Cyfrin Updraft Challenges/3.24.sol\":635:662  msg.value.getConversionRate */\n      tag_39\n        /* \"Cyfrin Updraft Challenges/3.24.sol\":635:664  msg.value.getConversionRate() */\n      jump\t// in\n    tag_38:\n        /* \"Cyfrin Updraft Challenges/3.24.sol\":635:679  msg.value.getConversionRate() >= MINIMUM_USD */\n      lt\n      iszero\n        /* \"Cyfrin Updraft Challenges/3.24.sol\":627:708  require(msg.value.getConversionRate() >= MINIMUM_USD, \"less than 5 dollars sent\") */\n      tag_40\n      jumpi\n      mload(0x40)\n      0x08c379a000000000000000000000000000000000000000000000000000000000\n      dup2\n      mstore\n      0x04\n      add\n      tag_41\n      swap1\n      tag_42\n      jump\t// in\n    tag_41:\n      mload(0x40)\n      dup1\n      swap2\n      sub\n      swap1\n      revert\n    tag_40:\n        /* \"Cyfrin Updraft Challenges/3.24.sol\":719:726  funders */\n      0x00\n        /* \"Cyfrin Updraft Challenges/3.24.sol\":732:742  msg.sender */\n      caller\n        /* \"Cyfrin Updraft Challenges/3.24.sol\":719:743  funders.push(msg.sender) */\n      swap1\n      dup1\n      0x01\n      dup2\n      sload\n      add\n      dup1\n      dup3\n      sstore\n      dup1\n      swap2\n      pop\n      pop\n      0x01\n      swap1\n      sub\n      swap1\n      0x00\n      mstore\n      keccak256(0x00, 0x20)\n      add\n      0x00\n      swap1\n      swap2\n      swap1\n      swap2\n      swap1\n      swap2\n      0x0100\n      exp\n      dup2\n      sload\n      dup2\n      0xffffffffffffffffffffffffffffffffffffffff\n      mul\n      not\n      and\n      swap1\n      dup4\n      0xffffffffffffffffffffffffffffffffffffffff\n      and\n      mul\n      or\n      swap1\n      sstore\n      pop\n        /* \"Cyfrin Updraft Challenges/3.24.sol\":792:801  msg.value */\n      callvalue\n        /* \"Cyfrin Updraft Challenges/3.24.sol\":755:776  addressToAmountFunded */\n      0x01\n        /* \"Cyfrin Updraft Challenges/3.24.sol\":755:788  addressToAmountFunded[msg.sender] */\n      0x00\n        /* \"Cyfrin Updraft Challenges/3.24.sol\":777:787  msg.sender */\n      caller\n        /* \"Cyfrin Updraft Challenges/3.24.sol\":755:788  addressToAmountFunded[msg.sender] */\n      0xffffffffffffffffffffffffffffffffffffffff\n      and\n      0xffffffffffffffffffffffffffffffffffffffff\n      and\n      dup2\n      mstore\n      0x20\n      add\n      swap1\n      dup2\n      mstore\n      0x20\n      add\n      0x00\n      keccak256\n      0x00\n        /* \"Cyfrin Updraft Challenges/3.24.sol\":755:801  addressToAmountFunded[msg.sender] += msg.value */\n      dup3\n      dup3\n      sload\n      tag_44\n      swap2\n      swap1\n      tag_45\n      jump\t// in\n    tag_44:\n      swap3\n      pop\n      pop\n      dup2\n      swap1\n      sstore\n      pop\n        /* \"Cyfrin Updraft Challenges/3.24.sol\":585:810  function fund() public payable {... */\n      jump\t// out\n        /* \"PriceConverter.sol\":584:803  function getConversionRate(uint256 ethAmount) internal view returns(uint256){... */\n    tag_39:\n        /* \"PriceConverter.sol\":652:659  uint256 */\n      0x00\n        /* \"PriceConverter.sol\":671:687  uint256 ethPrice */\n      0x00\n        /* \"PriceConverter.sol\":690:700  getPrice() */\n      tag_47\n        /* \"PriceConverter.sol\":690:698  getPrice */\n      tag_48\n        /* \"PriceConverter.sol\":690:700  getPrice() */\n      jump\t// in\n    tag_47:\n        /* \"PriceConverter.sol\":671:700  uint256 ethPrice = getPrice() */\n      swap1\n      pop\n        /* \"PriceConverter.sol\":711:733  uint256 ethAmountInUSD */\n      0x00\n        /* \"PriceConverter.sol\":758:762  1e18 */\n      0x0de0b6b3a7640000\n        /* \"PriceConverter.sol\":746:755  ethAmount */\n      dup5\n        /* \"PriceConverter.sol\":737:745  ethPrice */\n      dup4\n        /* \"PriceConverter.sol\":737:755  ethPrice*ethAmount */\n      tag_49\n      swap2\n      swap1\n      tag_50\n      jump\t// in\n    tag_49:\n        /* \"PriceConverter.sol\":736:762  (ethPrice*ethAmount)/ 1e18 */\n      tag_51\n      swap2\n      swap1\n      tag_52\n      jump\t// in\n    tag_51:\n        /* \"PriceConverter.sol\":711:762  uint256 ethAmountInUSD = (ethPrice*ethAmount)/ 1e18 */\n      swap1\n      pop\n        /* \"PriceConverter.sol\":780:794  ethAmountInUSD */\n      dup1\n        /* \"PriceConverter.sol\":773:794  return ethAmountInUSD */\n      swap3\n      pop\n      pop\n      pop\n        /* \"PriceConverter.sol\":584:803  function getConversionRate(uint256 ethAmount) internal view returns(uint256){... */\n      swap2\n      swap1\n      pop\n      jump\t// out\n        /* \"PriceConverter.sol\":263:521  function getPrice() internal view returns(uint) {... */\n    tag_48:\n        /* \"PriceConverter.sol\":305:309  uint */\n      0x00\n        /* \"PriceConverter.sol\":322:353  AggregatorV3Interface priceFeed */\n      0x00\n        /* \"PriceConverter.sol\":378:420  0x1b44F3514812d835EB1BDB0acB33d3fA3351Ee43 */\n      0x1b44f3514812d835eb1bdb0acb33d3fa3351ee43\n        /* \"PriceConverter.sol\":322:421  AggregatorV3Interface priceFeed = AggregatorV3Interface(0x1b44F3514812d835EB1BDB0acB33d3fA3351Ee43) */\n      swap1\n      pop\n        /* \"PriceConverter.sol\":434:443  int price */\n      0x00\n        /* \"PriceConverter.sol\":450:459  priceFeed */\n      dup2\n        /* \"PriceConverter.sol\":450:475  priceFeed.latestRoundData */\n      0xffffffffffffffffffffffffffffffffffffffff\n      and\n      0xfeaf968c\n        /* \"PriceConverter.sol\":450:477  priceFeed.latestRoundData() */\n      mload(0x40)\n      dup2\n      0xffffffff\n      and\n      0xe0\n      shl\n      dup2\n      mstore\n      0x04\n      add\n      0xa0\n      mload(0x40)\n      dup1\n      dup4\n      sub\n      dup2\n      dup7\n      gas\n      staticcall\n      iszero\n      dup1\n      iszero\n      tag_55\n      jumpi\n      returndatacopy(0x00, 0x00, returndatasize)\n      revert(0x00, returndatasize)\n    tag_55:\n      pop\n      pop\n      pop\n      pop\n      mload(0x40)\n      returndatasize\n      not(0x1f)\n      0x1f\n      dup3\n      add\n      and\n      dup3\n      add\n      dup1\n      0x40\n      mstore\n      pop\n      dup2\n      add\n      swap1\n      tag_56\n      swap2\n      swap1\n      tag_57\n      jump\t// in\n    tag_56:\n        /* \"PriceConverter.sol\":432:477  (,int price,,,) = priceFeed.latestRoundData() */\n      pop\n      pop\n      pop\n      swap2\n      pop\n      pop\n        /* \"PriceConverter.sol\":509:513  1e10 */\n      0x02540be400\n        /* \"PriceConverter.sol\":500:505  price */\n      dup2\n        /* \"PriceConverter.sol\":495:513  uint(price) * 1e10 */\n      tag_58\n      swap2\n      swap1\n      tag_50\n      jump\t// in\n    tag_58:\n        /* \"PriceConverter.sol\":488:513  return uint(price) * 1e10 */\n      swap3\n      pop\n      pop\n      pop\n        /* \"PriceConverter.sol\":263:521  function getPrice() internal view returns(uint) {... */\n      swap1\n      jump\t// out\n    tag_28:\n      dup3\n      dup1\n      sload\n      dup3\n      dup3\n      sstore\n      swap1\n      0x00\n      mstore\n      keccak256(0x00, 0x20)\n      swap1\n      dup2\n      add\n      swap3\n      dup3\n      iszero\n      tag_59\n      jumpi\n      swap2\n      0x20\n      mul\n      dup3\n      add\n    tag_60:\n      dup3\n      dup2\n      gt\n      iszero\n      tag_61\n      jumpi\n      dup3\n      mload\n      dup3\n      exp(0x0100, 0x00)\n      dup2\n      sload\n      dup2\n      0xffffffffffffffffffffffffffffffffffffffff\n      mul\n      not\n      and\n      swap1\n      dup4\n      0xffffffffffffffffffffffffffffffffffffffff\n      and\n      mul\n      or\n      swap1\n      sstore\n      pop\n      swap2\n      0x20\n      add\n      swap2\n      swap1\n      0x01\n      add\n      swap1\n      jump(tag_60)\n    tag_61:\n    tag_59:\n      pop\n      swap1\n      pop\n      tag_62\n      swap2\n      swap1\n      tag_63\n      jump\t// in\n    tag_62:\n      pop\n      swap1\n      jump\t// out\n    tag_63:\n    tag_64:\n      dup1\n      dup3\n      gt\n      iszero\n      tag_65\n      jumpi\n      0x00\n      dup2\n      0x00\n      swap1\n      sstore\n      pop\n      0x01\n      add\n      jump(tag_64)\n    tag_65:\n      pop\n      swap1\n      jump\t// out\n        /* \"#utility.yul\":7:176   */\n    tag_66:\n        /* \"#utility.yul\":91:102   */\n      0x00\n        /* \"#utility.yul\":125:131   */\n      dup3\n        /* \"#utility.yul\":120:123   */\n      dup3\n        /* \"#utility.yul\":113:132   */\n      mstore\n        /* \"#utility.yul\":165:169   */\n      0x20\n        /* \"#utility.yul\":160:163   */\n      dup3\n        /* \"#utility.yul\":156:170   */\n      add\n        /* \"#utility.yul\":141:170   */\n      swap1\n      pop\n        /* \"#utility.yul\":7:176   */\n      swap3\n      swap2\n      pop\n      pop\n      jump\t// out\n        /* \"#utility.yul\":182:341   */\n    tag_67:\n        /* \"#utility.yul\":322:333   */\n      0x4e6f74204f776e65720000000000000000000000000000000000000000000000\n        /* \"#utility.yul\":318:319   */\n      0x00\n        /* \"#utility.yul\":310:316   */\n      dup3\n        /* \"#utility.yul\":306:320   */\n      add\n        /* \"#utility.yul\":299:334   */\n      mstore\n        /* \"#utility.yul\":182:341   */\n      pop\n      jump\t// out\n        /* \"#utility.yul\":347:712   */\n    tag_68:\n        /* \"#utility.yul\":489:492   */\n      0x00\n        /* \"#utility.yul\":510:576   */\n      tag_94\n        /* \"#utility.yul\":574:575   */\n      0x09\n        /* \"#utility.yul\":569:572   */\n      dup4\n        /* \"#utility.yul\":510:576   */\n      tag_66\n      jump\t// in\n    tag_94:\n        /* \"#utility.yul\":503:576   */\n      swap2\n      pop\n        /* \"#utility.yul\":585:678   */\n      tag_95\n        /* \"#utility.yul\":674:677   */\n      dup3\n        /* \"#utility.yul\":585:678   */\n      tag_67\n      jump\t// in\n    tag_95:\n        /* \"#utility.yul\":703:705   */\n      0x20\n        /* \"#utility.yul\":698:701   */\n      dup3\n        /* \"#utility.yul\":694:706   */\n      add\n        /* \"#utility.yul\":687:706   */\n      swap1\n      pop\n        /* \"#utility.yul\":347:712   */\n      swap2\n      swap1\n      pop\n      jump\t// out\n        /* \"#utility.yul\":718:1137   */\n    tag_12:\n        /* \"#utility.yul\":884:888   */\n      0x00\n        /* \"#utility.yul\":922:924   */\n      0x20\n        /* \"#utility.yul\":911:920   */\n      dup3\n        /* \"#utility.yul\":907:925   */\n      add\n        /* \"#utility.yul\":899:925   */\n      swap1\n      pop\n        /* \"#utility.yul\":971:980   */\n      dup2\n        /* \"#utility.yul\":965:969   */\n      dup2\n        /* \"#utility.yul\":961:981   */\n      sub\n        /* \"#utility.yul\":957:958   */\n      0x00\n        /* \"#utility.yul\":946:955   */\n      dup4\n        /* \"#utility.yul\":942:959   */\n      add\n        /* \"#utility.yul\":935:982   */\n      mstore\n        /* \"#utility.yul\":999:1130   */\n      tag_97\n        /* \"#utility.yul\":1125:1129   */\n      dup2\n        /* \"#utility.yul\":999:1130   */\n      tag_68\n      jump\t// in\n    tag_97:\n        /* \"#utility.yul\":991:1130   */\n      swap1\n      pop\n        /* \"#utility.yul\":718:1137   */\n      swap2\n      swap1\n      pop\n      jump\t// out\n        /* \"#utility.yul\":1143:1323   */\n    tag_19:\n        /* \"#utility.yul\":1191:1268   */\n      0x4e487b7100000000000000000000000000000000000000000000000000000000\n        /* \"#utility.yul\":1188:1189   */\n      0x00\n        /* \"#utility.yul\":1181:1269   */\n      mstore\n        /* \"#utility.yul\":1288:1292   */\n      0x32\n        /* \"#utility.yul\":1285:1286   */\n      0x04\n        /* \"#utility.yul\":1278:1293   */\n      mstore\n        /* \"#utility.yul\":1312:1316   */\n      0x24\n        /* \"#utility.yul\":1309:1310   */\n      0x00\n        /* \"#utility.yul\":1302:1317   */\n      revert\n        /* \"#utility.yul\":1329:1509   */\n    tag_69:\n        /* \"#utility.yul\":1377:1454   */\n      0x4e487b7100000000000000000000000000000000000000000000000000000000\n        /* \"#utility.yul\":1374:1375   */\n      0x00\n        /* \"#utility.yul\":1367:1455   */\n      mstore\n        /* \"#utility.yul\":1474:1478   */\n      0x11\n        /* \"#utility.yul\":1471:1472   */\n      0x04\n        /* \"#utility.yul\":1464:1479   */\n      mstore\n        /* \"#utility.yul\":1498:1502   */\n      0x24\n        /* \"#utility.yul\":1495:1496   */\n      0x00\n        /* \"#utility.yul\":1488:1503   */\n      revert\n        /* \"#utility.yul\":1515:1592   */\n    tag_70:\n        /* \"#utility.yul\":1552:1559   */\n      0x00\n        /* \"#utility.yul\":1581:1586   */\n      dup2\n        /* \"#utility.yul\":1570:1586   */\n      swap1\n      pop\n        /* \"#utility.yul\":1515:1592   */\n      swap2\n      swap1\n      pop\n      jump\t// out\n        /* \"#utility.yul\":1598:1831   */\n    tag_22:\n        /* \"#utility.yul\":1637:1640   */\n      0x00\n        /* \"#utility.yul\":1660:1684   */\n      tag_102\n        /* \"#utility.yul\":1678:1683   */\n      dup3\n        /* \"#utility.yul\":1660:1684   */\n      tag_70\n      jump\t// in\n    tag_102:\n        /* \"#utility.yul\":1651:1684   */\n      swap2\n      pop\n        /* \"#utility.yul\":1706:1772   */\n      0xffffffffffffffffffffffffffffffffffffffffffffffffffffffffffffffff\n        /* \"#utility.yul\":1699:1704   */\n      dup3\n        /* \"#utility.yul\":1696:1773   */\n      sub\n        /* \"#utility.yul\":1693:1796   */\n      tag_103\n      jumpi\n        /* \"#utility.yul\":1776:1794   */\n      tag_104\n      tag_69\n      jump\t// in\n    tag_104:\n        /* \"#utility.yul\":1693:1796   */\n    tag_103:\n        /* \"#utility.yul\":1823:1824   */\n      0x01\n        /* \"#utility.yul\":1816:1821   */\n      dup3\n        /* \"#utility.yul\":1812:1825   */\n      add\n        /* \"#utility.yul\":1805:1825   */\n      swap1\n      pop\n        /* \"#utility.yul\":1598:1831   */\n      swap2\n      swap1\n      pop\n      jump\t// out\n        /* \"#utility.yul\":1837:2017   */\n    tag_25:\n        /* \"#utility.yul\":1885:1962   */\n      0x4e487b7100000000000000000000000000000000000000000000000000000000\n        /* \"#utility.yul\":1882:1883   */\n      0x00\n        /* \"#utility.yul\":1875:1963   */\n      mstore\n        /* \"#utility.yul\":1982:1986   */\n      0x41\n        /* \"#utility.yul\":1979:1980   */\n      0x04\n        /* \"#utility.yul\":1972:1987   */\n      mstore\n        /* \"#utility.yul\":2006:2010   */\n      0x24\n        /* \"#utility.yul\":2003:2004   */\n      0x00\n        /* \"#utility.yul\":1996:2011   */\n      revert\n        /* \"#utility.yul\":2023:2170   */\n    tag_71:\n        /* \"#utility.yul\":2124:2135   */\n      0x00\n        /* \"#utility.yul\":2161:2164   */\n      dup2\n        /* \"#utility.yul\":2146:2164   */\n      swap1\n      pop\n        /* \"#utility.yul\":2023:2170   */\n      swap3\n      swap2\n      pop\n      pop\n      jump\t// out\n        /* \"#utility.yul\":2176:2290   */\n    tag_72:\n      pop\n      jump\t// out\n        /* \"#utility.yul\":2296:2694   */\n    tag_73:\n        /* \"#utility.yul\":2455:2458   */\n      0x00\n        /* \"#utility.yul\":2476:2559   */\n      tag_109\n        /* \"#utility.yul\":2557:2558   */\n      0x00\n        /* \"#utility.yul\":2552:2555   */\n      dup4\n        /* \"#utility.yul\":2476:2559   */\n      tag_71\n      jump\t// in\n    tag_109:\n        /* \"#utility.yul\":2469:2559   */\n      swap2\n      pop\n        /* \"#utility.yul\":2568:2661   */\n      tag_110\n        /* \"#utility.yul\":2657:2660   */\n      dup3\n        /* \"#utility.yul\":2568:2661   */\n      tag_72\n      jump\t// in\n    tag_110:\n        /* \"#utility.yul\":2686:2687   */\n      0x00\n        /* \"#utility.yul\":2681:2684   */\n      dup3\n        /* \"#utility.yul\":2677:2688   */\n      add\n        /* \"#utility.yul\":2670:2688   */\n      swap1\n      pop\n        /* \"#utility.yul\":2296:2694   */\n      swap2\n      swap1\n      pop\n      jump\t// out\n        /* \"#utility.yul\":2700:3079   */\n    tag_30:\n        /* \"#utility.yul\":2884:2887   */\n      0x00\n        /* \"#utility.yul\":2906:3053   */\n      tag_112\n        /* \"#utility.yul\":3049:3052   */\n      dup3\n        /* \"#utility.yul\":2906:3053   */\n      tag_73\n      jump\t// in\n    tag_112:\n        /* \"#utility.yul\":2899:3053   */\n      swap2\n      pop\n        /* \"#utility.yul\":3070:3073   */\n      dup2\n        /* \"#utility.yul\":3063:3073   */\n      swap1\n      pop\n        /* \"#utility.yul\":2700:3079   */\n      swap2\n      swap1\n      pop\n      jump\t// out\n        /* \"#utility.yul\":3085:3246   */\n    tag_74:\n        /* \"#utility.yul\":3225:3238   */\n      0x43616c6c206661696c6564000000000000000000000000000000000000000000\n        /* \"#utility.yul\":3221:3222   */\n      0x00\n        /* \"#utility.yul\":3213:3219   */\n      dup3\n        /* \"#utility.yul\":3209:3223   */\n      add\n        /* \"#utility.yul\":3202:3239   */\n      mstore\n        /* \"#utility.yul\":3085:3246   */\n      pop\n      jump\t// out\n        /* \"#utility.yul\":3252:3618   */\n    tag_75:\n        /* \"#utility.yul\":3394:3397   */\n      0x00\n        /* \"#utility.yul\":3415:3482   */\n      tag_115\n        /* \"#utility.yul\":3479:3481   */\n      0x0b\n        /* \"#utility.yul\":3474:3477   */\n      dup4\n        /* \"#utility.yul\":3415:3482   */\n      tag_66\n      jump\t// in\n    tag_115:\n        /* \"#utility.yul\":3408:3482   */\n      swap2\n      pop\n        /* \"#utility.yul\":3491:3584   */\n      tag_116\n        /* \"#utility.yul\":3580:3583   */\n      dup3\n        /* \"#utility.yul\":3491:3584   */\n      tag_74\n      jump\t// in\n    tag_116:\n        /* \"#utility.yul\":3609:3611   */\n      0x20\n        /* \"#utility.yul\":3604:3607   */\n      dup3\n        /* \"#utility.yul\":3600:3612   */\n      add\n        /* \"#utility.yul\":3593:3612   */\n      swap1\n      pop\n        /* \"#utility.yul\":3252:3618   */\n      swap2\n      swap1\n      pop\n      jump\t// out\n        /* \"#utility.yul\":3624:4043   */\n    tag_36:\n        /* \"#utility.yul\":3790:3794   */\n      0x00\n        /* \"#utility.yul\":3828:3830   */\n      0x20\n        /* \"#utility.yul\":3817:3826   */\n      dup3\n        /* \"#utility.yul\":3813:3831   */\n      add\n        /* \"#utility.yul\":3805:3831   */\n      swap1\n      pop\n        /* \"#utility.yul\":3877:3886   */\n      dup2\n        /* \"#utility.yul\":3871:3875   */\n      dup2\n        /* \"#utility.yul\":3867:3887   */\n      sub\n        /* \"#utility.yul\":3863:3864   */\n      0x00\n        /* \"#utility.yul\":3852:3861   */\n      dup4\n        /* \"#utility.yul\":3848:3865   */\n      add\n        /* \"#utility.yul\":3841:3888   */\n      mstore\n        /* \"#utility.yul\":3905:4036   */\n      tag_118\n        /* \"#utility.yul\":4031:4035   */\n      dup2\n        /* \"#utility.yul\":3905:4036   */\n      tag_75\n      jump\t// in\n    tag_118:\n        /* \"#utility.yul\":3897:4036   */\n      swap1\n      pop\n        /* \"#utility.yul\":3624:4043   */\n      swap2\n      swap1\n      pop\n      jump\t// out\n        /* \"#utility.yul\":4049:4223   */\n    tag_76:\n        /* \"#utility.yul\":4189:4215   */\n      0x6c657373207468616e203520646f6c6c6172732073656e740000000000000000\n        /* \"#utility.yul\":4185:4186   */\n      0x00\n        /* \"#utility.yul\":4177:4183   */\n      dup3\n        /* \"#utility.yul\":4173:4187   */\n      add\n        /* \"#utility.yul\":4166:4216   */\n      mstore\n        /* \"#utility.yul\":4049:4223   */\n      pop\n      jump\t// out\n        /* \"#utility.yul\":4229:4595   */\n    tag_77:\n        /* \"#utility.yul\":4371:4374   */\n      0x00\n        /* \"#utility.yul\":4392:4459   */\n      tag_121\n        /* \"#utility.yul\":4456:4458   */\n      0x18\n        /* \"#utility.yul\":4451:4454   */\n      dup4\n        /* \"#utility.yul\":4392:4459   */\n      tag_66\n      jump\t// in\n    tag_121:\n        /* \"#utility.yul\":4385:4459   */\n      swap2\n      pop\n        /* \"#utility.yul\":4468:4561   */\n      tag_122\n        /* \"#utility.yul\":4557:4560   */\n      dup3\n        /* \"#utility.yul\":4468:4561   */\n      tag_76\n      jump\t// in\n    tag_122:\n        /* \"#utility.yul\":4586:4588   */\n      0x20\n        /* \"#utility.yul\":4581:4584   */\n      dup3\n        /* \"#utility.yul\":4577:4589   */\n      add\n        /* \"#utility.yul\":4570:4589   */\n      swap1\n      pop\n        /* \"#utility.yul\":4229:4595   */\n      swap2\n      swap1\n      pop\n      jump\t// out\n        /* \"#utility.yul\":4601:5020   */\n    tag_42:\n        /* \"#utility.yul\":4767:4771   */\n      0x00\n        /* \"#utility.yul\":4805:4807   */\n      0x20\n        /* \"#utility.yul\":4794:4803   */\n      dup3\n        /* \"#utility.yul\":4790:4808   */\n      add\n        /* \"#utility.yul\":4782:4808   */\n      swap1\n      pop\n        /* \"#utility.yul\":4854:4863   */\n      dup2\n        /* \"#utility.yul\":4848:4852   */\n      dup2\n        /* \"#utility.yul\":4844:4864   */\n      sub\n        /* \"#utility.yul\":4840:4841   */\n      0x00\n        /* \"#utility.yul\":4829:4838   */\n      dup4\n        /* \"#utility.yul\":4825:4842   */\n      add\n        /* \"#utility.yul\":4818:4865   */\n      mstore\n        /* \"#utility.yul\":4882:5013   */\n      tag_124\n        /* \"#utility.yul\":5008:5012   */\n      dup2\n        /* \"#utility.yul\":4882:5013   */\n      tag_77\n      jump\t// in\n    tag_124:\n        /* \"#utility.yul\":4874:5013   */\n      swap1\n      pop\n        /* \"#utility.yul\":4601:5020   */\n      swap2\n      swap1\n      pop\n      jump\t// out\n        /* \"#utility.yul\":5026:5217   */\n    tag_45:\n        /* \"#utility.yul\":5066:5069   */\n      0x00\n        /* \"#utility.yul\":5085:5105   */\n      tag_126\n        /* \"#utility.yul\":5103:5104   */\n      dup3\n        /* \"#utility.yul\":5085:5105   */\n      tag_70\n      jump\t// in\n    tag_126:\n        /* \"#utility.yul\":5080:5105   */\n      swap2\n      pop\n        /* \"#utility.yul\":5119:5139   */\n      tag_127\n        /* \"#utility.yul\":5137:5138   */\n      dup4\n        /* \"#utility.yul\":5119:5139   */\n      tag_70\n      jump\t// in\n    tag_127:\n        /* \"#utility.yul\":5114:5139   */\n      swap3\n      pop\n        /* \"#utility.yul\":5162:5163   */\n      dup3\n        /* \"#utility.yul\":5159:5160   */\n      dup3\n        /* \"#utility.yul\":5155:5164   */\n      add\n        /* \"#utility.yul\":5148:5164   */\n      swap1\n      pop\n        /* \"#utility.yul\":5183:5186   */\n      dup1\n        /* \"#utility.yul\":5180:5181   */\n      dup3\n        /* \"#utility.yul\":5177:5187   */\n      gt\n        /* \"#utility.yul\":5174:5210   */\n      iszero\n      tag_128\n      jumpi\n        /* \"#utility.yul\":5190:5208   */\n      tag_129\n      tag_69\n      jump\t// in\n    tag_129:\n        /* \"#utility.yul\":5174:5210   */\n    tag_128:\n        /* \"#utility.yul\":5026:5217   */\n      swap3\n      swap2\n      pop\n      pop\n      jump\t// out\n        /* \"#utility.yul\":5223:5633   */\n    tag_50:\n        /* \"#utility.yul\":5263:5270   */\n      0x00\n        /* \"#utility.yul\":5286:5306   */\n      tag_131\n        /* \"#utility.yul\":5304:5305   */\n      dup3\n        /* \"#utility.yul\":5286:5306   */\n      tag_70\n      jump\t// in\n    tag_131:\n        /* \"#utility.yul\":5281:5306   */\n      swap2\n      pop\n        /* \"#utility.yul\":5320:5340   */\n      tag_132\n        /* \"#utility.yul\":5338:5339   */\n      dup4\n        /* \"#utility.yul\":5320:5340   */\n      tag_70\n      jump\t// in\n    tag_132:\n        /* \"#utility.yul\":5315:5340   */\n      swap3\n      pop\n        /* \"#utility.yul\":5375:5376   */\n      dup3\n        /* \"#utility.yul\":5372:5373   */\n      dup3\n        /* \"#utility.yul\":5368:5377   */\n      mul\n        /* \"#utility.yul\":5397:5427   */\n      tag_133\n        /* \"#utility.yul\":5415:5426   */\n      dup2\n        /* \"#utility.yul\":5397:5427   */\n      tag_70\n      jump\t// in\n    tag_133:\n        /* \"#utility.yul\":5386:5427   */\n      swap2\n      pop\n        /* \"#utility.yul\":5576:5577   */\n      dup3\n        /* \"#utility.yul\":5567:5574   */\n      dup3\n        /* \"#utility.yul\":5563:5578   */\n      div\n        /* \"#utility.yul\":5560:5561   */\n      dup5\n        /* \"#utility.yul\":5557:5579   */\n      eq\n        /* \"#utility.yul\":5537:5538   */\n      dup4\n        /* \"#utility.yul\":5530:5539   */\n      iszero\n        /* \"#utility.yul\":5510:5593   */\n      or\n        /* \"#utility.yul\":5487:5626   */\n      tag_134\n      jumpi\n        /* \"#utility.yul\":5606:5624   */\n      tag_135\n      tag_69\n      jump\t// in\n    tag_135:\n        /* \"#utility.yul\":5487:5626   */\n    tag_134:\n        /* \"#utility.yul\":5271:5633   */\n      pop\n        /* \"#utility.yul\":5223:5633   */\n      swap3\n      swap2\n      pop\n      pop\n      jump\t// out\n        /* \"#utility.yul\":5639:5819   */\n    tag_78:\n        /* \"#utility.yul\":5687:5764   */\n      0x4e487b7100000000000000000000000000000000000000000000000000000000\n        /* \"#utility.yul\":5684:5685   */\n      0x00\n        /* \"#utility.yul\":5677:5765   */\n      mstore\n        /* \"#utility.yul\":5784:5788   */\n      0x12\n        /* \"#utility.yul\":5781:5782   */\n      0x04\n        /* \"#utility.yul\":5774:5789   */\n      mstore\n        /* \"#utility.yul\":5808:5812   */\n      0x24\n        /* \"#utility.yul\":5805:5806   */\n      0x00\n        /* \"#utility.yul\":5798:5813   */\n      revert\n        /* \"#utility.yul\":5825:6010   */\n    tag_52:\n        /* \"#utility.yul\":5865:5866   */\n      0x00\n        /* \"#utility.yul\":5882:5902   */\n      tag_138\n        /* \"#utility.yul\":5900:5901   */\n      dup3\n        /* \"#utility.yul\":5882:5902   */\n      tag_70\n      jump\t// in\n    tag_138:\n        /* \"#utility.yul\":5877:5902   */\n      swap2\n      pop\n        /* \"#utility.yul\":5916:5936   */\n      tag_139\n        /* \"#utility.yul\":5934:5935   */\n      dup4\n        /* \"#utility.yul\":5916:5936   */\n      tag_70\n      jump\t// in\n    tag_139:\n        /* \"#utility.yul\":5911:5936   */\n      swap3\n      pop\n        /* \"#utility.yul\":5955:5956   */\n      dup3\n        /* \"#utility.yul\":5945:5980   */\n      tag_140\n      jumpi\n        /* \"#utility.yul\":5960:5978   */\n      tag_141\n      tag_78\n      jump\t// in\n    tag_141:\n        /* \"#utility.yul\":5945:5980   */\n    tag_140:\n        /* \"#utility.yul\":6002:6003   */\n      dup3\n        /* \"#utility.yul\":5999:6000   */\n      dup3\n        /* \"#utility.yul\":5995:6004   */\n      div\n        /* \"#utility.yul\":5990:6004   */\n      swap1\n      pop\n        /* \"#utility.yul\":5825:6010   */\n      swap3\n      swap2\n      pop\n      pop\n      jump\t// out\n        /* \"#utility.yul\":6097:6214   */\n    tag_80:\n        /* \"#utility.yul\":6206:6207   */\n      0x00\n        /* \"#utility.yul\":6203:6204   */\n      0x00\n        /* \"#utility.yul\":6196:6208   */\n      revert\n        /* \"#utility.yul\":6343:6448   */\n    tag_82:\n        /* \"#utility.yul\":6379:6386   */\n      0x00\n        /* \"#utility.yul\":6419:6441   */\n      0xffffffffffffffffffff\n        /* \"#utility.yul\":6412:6417   */\n      dup3\n        /* \"#utility.yul\":6408:6442   */\n      and\n        /* \"#utility.yul\":6397:6442   */\n      swap1\n      pop\n        /* \"#utility.yul\":6343:6448   */\n      swap2\n      swap1\n      pop\n      jump\t// out\n        /* \"#utility.yul\":6454:6574   */\n    tag_83:\n        /* \"#utility.yul\":6526:6549   */\n      tag_147\n        /* \"#utility.yul\":6543:6548   */\n      dup2\n        /* \"#utility.yul\":6526:6549   */\n      tag_82\n      jump\t// in\n    tag_147:\n        /* \"#utility.yul\":6519:6524   */\n      dup2\n        /* \"#utility.yul\":6516:6550   */\n      eq\n        /* \"#utility.yul\":6506:6568   */\n      tag_148\n      jumpi\n        /* \"#utility.yul\":6564:6565   */\n      0x00\n        /* \"#utility.yul\":6561:6562   */\n      0x00\n        /* \"#utility.yul\":6554:6566   */\n      revert\n        /* \"#utility.yul\":6506:6568   */\n    tag_148:\n        /* \"#utility.yul\":6454:6574   */\n      pop\n      jump\t// out\n        /* \"#utility.yul\":6580:6721   */\n    tag_84:\n        /* \"#utility.yul\":6636:6641   */\n      0x00\n        /* \"#utility.yul\":6667:6673   */\n      dup2\n        /* \"#utility.yul\":6661:6674   */\n      mload\n        /* \"#utility.yul\":6652:6674   */\n      swap1\n      pop\n        /* \"#utility.yul\":6683:6715   */\n      tag_150\n        /* \"#utility.yul\":6709:6714   */\n      dup2\n        /* \"#utility.yul\":6683:6715   */\n      tag_83\n      jump\t// in\n    tag_150:\n        /* \"#utility.yul\":6580:6721   */\n      swap3\n      swap2\n      pop\n      pop\n      jump\t// out\n        /* \"#utility.yul\":6727:6803   */\n    tag_85:\n        /* \"#utility.yul\":6763:6770   */\n      0x00\n        /* \"#utility.yul\":6792:6797   */\n      dup2\n        /* \"#utility.yul\":6781:6797   */\n      swap1\n      pop\n        /* \"#utility.yul\":6727:6803   */\n      swap2\n      swap1\n      pop\n      jump\t// out\n        /* \"#utility.yul\":6809:6929   */\n    tag_86:\n        /* \"#utility.yul\":6881:6904   */\n      tag_153\n        /* \"#utility.yul\":6898:6903   */\n      dup2\n        /* \"#utility.yul\":6881:6904   */\n      tag_85\n      jump\t// in\n    tag_153:\n        /* \"#utility.yul\":6874:6879   */\n      dup2\n        /* \"#utility.yul\":6871:6905   */\n      eq\n        /* \"#utility.yul\":6861:6923   */\n      tag_154\n      jumpi\n        /* \"#utility.yul\":6919:6920   */\n      0x00\n        /* \"#utility.yul\":6916:6917   */\n      0x00\n        /* \"#utility.yul\":6909:6921   */\n      revert\n        /* \"#utility.yul\":6861:6923   */\n    tag_154:\n        /* \"#utility.yul\":6809:6929   */\n      pop\n      jump\t// out\n        /* \"#utility.yul\":6935:7076   */\n    tag_87:\n        /* \"#utility.yul\":6991:6996   */\n      0x00\n        /* \"#utility.yul\":7022:7028   */\n      dup2\n        /* \"#utility.yul\":7016:7029   */\n      mload\n        /* \"#utility.yul\":7007:7029   */\n      swap1\n      pop\n        /* \"#utility.yul\":7038:7070   */\n      tag_156\n        /* \"#utility.yul\":7064:7069   */\n      dup2\n        /* \"#utility.yul\":7038:7070   */\n      tag_86\n      jump\t// in\n    tag_156:\n        /* \"#utility.yul\":6935:7076   */\n      swap3\n      swap2\n      pop\n      pop\n      jump\t// out\n        /* \"#utility.yul\":7082:7204   */\n    tag_88:\n        /* \"#utility.yul\":7155:7179   */\n      tag_158\n        /* \"#utility.yul\":7173:7178   */\n      dup2\n        /* \"#utility.yul\":7155:7179   */\n      tag_70\n      jump\t// in\n    tag_158:\n        /* \"#utility.yul\":7148:7153   */\n      dup2\n        /* \"#utility.yul\":7145:7180   */\n      eq\n        /* \"#utility.yul\":7135:7198   */\n      tag_159\n      jumpi\n        /* \"#utility.yul\":7194:7195   */\n      0x00\n        /* \"#utility.yul\":7191:7192   */\n      0x00\n        /* \"#utility.yul\":7184:7196   */\n      revert\n        /* \"#utility.yul\":7135:7198   */\n    tag_159:\n        /* \"#utility.yul\":7082:7204   */\n      pop\n      jump\t// out\n        /* \"#utility.yul\":7210:7353   */\n    tag_89:\n        /* \"#utility.yul\":7267:7272   */\n      0x00\n        /* \"#utility.yul\":7298:7304   */\n      dup2\n        /* \"#utility.yul\":7292:7305   */\n      mload\n        /* \"#utility.yul\":7283:7305   */\n      swap1\n      pop\n        /* \"#utility.yul\":7314:7347   */\n      tag_161\n        /* \"#utility.yul\":7341:7346   */\n      dup2\n        /* \"#utility.yul\":7314:7347   */\n      tag_88\n      jump\t// in\n    tag_161:\n        /* \"#utility.yul\":7210:7353   */\n      swap3\n      swap2\n      pop\n      pop\n      jump\t// out\n        /* \"#utility.yul\":7359:8330   */\n    tag_57:\n        /* \"#utility.yul\":7462:7468   */\n      0x00\n        /* \"#utility.yul\":7470:7476   */\n      0x00\n        /* \"#utility.yul\":7478:7484   */\n      0x00\n        /* \"#utility.yul\":7486:7492   */\n      0x00\n        /* \"#utility.yul\":7494:7500   */\n      0x00\n        /* \"#utility.yul\":7543:7546   */\n      0xa0\n        /* \"#utility.yul\":7531:7540   */\n      dup7\n        /* \"#utility.yul\":7522:7529   */\n      dup9\n        /* \"#utility.yul\":7518:7541   */\n      sub\n        /* \"#utility.yul\":7514:7547   */\n      slt\n        /* \"#utility.yul\":7511:7631   */\n      iszero\n      tag_163\n      jumpi\n        /* \"#utility.yul\":7550:7629   */\n      tag_164\n      tag_80\n      jump\t// in\n    tag_164:\n        /* \"#utility.yul\":7511:7631   */\n    tag_163:\n        /* \"#utility.yul\":7670:7671   */\n      0x00\n        /* \"#utility.yul\":7695:7758   */\n      tag_165\n        /* \"#utility.yul\":7750:7757   */\n      dup9\n        /* \"#utility.yul\":7741:7747   */\n      dup3\n        /* \"#utility.yul\":7730:7739   */\n      dup10\n        /* \"#utility.yul\":7726:7748   */\n      add\n        /* \"#utility.yul\":7695:7758   */\n      tag_84\n      jump\t// in\n    tag_165:\n        /* \"#utility.yul\":7685:7758   */\n      swap6\n      pop\n        /* \"#utility.yul\":7641:7768   */\n      pop\n        /* \"#utility.yul\":7807:7809   */\n      0x20\n        /* \"#utility.yul\":7833:7896   */\n      tag_166\n        /* \"#utility.yul\":7888:7895   */\n      dup9\n        /* \"#utility.yul\":7879:7885   */\n      dup3\n        /* \"#utility.yul\":7868:7877   */\n      dup10\n        /* \"#utility.yul\":7864:7886   */\n      add\n        /* \"#utility.yul\":7833:7896   */\n      tag_87\n      jump\t// in\n    tag_166:\n        /* \"#utility.yul\":7823:7896   */\n      swap5\n      pop\n        /* \"#utility.yul\":7778:7906   */\n      pop\n        /* \"#utility.yul\":7945:7947   */\n      0x40\n        /* \"#utility.yul\":7971:8035   */\n      tag_167\n        /* \"#utility.yul\":8027:8034   */\n      dup9\n        /* \"#utility.yul\":8018:8024   */\n      dup3\n        /* \"#utility.yul\":8007:8016   */\n      dup10\n        /* \"#utility.yul\":8003:8025   */\n      add\n        /* \"#utility.yul\":7971:8035   */\n      tag_89\n      jump\t// in\n    tag_167:\n        /* \"#utility.yul\":7961:8035   */\n      swap4\n      pop\n        /* \"#utility.yul\":7916:8045   */\n      pop\n        /* \"#utility.yul\":8084:8086   */\n      0x60\n        /* \"#utility.yul\":8110:8174   */\n      tag_168\n        /* \"#utility.yul\":8166:8173   */\n      dup9\n        /* \"#utility.yul\":8157:8163   */\n      dup3\n        /* \"#utility.yul\":8146:8155   */\n      dup10\n        /* \"#utility.yul\":8142:8164   */\n      add\n        /* \"#utility.yul\":8110:8174   */\n      tag_89\n      jump\t// in\n    tag_168:\n        /* \"#utility.yul\":8100:8174   */\n      swap3\n      pop\n        /* \"#utility.yul\":8055:8184   */\n      pop\n        /* \"#utility.yul\":8223:8226   */\n      0x80\n        /* \"#utility.yul\":8250:8313   */\n      tag_169\n        /* \"#utility.yul\":8305:8312   */\n      dup9\n        /* \"#utility.yul\":8296:8302   */\n      dup3\n        /* \"#utility.yul\":8285:8294   */\n      dup10\n        /* \"#utility.yul\":8281:8303   */\n      add\n        /* \"#utility.yul\":8250:8313   */\n      tag_84\n      jump\t// in\n    tag_169:\n        /* \"#utility.yul\":8240:8313   */\n      swap2\n      pop\n        /* \"#utility.yul\":8194:8323   */\n      pop\n        /* \"#utility.yul\":7359:8330   */\n      swap3\n      swap6\n      pop\n      swap3\n      swap6\n      swap1\n      swap4\n      pop\n      jump\t// out\n\n    auxdata: 0xa264697066735822122019e03d04ae76c615c732baf50f1c15048bc7effcdab4e0d3fe2863dea46f9bdf64736f6c634300081b0033\n}\n",
				"bytecode": {
					"linkReferences": {},
					"object": "60c0604052348015600e575f5ffd5b503373ffffffffffffffffffffffffffffffffffffffff1660808173ffffffffffffffffffffffffffffffffffffffff168152505060805160a0516109836100605f395f50505f604e01526109835ff3fe608060405260043610610028575f3560e01c80633ccfd60b1461002c578063b60d428814610042575b5f5ffd5b348015610037575f5ffd5b5061004061004c565b005b61004a610286565b005b7f000000000000000000000000000000000000000000000000000000000000000073ffffffffffffffffffffffffffffffffffffffff163373ffffffffffffffffffffffffffffffffffffffff16146100da576040517f08c379a00000000000000000000000000000000000000000000000000000000081526004016100d19061055f565b60405180910390fd5b5f5b5f8054905081111561017c575f5f82815481106100fc576100fb61057d565b5b905f5260205f20015f9054906101000a900473ffffffffffffffffffffffffffffffffffffffff1690505f60015f8373ffffffffffffffffffffffffffffffffffffffff1673ffffffffffffffffffffffffffffffffffffffff1681526020019081526020015f2081905550508080610174906105e0565b9150506100dc565b5f67ffffffffffffffff81111561019657610195610627565b5b6040519080825280602002602001820160405280156101c45781602001602082028036833780820191505090505b505f90805190602001906101d9929190610463565b505f3373ffffffffffffffffffffffffffffffffffffffff16476040516101ff90610681565b5f6040518083038185875af1925050503d805f8114610239576040519150601f19603f3d011682016040523d82523d5f602084013e61023e565b606091505b5050905080610282576040517f08c379a0000000000000000000000000000000000000000000000000000000008152600401610279906106df565b60405180910390fd5b5050565b600561029134610386565b10156102d2576040517f08c379a00000000000000000000000000000000000000000000000000000000081526004016102c990610747565b60405180910390fd5b5f33908060018154018082558091505060019003905f5260205f20015f9091909190916101000a81548173ffffffffffffffffffffffffffffffffffffffff021916908373ffffffffffffffffffffffffffffffffffffffff1602179055503460015f3373ffffffffffffffffffffffffffffffffffffffff1673ffffffffffffffffffffffffffffffffffffffff1681526020019081526020015f205f82825461037d9190610765565b92505081905550565b5f5f6103906103be565b90505f670de0b6b3a764000084836103a89190610798565b6103b29190610806565b90508092505050919050565b5f5f731b44f3514812d835eb1bdb0acb33d3fa3351ee4390505f8173ffffffffffffffffffffffffffffffffffffffff1663feaf968c6040518163ffffffff1660e01b815260040160a060405180830381865afa158015610421573d5f5f3e3d5ffd5b505050506040513d601f19601f8201168201806040525081019061044591906108d6565b5050509150506402540be4008161045c9190610798565b9250505090565b828054828255905f5260205f209081019282156104d9579160200282015b828111156104d8578251825f6101000a81548173ffffffffffffffffffffffffffffffffffffffff021916908373ffffffffffffffffffffffffffffffffffffffff16021790555091602001919060010190610481565b5b5090506104e691906104ea565b5090565b5b80821115610501575f815f9055506001016104eb565b5090565b5f82825260208201905092915050565b7f4e6f74204f776e657200000000000000000000000000000000000000000000005f82015250565b5f610549600983610505565b915061055482610515565b602082019050919050565b5f6020820190508181035f8301526105768161053d565b9050919050565b7f4e487b71000000000000000000000000000000000000000000000000000000005f52603260045260245ffd5b7f4e487b71000000000000000000000000000000000000000000000000000000005f52601160045260245ffd5b5f819050919050565b5f6105ea826105d7565b91507fffffffffffffffffffffffffffffffffffffffffffffffffffffffffffffffff820361061c5761061b6105aa565b5b600182019050919050565b7f4e487b71000000000000000000000000000000000000000000000000000000005f52604160045260245ffd5b5f81905092915050565b50565b5f61066c5f83610654565b91506106778261065e565b5f82019050919050565b5f61068b82610661565b9150819050919050565b7f43616c6c206661696c65640000000000000000000000000000000000000000005f82015250565b5f6106c9600b83610505565b91506106d482610695565b602082019050919050565b5f6020820190508181035f8301526106f6816106bd565b9050919050565b7f6c657373207468616e203520646f6c6c6172732073656e7400000000000000005f82015250565b5f610731601883610505565b915061073c826106fd565b602082019050919050565b5f6020820190508181035f83015261075e81610725565b9050919050565b5f61076f826105d7565b915061077a836105d7565b9250828201905080821115610792576107916105aa565b5b92915050565b5f6107a2826105d7565b91506107ad836105d7565b92508282026107bb816105d7565b915082820484148315176107d2576107d16105aa565b5b5092915050565b7f4e487b71000000000000000000000000000000000000000000000000000000005f52601260045260245ffd5b5f610810826105d7565b915061081b836105d7565b92508261082b5761082a6107d9565b5b828204905092915050565b5f5ffd5b5f69ffffffffffffffffffff82169050919050565b6108588161083a565b8114610862575f5ffd5b50565b5f815190506108738161084f565b92915050565b5f819050919050565b61088b81610879565b8114610895575f5ffd5b50565b5f815190506108a681610882565b92915050565b6108b5816105d7565b81146108bf575f5ffd5b50565b5f815190506108d0816108ac565b92915050565b5f5f5f5f5f60a086880312156108ef576108ee610836565b5b5f6108fc88828901610865565b955050602061090d88828901610898565b945050604061091e888289016108c2565b935050606061092f888289016108c2565b925050608061094088828901610865565b915050929550929590935056fea264697066735822122019e03d04ae76c615c732baf50f1c15048bc7effcdab4e0d3fe2863dea46f9bdf64736f6c634300081b0033",
					"opcodes": "PUSH1 0xC0 PUSH1 0x40 MSTORE CALLVALUE DUP1 ISZERO PUSH1 0xE JUMPI PUSH0 PUSH0 REVERT JUMPDEST POP CALLER PUSH20 0xFFFFFFFFFFFFFFFFFFFFFFFFFFFFFFFFFFFFFFFF AND PUSH1 0x80 DUP2 PUSH20 0xFFFFFFFFFFFFFFFFFFFFFFFFFFFFFFFFFFFFFFFF AND DUP2 MSTORE POP POP PUSH1 0x80 MLOAD PUSH1 0xA0 MLOAD PUSH2 0x983 PUSH2 0x60 PUSH0 CODECOPY PUSH0 POP POP PUSH0 PUSH1 0x4E ADD MSTORE PUSH2 0x983 PUSH0 RETURN INVALID PUSH1 0x80 PUSH1 0x40 MSTORE PUSH1 0x4 CALLDATASIZE LT PUSH2 0x28 JUMPI PUSH0 CALLDATALOAD PUSH1 0xE0 SHR DUP1 PUSH4 0x3CCFD60B EQ PUSH2 0x2C JUMPI DUP1 PUSH4 0xB60D4288 EQ PUSH2 0x42 JUMPI JUMPDEST PUSH0 PUSH0 REVERT JUMPDEST CALLVALUE DUP1 ISZERO PUSH2 0x37 JUMPI PUSH0 PUSH0 REVERT JUMPDEST POP PUSH2 0x40 PUSH2 0x4C JUMP JUMPDEST STOP JUMPDEST PUSH2 0x4A PUSH2 0x286 JUMP JUMPDEST STOP JUMPDEST PUSH32 0x0 PUSH20 0xFFFFFFFFFFFFFFFFFFFFFFFFFFFFFFFFFFFFFFFF AND CALLER PUSH20 0xFFFFFFFFFFFFFFFFFFFFFFFFFFFFFFFFFFFFFFFF AND EQ PUSH2 0xDA JUMPI PUSH1 0x40 MLOAD PUSH32 0x8C379A000000000000000000000000000000000000000000000000000000000 DUP2 MSTORE PUSH1 0x4 ADD PUSH2 0xD1 SWAP1 PUSH2 0x55F JUMP JUMPDEST PUSH1 0x40 MLOAD DUP1 SWAP2 SUB SWAP1 REVERT JUMPDEST PUSH0 JUMPDEST PUSH0 DUP1 SLOAD SWAP1 POP DUP2 GT ISZERO PUSH2 0x17C JUMPI PUSH0 PUSH0 DUP3 DUP2 SLOAD DUP2 LT PUSH2 0xFC JUMPI PUSH2 0xFB PUSH2 0x57D JUMP JUMPDEST JUMPDEST SWAP1 PUSH0 MSTORE PUSH1 0x20 PUSH0 KECCAK256 ADD PUSH0 SWAP1 SLOAD SWAP1 PUSH2 0x100 EXP SWAP1 DIV PUSH20 0xFFFFFFFFFFFFFFFFFFFFFFFFFFFFFFFFFFFFFFFF AND SWAP1 POP PUSH0 PUSH1 0x1 PUSH0 DUP4 PUSH20 0xFFFFFFFFFFFFFFFFFFFFFFFFFFFFFFFFFFFFFFFF AND PUSH20 0xFFFFFFFFFFFFFFFFFFFFFFFFFFFFFFFFFFFFFFFF AND DUP2 MSTORE PUSH1 0x20 ADD SWAP1 DUP2 MSTORE PUSH1 0x20 ADD PUSH0 KECCAK256 DUP2 SWAP1 SSTORE POP POP DUP1 DUP1 PUSH2 0x174 SWAP1 PUSH2 0x5E0 JUMP JUMPDEST SWAP2 POP POP PUSH2 0xDC JUMP JUMPDEST PUSH0 PUSH8 0xFFFFFFFFFFFFFFFF DUP2 GT ISZERO PUSH2 0x196 JUMPI PUSH2 0x195 PUSH2 0x627 JUMP JUMPDEST JUMPDEST PUSH1 0x40 MLOAD SWAP1 DUP1 DUP3 MSTORE DUP1 PUSH1 0x20 MUL PUSH1 0x20 ADD DUP3 ADD PUSH1 0x40 MSTORE DUP1 ISZERO PUSH2 0x1C4 JUMPI DUP2 PUSH1 0x20 ADD PUSH1 0x20 DUP3 MUL DUP1 CALLDATASIZE DUP4 CALLDATACOPY DUP1 DUP3 ADD SWAP2 POP POP SWAP1 POP JUMPDEST POP PUSH0 SWAP1 DUP1 MLOAD SWAP1 PUSH1 0x20 ADD SWAP1 PUSH2 0x1D9 SWAP3 SWAP2 SWAP1 PUSH2 0x463 JUMP JUMPDEST POP PUSH0 CALLER PUSH20 0xFFFFFFFFFFFFFFFFFFFFFFFFFFFFFFFFFFFFFFFF AND SELFBALANCE PUSH1 0x40 MLOAD PUSH2 0x1FF SWAP1 PUSH2 0x681 JUMP JUMPDEST PUSH0 PUSH1 0x40 MLOAD DUP1 DUP4 SUB DUP2 DUP6 DUP8 GAS CALL SWAP3 POP POP POP RETURNDATASIZE DUP1 PUSH0 DUP2 EQ PUSH2 0x239 JUMPI PUSH1 0x40 MLOAD SWAP2 POP PUSH1 0x1F NOT PUSH1 0x3F RETURNDATASIZE ADD AND DUP3 ADD PUSH1 0x40 MSTORE RETURNDATASIZE DUP3 MSTORE RETURNDATASIZE PUSH0 PUSH1 0x20 DUP5 ADD RETURNDATACOPY PUSH2 0x23E JUMP JUMPDEST PUSH1 0x60 SWAP2 POP JUMPDEST POP POP SWAP1 POP DUP1 PUSH2 0x282 JUMPI PUSH1 0x40 MLOAD PUSH32 0x8C379A000000000000000000000000000000000000000000000000000000000 DUP2 MSTORE PUSH1 0x4 ADD PUSH2 0x279 SWAP1 PUSH2 0x6DF JUMP JUMPDEST PUSH1 0x40 MLOAD DUP1 SWAP2 SUB SWAP1 REVERT JUMPDEST POP POP JUMP JUMPDEST PUSH1 0x5 PUSH2 0x291 CALLVALUE PUSH2 0x386 JUMP JUMPDEST LT ISZERO PUSH2 0x2D2 JUMPI PUSH1 0x40 MLOAD PUSH32 0x8C379A000000000000000000000000000000000000000000000000000000000 DUP2 MSTORE PUSH1 0x4 ADD PUSH2 0x2C9 SWAP1 PUSH2 0x747 JUMP JUMPDEST PUSH1 0x40 MLOAD DUP1 SWAP2 SUB SWAP1 REVERT JUMPDEST PUSH0 CALLER SWAP1 DUP1 PUSH1 0x1 DUP2 SLOAD ADD DUP1 DUP3 SSTORE DUP1 SWAP2 POP POP PUSH1 0x1 SWAP1 SUB SWAP1 PUSH0 MSTORE PUSH1 0x20 PUSH0 KECCAK256 ADD PUSH0 SWAP1 SWAP2 SWAP1 SWAP2 SWAP1 SWAP2 PUSH2 0x100 EXP DUP2 SLOAD DUP2 PUSH20 0xFFFFFFFFFFFFFFFFFFFFFFFFFFFFFFFFFFFFFFFF MUL NOT AND SWAP1 DUP4 PUSH20 0xFFFFFFFFFFFFFFFFFFFFFFFFFFFFFFFFFFFFFFFF AND MUL OR SWAP1 SSTORE POP CALLVALUE PUSH1 0x1 PUSH0 CALLER PUSH20 0xFFFFFFFFFFFFFFFFFFFFFFFFFFFFFFFFFFFFFFFF AND PUSH20 0xFFFFFFFFFFFFFFFFFFFFFFFFFFFFFFFFFFFFFFFF AND DUP2 MSTORE PUSH1 0x20 ADD SWAP1 DUP2 MSTORE PUSH1 0x20 ADD PUSH0 KECCAK256 PUSH0 DUP3 DUP3 SLOAD PUSH2 0x37D SWAP2 SWAP1 PUSH2 0x765 JUMP JUMPDEST SWAP3 POP POP DUP2 SWAP1 SSTORE POP JUMP JUMPDEST PUSH0 PUSH0 PUSH2 0x390 PUSH2 0x3BE JUMP JUMPDEST SWAP1 POP PUSH0 PUSH8 0xDE0B6B3A7640000 DUP5 DUP4 PUSH2 0x3A8 SWAP2 SWAP1 PUSH2 0x798 JUMP JUMPDEST PUSH2 0x3B2 SWAP2 SWAP1 PUSH2 0x806 JUMP JUMPDEST SWAP1 POP DUP1 SWAP3 POP POP POP SWAP2 SWAP1 POP JUMP JUMPDEST PUSH0 PUSH0 PUSH20 0x1B44F3514812D835EB1BDB0ACB33D3FA3351EE43 SWAP1 POP PUSH0 DUP2 PUSH20 0xFFFFFFFFFFFFFFFFFFFFFFFFFFFFFFFFFFFFFFFF AND PUSH4 0xFEAF968C PUSH1 0x40 MLOAD DUP2 PUSH4 0xFFFFFFFF AND PUSH1 0xE0 SHL DUP2 MSTORE PUSH1 0x4 ADD PUSH1 0xA0 PUSH1 0x40 MLOAD DUP1 DUP4 SUB DUP2 DUP7 GAS STATICCALL ISZERO DUP1 ISZERO PUSH2 0x421 JUMPI RETURNDATASIZE PUSH0 PUSH0 RETURNDATACOPY RETURNDATASIZE PUSH0 REVERT JUMPDEST POP POP POP POP PUSH1 0x40 MLOAD RETURNDATASIZE PUSH1 0x1F NOT PUSH1 0x1F DUP3 ADD AND DUP3 ADD DUP1 PUSH1 0x40 MSTORE POP DUP2 ADD SWAP1 PUSH2 0x445 SWAP2 SWAP1 PUSH2 0x8D6 JUMP JUMPDEST POP POP POP SWAP2 POP POP PUSH5 0x2540BE400 DUP2 PUSH2 0x45C SWAP2 SWAP1 PUSH2 0x798 JUMP JUMPDEST SWAP3 POP POP POP SWAP1 JUMP JUMPDEST DUP3 DUP1 SLOAD DUP3 DUP3 SSTORE SWAP1 PUSH0 MSTORE PUSH1 0x20 PUSH0 KECCAK256 SWAP1 DUP2 ADD SWAP3 DUP3 ISZERO PUSH2 0x4D9 JUMPI SWAP2 PUSH1 0x20 MUL DUP3 ADD JUMPDEST DUP3 DUP2 GT ISZERO PUSH2 0x4D8 JUMPI DUP3 MLOAD DUP3 PUSH0 PUSH2 0x100 EXP DUP2 SLOAD DUP2 PUSH20 0xFFFFFFFFFFFFFFFFFFFFFFFFFFFFFFFFFFFFFFFF MUL NOT AND SWAP1 DUP4 PUSH20 0xFFFFFFFFFFFFFFFFFFFFFFFFFFFFFFFFFFFFFFFF AND MUL OR SWAP1 SSTORE POP SWAP2 PUSH1 0x20 ADD SWAP2 SWAP1 PUSH1 0x1 ADD SWAP1 PUSH2 0x481 JUMP JUMPDEST JUMPDEST POP SWAP1 POP PUSH2 0x4E6 SWAP2 SWAP1 PUSH2 0x4EA JUMP JUMPDEST POP SWAP1 JUMP JUMPDEST JUMPDEST DUP1 DUP3 GT ISZERO PUSH2 0x501 JUMPI PUSH0 DUP2 PUSH0 SWAP1 SSTORE POP PUSH1 0x1 ADD PUSH2 0x4EB JUMP JUMPDEST POP SWAP1 JUMP JUMPDEST PUSH0 DUP3 DUP3 MSTORE PUSH1 0x20 DUP3 ADD SWAP1 POP SWAP3 SWAP2 POP POP JUMP JUMPDEST PUSH32 0x4E6F74204F776E65720000000000000000000000000000000000000000000000 PUSH0 DUP3 ADD MSTORE POP JUMP JUMPDEST PUSH0 PUSH2 0x549 PUSH1 0x9 DUP4 PUSH2 0x505 JUMP JUMPDEST SWAP2 POP PUSH2 0x554 DUP3 PUSH2 0x515 JUMP JUMPDEST PUSH1 0x20 DUP3 ADD SWAP1 POP SWAP2 SWAP1 POP JUMP JUMPDEST PUSH0 PUSH1 0x20 DUP3 ADD SWAP1 POP DUP2 DUP2 SUB PUSH0 DUP4 ADD MSTORE PUSH2 0x576 DUP2 PUSH2 0x53D JUMP JUMPDEST SWAP1 POP SWAP2 SWAP1 POP JUMP JUMPDEST PUSH32 0x4E487B7100000000000000000000000000000000000000000000000000000000 PUSH0 MSTORE PUSH1 0x32 PUSH1 0x4 MSTORE PUSH1 0x24 PUSH0 REVERT JUMPDEST PUSH32 0x4E487B7100000000000000000000000000000000000000000000000000000000 PUSH0 MSTORE PUSH1 0x11 PUSH1 0x4 MSTORE PUSH1 0x24 PUSH0 REVERT JUMPDEST PUSH0 DUP2 SWAP1 POP SWAP2 SWAP1 POP JUMP JUMPDEST PUSH0 PUSH2 0x5EA DUP3 PUSH2 0x5D7 JUMP JUMPDEST SWAP2 POP PUSH32 0xFFFFFFFFFFFFFFFFFFFFFFFFFFFFFFFFFFFFFFFFFFFFFFFFFFFFFFFFFFFFFFFF DUP3 SUB PUSH2 0x61C JUMPI PUSH2 0x61B PUSH2 0x5AA JUMP JUMPDEST JUMPDEST PUSH1 0x1 DUP3 ADD SWAP1 POP SWAP2 SWAP1 POP JUMP JUMPDEST PUSH32 0x4E487B7100000000000000000000000000000000000000000000000000000000 PUSH0 MSTORE PUSH1 0x41 PUSH1 0x4 MSTORE PUSH1 0x24 PUSH0 REVERT JUMPDEST PUSH0 DUP2 SWAP1 POP SWAP3 SWAP2 POP POP JUMP JUMPDEST POP JUMP JUMPDEST PUSH0 PUSH2 0x66C PUSH0 DUP4 PUSH2 0x654 JUMP JUMPDEST SWAP2 POP PUSH2 0x677 DUP3 PUSH2 0x65E JUMP JUMPDEST PUSH0 DUP3 ADD SWAP1 POP SWAP2 SWAP1 POP JUMP JUMPDEST PUSH0 PUSH2 0x68B DUP3 PUSH2 0x661 JUMP JUMPDEST SWAP2 POP DUP2 SWAP1 POP SWAP2 SWAP1 POP JUMP JUMPDEST PUSH32 0x43616C6C206661696C6564000000000000000000000000000000000000000000 PUSH0 DUP3 ADD MSTORE POP JUMP JUMPDEST PUSH0 PUSH2 0x6C9 PUSH1 0xB DUP4 PUSH2 0x505 JUMP JUMPDEST SWAP2 POP PUSH2 0x6D4 DUP3 PUSH2 0x695 JUMP JUMPDEST PUSH1 0x20 DUP3 ADD SWAP1 POP SWAP2 SWAP1 POP JUMP JUMPDEST PUSH0 PUSH1 0x20 DUP3 ADD SWAP1 POP DUP2 DUP2 SUB PUSH0 DUP4 ADD MSTORE PUSH2 0x6F6 DUP2 PUSH2 0x6BD JUMP JUMPDEST SWAP1 POP SWAP2 SWAP1 POP JUMP JUMPDEST PUSH32 0x6C657373207468616E203520646F6C6C6172732073656E740000000000000000 PUSH0 DUP3 ADD MSTORE POP JUMP JUMPDEST PUSH0 PUSH2 0x731 PUSH1 0x18 DUP4 PUSH2 0x505 JUMP JUMPDEST SWAP2 POP PUSH2 0x73C DUP3 PUSH2 0x6FD JUMP JUMPDEST PUSH1 0x20 DUP3 ADD SWAP1 POP SWAP2 SWAP1 POP JUMP JUMPDEST PUSH0 PUSH1 0x20 DUP3 ADD SWAP1 POP DUP2 DUP2 SUB PUSH0 DUP4 ADD MSTORE PUSH2 0x75E DUP2 PUSH2 0x725 JUMP JUMPDEST SWAP1 POP SWAP2 SWAP1 POP JUMP JUMPDEST PUSH0 PUSH2 0x76F DUP3 PUSH2 0x5D7 JUMP JUMPDEST SWAP2 POP PUSH2 0x77A DUP4 PUSH2 0x5D7 JUMP JUMPDEST SWAP3 POP DUP3 DUP3 ADD SWAP1 POP DUP1 DUP3 GT ISZERO PUSH2 0x792 JUMPI PUSH2 0x791 PUSH2 0x5AA JUMP JUMPDEST JUMPDEST SWAP3 SWAP2 POP POP JUMP JUMPDEST PUSH0 PUSH2 0x7A2 DUP3 PUSH2 0x5D7 JUMP JUMPDEST SWAP2 POP PUSH2 0x7AD DUP4 PUSH2 0x5D7 JUMP JUMPDEST SWAP3 POP DUP3 DUP3 MUL PUSH2 0x7BB DUP2 PUSH2 0x5D7 JUMP JUMPDEST SWAP2 POP DUP3 DUP3 DIV DUP5 EQ DUP4 ISZERO OR PUSH2 0x7D2 JUMPI PUSH2 0x7D1 PUSH2 0x5AA JUMP JUMPDEST JUMPDEST POP SWAP3 SWAP2 POP POP JUMP JUMPDEST PUSH32 0x4E487B7100000000000000000000000000000000000000000000000000000000 PUSH0 MSTORE PUSH1 0x12 PUSH1 0x4 MSTORE PUSH1 0x24 PUSH0 REVERT JUMPDEST PUSH0 PUSH2 0x810 DUP3 PUSH2 0x5D7 JUMP JUMPDEST SWAP2 POP PUSH2 0x81B DUP4 PUSH2 0x5D7 JUMP JUMPDEST SWAP3 POP DUP3 PUSH2 0x82B JUMPI PUSH2 0x82A PUSH2 0x7D9 JUMP JUMPDEST JUMPDEST DUP3 DUP3 DIV SWAP1 POP SWAP3 SWAP2 POP POP JUMP JUMPDEST PUSH0 PUSH0 REVERT JUMPDEST PUSH0 PUSH10 0xFFFFFFFFFFFFFFFFFFFF DUP3 AND SWAP1 POP SWAP2 SWAP1 POP JUMP JUMPDEST PUSH2 0x858 DUP2 PUSH2 0x83A JUMP JUMPDEST DUP2 EQ PUSH2 0x862 JUMPI PUSH0 PUSH0 REVERT JUMPDEST POP JUMP JUMPDEST PUSH0 DUP2 MLOAD SWAP1 POP PUSH2 0x873 DUP2 PUSH2 0x84F JUMP JUMPDEST SWAP3 SWAP2 POP POP JUMP JUMPDEST PUSH0 DUP2 SWAP1 POP SWAP2 SWAP1 POP JUMP JUMPDEST PUSH2 0x88B DUP2 PUSH2 0x879 JUMP JUMPDEST DUP2 EQ PUSH2 0x895 JUMPI PUSH0 PUSH0 REVERT JUMPDEST POP JUMP JUMPDEST PUSH0 DUP2 MLOAD SWAP1 POP PUSH2 0x8A6 DUP2 PUSH2 0x882 JUMP JUMPDEST SWAP3 SWAP2 POP POP JUMP JUMPDEST PUSH2 0x8B5 DUP2 PUSH2 0x5D7 JUMP JUMPDEST DUP2 EQ PUSH2 0x8BF JUMPI PUSH0 PUSH0 REVERT JUMPDEST POP JUMP JUMPDEST PUSH0 DUP2 MLOAD SWAP1 POP PUSH2 0x8D0 DUP2 PUSH2 0x8AC JUMP JUMPDEST SWAP3 SWAP2 POP POP JUMP JUMPDEST PUSH0 PUSH0 PUSH0 PUSH0 PUSH0 PUSH1 0xA0 DUP7 DUP9 SUB SLT ISZERO PUSH2 0x8EF JUMPI PUSH2 0x8EE PUSH2 0x836 JUMP JUMPDEST JUMPDEST PUSH0 PUSH2 0x8FC DUP9 DUP3 DUP10 ADD PUSH2 0x865 JUMP JUMPDEST SWAP6 POP POP PUSH1 0x20 PUSH2 0x90D DUP9 DUP3 DUP10 ADD PUSH2 0x898 JUMP JUMPDEST SWAP5 POP POP PUSH1 0x40 PUSH2 0x91E DUP9 DUP3 DUP10 ADD PUSH2 0x8C2 JUMP JUMPDEST SWAP4 POP POP PUSH1 0x60 PUSH2 0x92F DUP9 DUP3 DUP10 ADD PUSH2 0x8C2 JUMP JUMPDEST SWAP3 POP POP PUSH1 0x80 PUSH2 0x940 DUP9 DUP3 DUP10 ADD PUSH2 0x865 JUMP JUMPDEST SWAP2 POP POP SWAP3 SWAP6 POP SWAP3 SWAP6 SWAP1 SWAP4 POP JUMP INVALID LOG2 PUSH5 0x6970667358 0x22 SLT KECCAK256 NOT 0xE0 RETURNDATASIZE DIV 0xAE PUSH23 0xC615C732BAF50F1C15048BC7EFFCDAB4E0D3FE2863DEA4 PUSH16 0x9BDF64736F6C634300081B0033000000 "
				},
				"gasEstimates": {
					"creation": {
						"codeDepositCost": "487000",
						"executionCost": "infinite",
						"totalCost": "infinite"
					},
					"external": {
						"fund()": "infinite",
						"withdraw()": "infinite"
					}
				},
				"methodIdentifiers": {
					"fund()": "b60d4288",
					"withdraw()": "3ccfd60b"
				}
			},
			"storageLayout": {
				"storage": [
					{
						"astId": 63,
						"contract": "Cyfrin Updraft Challenges/3.24.sol:FundMe",
						"label": "funders",
						"offset": 0,
						"slot": "0",
						"type": "t_array(t_address)dyn_storage"
					},
					{
						"astId": 67,
						"contract": "Cyfrin Updraft Challenges/3.24.sol:FundMe",
						"label": "addressToAmountFunded",
						"offset": 0,
						"slot": "1",
						"type": "t_mapping(t_address,t_uint256)"
					}
				],
				"types": {
					"t_address": {
						"encoding": "inplace",
						"label": "address",
						"numberOfBytes": "20"
					},
					"t_array(t_address)dyn_storage": {
						"base": "t_address",
						"encoding": "dynamic_array",
						"label": "address[]",
						"numberOfBytes": "32"
					},
					"t_mapping(t_address,t_uint256)": {
						"encoding": "mapping",
						"key": "t_address",
						"label": "mapping(address => uint256)",
						"numberOfBytes": "32",
						"value": "t_uint256"
					},
					"t_uint256": {
						"encoding": "inplace",
						"label": "uint256",
						"numberOfBytes": "32"
					}
				}
			},
			"userdoc": {
				"kind": "user",
				"methods": {},
				"version": 1
			}
		}
	}
}